{
	"SmartContractVoting/voting.sol": {
		"Ballot": {
			"abi": [
				{
					"inputs": [
						{
							"internalType": "bytes32[]",
							"name": "proposalNames",
							"type": "bytes32[]"
						},
						{
							"internalType": "uint256",
							"name": "durationMinutes",
							"type": "uint256"
						}
					],
					"stateMutability": "nonpayable",
					"type": "constructor"
				},
				{
					"anonymous": false,
					"inputs": [
						{
							"indexed": false,
							"internalType": "bytes32",
							"name": "winnerName",
							"type": "bytes32"
						},
						{
							"indexed": false,
							"internalType": "uint256",
							"name": "voteCount",
							"type": "uint256"
						}
					],
					"name": "VotingResults",
					"type": "event"
				},
				{
					"inputs": [
						{
							"internalType": "bytes32",
							"name": "proposalName",
							"type": "bytes32"
						}
					],
					"name": "addProposal",
					"outputs": [],
					"stateMutability": "nonpayable",
					"type": "function"
				},
				{
					"inputs": [],
					"name": "announceWinner",
					"outputs": [],
					"stateMutability": "nonpayable",
					"type": "function"
				},
				{
					"inputs": [],
					"name": "chairperson",
					"outputs": [
						{
							"internalType": "address",
							"name": "",
							"type": "address"
						}
					],
					"stateMutability": "view",
					"type": "function"
				},
				{
					"inputs": [
						{
							"internalType": "address",
							"name": "to",
							"type": "address"
						}
					],
					"name": "delegate",
					"outputs": [],
					"stateMutability": "nonpayable",
					"type": "function"
				},
				{
					"inputs": [
						{
							"internalType": "address",
							"name": "voter",
							"type": "address"
						}
					],
					"name": "giveRightToVote",
					"outputs": [],
					"stateMutability": "nonpayable",
					"type": "function"
				},
				{
					"inputs": [
						{
							"internalType": "uint256",
							"name": "",
							"type": "uint256"
						}
					],
					"name": "proposals",
					"outputs": [
						{
							"internalType": "bytes32",
							"name": "name",
							"type": "bytes32"
						},
						{
							"internalType": "uint256",
							"name": "voteCount",
							"type": "uint256"
						}
					],
					"stateMutability": "view",
					"type": "function"
				},
				{
					"inputs": [],
					"name": "retractVote",
					"outputs": [],
					"stateMutability": "nonpayable",
					"type": "function"
				},
				{
					"inputs": [
						{
							"internalType": "uint256",
							"name": "proposal",
							"type": "uint256"
						}
					],
					"name": "vote",
					"outputs": [],
					"stateMutability": "nonpayable",
					"type": "function"
				},
				{
					"inputs": [
						{
							"internalType": "address",
							"name": "",
							"type": "address"
						}
					],
					"name": "voters",
					"outputs": [
						{
							"internalType": "uint256",
							"name": "weight",
							"type": "uint256"
						},
						{
							"internalType": "bool",
							"name": "voted",
							"type": "bool"
						},
						{
							"internalType": "address",
							"name": "delegate",
							"type": "address"
						},
						{
							"internalType": "uint256",
							"name": "vote",
							"type": "uint256"
						}
					],
					"stateMutability": "view",
					"type": "function"
				},
				{
					"inputs": [],
					"name": "votingDeadline",
					"outputs": [
						{
							"internalType": "uint256",
							"name": "",
							"type": "uint256"
						}
					],
					"stateMutability": "view",
					"type": "function"
				},
				{
					"inputs": [],
					"name": "winnerName",
					"outputs": [
						{
							"internalType": "bytes32",
							"name": "winnerName_",
							"type": "bytes32"
						}
					],
					"stateMutability": "view",
					"type": "function"
				},
				{
					"inputs": [],
					"name": "winningProposal",
					"outputs": [
						{
							"internalType": "uint256",
							"name": "winningProposal_",
							"type": "uint256"
						}
					],
					"stateMutability": "view",
					"type": "function"
				}
			],
			"devdoc": {
				"details": "Implements voting process along with vote delegation, proposal addition, vote retraction, and voting deadline.",
				"events": {
					"VotingResults(bytes32,uint256)": {
						"details": "Announce the winner of the voting process by emitting an event."
					}
				},
				"kind": "dev",
				"methods": {
					"addProposal(bytes32)": {
						"details": "Add a new proposal. Only the chairperson can call this.",
						"params": {
							"proposalName": "name of the new proposal"
						}
					},
					"constructor": {
						"details": "Create a new ballot to choose one of 'proposalNames' with a voting deadline.",
						"params": {
							"durationMinutes": "the time duration for voting in minutes",
							"proposalNames": "names of proposals"
						}
					},
					"delegate(address)": {
						"details": "Delegate your vote to the voter 'to'.",
						"params": {
							"to": "address to which vote is delegated"
						}
					},
					"giveRightToVote(address)": {
						"details": "Give 'voter' the right to vote on this ballot. May only be called by 'chairperson'.",
						"params": {
							"voter": "address of voter"
						}
					},
					"retractVote()": {
						"details": "Retract your vote, allowing you to vote again."
					},
					"vote(uint256)": {
						"details": "Give your vote to proposal 'proposals[proposal].name'.",
						"params": {
							"proposal": "index of proposal in the proposals array"
						}
					},
					"winnerName()": {
						"details": "Calls winningProposal() function to get the index of the winner and returns the name of the winner.",
						"returns": {
							"winnerName_": "the name of the winning proposal"
						}
					},
					"winningProposal()": {
						"details": "Computes the winning proposal taking all previous votes into account.",
						"returns": {
							"winningProposal_": "index of winning proposal in the proposals array"
						}
					}
				},
				"title": "Ballot",
				"version": 1
			},
			"evm": {
				"assembly": "    /* \"SmartContractVoting/voting.sol\":183:5420  contract Ballot {... */\n  mstore(0x40, 0x80)\n    /* \"SmartContractVoting/voting.sol\":982:1407  constructor(bytes32[] memory proposalNames, uint durationMinutes) {... */\n  callvalue\n  dup1\n  iszero\n  tag_1\n  jumpi\n  0x00\n  dup1\n  revert\ntag_1:\n  pop\n  mload(0x40)\n  sub(codesize, bytecodeSize)\n  dup1\n  bytecodeSize\n  dup4\n  codecopy\n  dup2\n  dup2\n  add\n  0x40\n  mstore\n  dup2\n  add\n  swap1\n  tag_2\n  swap2\n  swap1\n  tag_3\n  jump\t// in\ntag_2:\n    /* \"SmartContractVoting/voting.sol\":1073:1083  msg.sender */\n  caller\n    /* \"SmartContractVoting/voting.sol\":1059:1070  chairperson */\n  0x00\n  dup1\n    /* \"SmartContractVoting/voting.sol\":1059:1083  chairperson = msg.sender */\n  0x0100\n  exp\n  dup2\n  sload\n  dup2\n  0xffffffffffffffffffffffffffffffffffffffff\n  mul\n  not\n  and\n  swap1\n  dup4\n  0xffffffffffffffffffffffffffffffffffffffff\n  and\n  mul\n  or\n  swap1\n  sstore\n  pop\n    /* \"SmartContractVoting/voting.sol\":1123:1124  1 */\n  0x01\n    /* \"SmartContractVoting/voting.sol\":1094:1100  voters */\n  0x03\n    /* \"SmartContractVoting/voting.sol\":1094:1113  voters[chairperson] */\n  0x00\n    /* \"SmartContractVoting/voting.sol\":1101:1112  chairperson */\n  dup1\n  0x00\n  swap1\n  sload\n  swap1\n  0x0100\n  exp\n  swap1\n  div\n  0xffffffffffffffffffffffffffffffffffffffff\n  and\n    /* \"SmartContractVoting/voting.sol\":1094:1113  voters[chairperson] */\n  0xffffffffffffffffffffffffffffffffffffffff\n  and\n  0xffffffffffffffffffffffffffffffffffffffff\n  and\n  dup2\n  mstore\n  0x20\n  add\n  swap1\n  dup2\n  mstore\n  0x20\n  add\n  0x00\n  keccak256\n    /* \"SmartContractVoting/voting.sol\":1094:1120  voters[chairperson].weight */\n  0x00\n  add\n    /* \"SmartContractVoting/voting.sol\":1094:1124  voters[chairperson].weight = 1 */\n  dup2\n  swap1\n  sstore\n  pop\n    /* \"SmartContractVoting/voting.sol\":1189:1198  1 minutes */\n  0x3c\n    /* \"SmartContractVoting/voting.sol\":1171:1186  durationMinutes */\n  dup2\n    /* \"SmartContractVoting/voting.sol\":1171:1198  durationMinutes * 1 minutes */\n  tag_6\n  swap2\n  swap1\n  tag_7\n  jump\t// in\ntag_6:\n    /* \"SmartContractVoting/voting.sol\":1152:1167  block.timestamp */\n  timestamp\n    /* \"SmartContractVoting/voting.sol\":1152:1199  block.timestamp + (durationMinutes * 1 minutes) */\n  tag_8\n  swap2\n  swap1\n  tag_9\n  jump\t// in\ntag_8:\n    /* \"SmartContractVoting/voting.sol\":1135:1149  votingDeadline */\n  0x01\n    /* \"SmartContractVoting/voting.sol\":1135:1199  votingDeadline = block.timestamp + (durationMinutes * 1 minutes) */\n  dup2\n  swap1\n  sstore\n  pop\n    /* \"SmartContractVoting/voting.sol\":1217:1223  uint i */\n  0x00\n    /* \"SmartContractVoting/voting.sol\":1212:1400  for (uint i = 0; i < proposalNames.length; i++) {... */\ntag_10:\n    /* \"SmartContractVoting/voting.sol\":1233:1246  proposalNames */\n  dup3\n    /* \"SmartContractVoting/voting.sol\":1233:1253  proposalNames.length */\n  mload\n    /* \"SmartContractVoting/voting.sol\":1229:1230  i */\n  dup2\n    /* \"SmartContractVoting/voting.sol\":1229:1253  i < proposalNames.length */\n  lt\n    /* \"SmartContractVoting/voting.sol\":1212:1400  for (uint i = 0; i < proposalNames.length; i++) {... */\n  iszero\n  tag_11\n  jumpi\n    /* \"SmartContractVoting/voting.sol\":1275:1284  proposals */\n  0x02\n    /* \"SmartContractVoting/voting.sol\":1290:1387  Proposal({... */\n  mload(0x40)\n  dup1\n  0x40\n  add\n  0x40\n  mstore\n  dup1\n    /* \"SmartContractVoting/voting.sol\":1324:1337  proposalNames */\n  dup6\n    /* \"SmartContractVoting/voting.sol\":1338:1339  i */\n  dup5\n    /* \"SmartContractVoting/voting.sol\":1324:1340  proposalNames[i] */\n  dup2\n  mload\n  dup2\n  lt\n  tag_13\n  jumpi\n  tag_14\n  tag_15\n  jump\t// in\ntag_14:\ntag_13:\n  0x20\n  mul\n  0x20\n  add\n  add\n  mload\n    /* \"SmartContractVoting/voting.sol\":1290:1387  Proposal({... */\n  dup2\n  mstore\n  0x20\n  add\n    /* \"SmartContractVoting/voting.sol\":1370:1371  0 */\n  0x00\n    /* \"SmartContractVoting/voting.sol\":1290:1387  Proposal({... */\n  dup2\n  mstore\n  pop\n    /* \"SmartContractVoting/voting.sol\":1275:1388  proposals.push(Proposal({... */\n  swap1\n  dup1\n  0x01\n  dup2\n  sload\n  add\n  dup1\n  dup3\n  sstore\n  dup1\n  swap2\n  pop\n  pop\n  0x01\n  swap1\n  sub\n  swap1\n  0x00\n  mstore\n  keccak256(0x00, 0x20)\n  swap1\n  0x02\n  mul\n  add\n  0x00\n  swap1\n  swap2\n  swap1\n  swap2\n  swap1\n  swap2\n  pop\n  0x00\n  dup3\n  add\n  mload\n  dup2\n  0x00\n  add\n  sstore\n  0x20\n  dup3\n  add\n  mload\n  dup2\n  0x01\n  add\n  sstore\n  pop\n  pop\n    /* \"SmartContractVoting/voting.sol\":1255:1258  i++ */\n  dup1\n  dup1\n  0x01\n  add\n  swap2\n  pop\n  pop\n    /* \"SmartContractVoting/voting.sol\":1212:1400  for (uint i = 0; i < proposalNames.length; i++) {... */\n  jump(tag_10)\ntag_11:\n  pop\n    /* \"SmartContractVoting/voting.sol\":982:1407  constructor(bytes32[] memory proposalNames, uint durationMinutes) {... */\n  pop\n  pop\n    /* \"SmartContractVoting/voting.sol\":183:5420  contract Ballot {... */\n  jump(tag_17)\n    /* \"#utility.yul\":7:82   */\ntag_18:\n    /* \"#utility.yul\":40:46   */\n  0x00\n    /* \"#utility.yul\":73:75   */\n  0x40\n    /* \"#utility.yul\":67:76   */\n  mload\n    /* \"#utility.yul\":57:76   */\n  swap1\n  pop\n    /* \"#utility.yul\":7:82   */\n  swap1\n  jump\t// out\n    /* \"#utility.yul\":88:205   */\ntag_19:\n    /* \"#utility.yul\":197:198   */\n  0x00\n    /* \"#utility.yul\":194:195   */\n  dup1\n    /* \"#utility.yul\":187:199   */\n  revert\n    /* \"#utility.yul\":211:328   */\ntag_20:\n    /* \"#utility.yul\":320:321   */\n  0x00\n    /* \"#utility.yul\":317:318   */\n  dup1\n    /* \"#utility.yul\":310:322   */\n  revert\n    /* \"#utility.yul\":334:451   */\ntag_21:\n    /* \"#utility.yul\":443:444   */\n  0x00\n    /* \"#utility.yul\":440:441   */\n  dup1\n    /* \"#utility.yul\":433:445   */\n  revert\n    /* \"#utility.yul\":457:559   */\ntag_22:\n    /* \"#utility.yul\":498:504   */\n  0x00\n    /* \"#utility.yul\":549:551   */\n  0x1f\n    /* \"#utility.yul\":545:552   */\n  not\n    /* \"#utility.yul\":540:542   */\n  0x1f\n    /* \"#utility.yul\":533:538   */\n  dup4\n    /* \"#utility.yul\":529:543   */\n  add\n    /* \"#utility.yul\":525:553   */\n  and\n    /* \"#utility.yul\":515:553   */\n  swap1\n  pop\n    /* \"#utility.yul\":457:559   */\n  swap2\n  swap1\n  pop\n  jump\t// out\n    /* \"#utility.yul\":565:745   */\ntag_23:\n    /* \"#utility.yul\":613:690   */\n  0x4e487b7100000000000000000000000000000000000000000000000000000000\n    /* \"#utility.yul\":610:611   */\n  0x00\n    /* \"#utility.yul\":603:691   */\n  mstore\n    /* \"#utility.yul\":710:714   */\n  0x41\n    /* \"#utility.yul\":707:708   */\n  0x04\n    /* \"#utility.yul\":700:715   */\n  mstore\n    /* \"#utility.yul\":734:738   */\n  0x24\n    /* \"#utility.yul\":731:732   */\n  0x00\n    /* \"#utility.yul\":724:739   */\n  revert\n    /* \"#utility.yul\":751:1032   */\ntag_24:\n    /* \"#utility.yul\":834:861   */\n  tag_45\n    /* \"#utility.yul\":856:860   */\n  dup3\n    /* \"#utility.yul\":834:861   */\n  tag_22\n  jump\t// in\ntag_45:\n    /* \"#utility.yul\":826:832   */\n  dup2\n    /* \"#utility.yul\":822:862   */\n  add\n    /* \"#utility.yul\":964:970   */\n  dup2\n    /* \"#utility.yul\":952:962   */\n  dup2\n    /* \"#utility.yul\":949:971   */\n  lt\n    /* \"#utility.yul\":928:946   */\n  0xffffffffffffffff\n    /* \"#utility.yul\":916:926   */\n  dup3\n    /* \"#utility.yul\":913:947   */\n  gt\n    /* \"#utility.yul\":910:972   */\n  or\n    /* \"#utility.yul\":907:995   */\n  iszero\n  tag_46\n  jumpi\n    /* \"#utility.yul\":975:993   */\n  tag_47\n  tag_23\n  jump\t// in\ntag_47:\n    /* \"#utility.yul\":907:995   */\ntag_46:\n    /* \"#utility.yul\":1015:1025   */\n  dup1\n    /* \"#utility.yul\":1011:1013   */\n  0x40\n    /* \"#utility.yul\":1004:1026   */\n  mstore\n    /* \"#utility.yul\":794:1032   */\n  pop\n    /* \"#utility.yul\":751:1032   */\n  pop\n  pop\n  jump\t// out\n    /* \"#utility.yul\":1038:1167   */\ntag_25:\n    /* \"#utility.yul\":1072:1078   */\n  0x00\n    /* \"#utility.yul\":1099:1119   */\n  tag_49\n  tag_18\n  jump\t// in\ntag_49:\n    /* \"#utility.yul\":1089:1119   */\n  swap1\n  pop\n    /* \"#utility.yul\":1128:1161   */\n  tag_50\n    /* \"#utility.yul\":1156:1160   */\n  dup3\n    /* \"#utility.yul\":1148:1154   */\n  dup3\n    /* \"#utility.yul\":1128:1161   */\n  tag_24\n  jump\t// in\ntag_50:\n    /* \"#utility.yul\":1038:1167   */\n  swap2\n  swap1\n  pop\n  jump\t// out\n    /* \"#utility.yul\":1173:1484   */\ntag_26:\n    /* \"#utility.yul\":1250:1254   */\n  0x00\n    /* \"#utility.yul\":1340:1358   */\n  0xffffffffffffffff\n    /* \"#utility.yul\":1332:1338   */\n  dup3\n    /* \"#utility.yul\":1329:1359   */\n  gt\n    /* \"#utility.yul\":1326:1382   */\n  iszero\n  tag_52\n  jumpi\n    /* \"#utility.yul\":1362:1380   */\n  tag_53\n  tag_23\n  jump\t// in\ntag_53:\n    /* \"#utility.yul\":1326:1382   */\ntag_52:\n    /* \"#utility.yul\":1412:1416   */\n  0x20\n    /* \"#utility.yul\":1404:1410   */\n  dup3\n    /* \"#utility.yul\":1400:1417   */\n  mul\n    /* \"#utility.yul\":1392:1417   */\n  swap1\n  pop\n    /* \"#utility.yul\":1472:1476   */\n  0x20\n    /* \"#utility.yul\":1466:1470   */\n  dup2\n    /* \"#utility.yul\":1462:1477   */\n  add\n    /* \"#utility.yul\":1454:1477   */\n  swap1\n  pop\n    /* \"#utility.yul\":1173:1484   */\n  swap2\n  swap1\n  pop\n  jump\t// out\n    /* \"#utility.yul\":1490:1607   */\ntag_27:\n    /* \"#utility.yul\":1599:1600   */\n  0x00\n    /* \"#utility.yul\":1596:1597   */\n  dup1\n    /* \"#utility.yul\":1589:1601   */\n  revert\n    /* \"#utility.yul\":1613:1690   */\ntag_28:\n    /* \"#utility.yul\":1650:1657   */\n  0x00\n    /* \"#utility.yul\":1679:1684   */\n  dup2\n    /* \"#utility.yul\":1668:1684   */\n  swap1\n  pop\n    /* \"#utility.yul\":1613:1690   */\n  swap2\n  swap1\n  pop\n  jump\t// out\n    /* \"#utility.yul\":1696:1818   */\ntag_29:\n    /* \"#utility.yul\":1769:1793   */\n  tag_57\n    /* \"#utility.yul\":1787:1792   */\n  dup2\n    /* \"#utility.yul\":1769:1793   */\n  tag_28\n  jump\t// in\ntag_57:\n    /* \"#utility.yul\":1762:1767   */\n  dup2\n    /* \"#utility.yul\":1759:1794   */\n  eq\n    /* \"#utility.yul\":1749:1812   */\n  tag_58\n  jumpi\n    /* \"#utility.yul\":1808:1809   */\n  0x00\n    /* \"#utility.yul\":1805:1806   */\n  dup1\n    /* \"#utility.yul\":1798:1810   */\n  revert\n    /* \"#utility.yul\":1749:1812   */\ntag_58:\n    /* \"#utility.yul\":1696:1818   */\n  pop\n  jump\t// out\n    /* \"#utility.yul\":1824:1967   */\ntag_30:\n    /* \"#utility.yul\":1881:1886   */\n  0x00\n    /* \"#utility.yul\":1912:1918   */\n  dup2\n    /* \"#utility.yul\":1906:1919   */\n  mload\n    /* \"#utility.yul\":1897:1919   */\n  swap1\n  pop\n    /* \"#utility.yul\":1928:1961   */\n  tag_60\n    /* \"#utility.yul\":1955:1960   */\n  dup2\n    /* \"#utility.yul\":1928:1961   */\n  tag_29\n  jump\t// in\ntag_60:\n    /* \"#utility.yul\":1824:1967   */\n  swap3\n  swap2\n  pop\n  pop\n  jump\t// out\n    /* \"#utility.yul\":1990:2722   */\ntag_31:\n    /* \"#utility.yul\":2097:2102   */\n  0x00\n    /* \"#utility.yul\":2122:2203   */\n  tag_62\n    /* \"#utility.yul\":2138:2202   */\n  tag_63\n    /* \"#utility.yul\":2195:2201   */\n  dup5\n    /* \"#utility.yul\":2138:2202   */\n  tag_26\n  jump\t// in\ntag_63:\n    /* \"#utility.yul\":2122:2203   */\n  tag_25\n  jump\t// in\ntag_62:\n    /* \"#utility.yul\":2113:2203   */\n  swap1\n  pop\n    /* \"#utility.yul\":2223:2228   */\n  dup1\n    /* \"#utility.yul\":2252:2258   */\n  dup4\n    /* \"#utility.yul\":2245:2250   */\n  dup3\n    /* \"#utility.yul\":2238:2259   */\n  mstore\n    /* \"#utility.yul\":2286:2290   */\n  0x20\n    /* \"#utility.yul\":2279:2284   */\n  dup3\n    /* \"#utility.yul\":2275:2291   */\n  add\n    /* \"#utility.yul\":2268:2291   */\n  swap1\n  pop\n    /* \"#utility.yul\":2339:2343   */\n  0x20\n    /* \"#utility.yul\":2331:2337   */\n  dup5\n    /* \"#utility.yul\":2327:2344   */\n  mul\n    /* \"#utility.yul\":2319:2325   */\n  dup4\n    /* \"#utility.yul\":2315:2345   */\n  add\n    /* \"#utility.yul\":2368:2371   */\n  dup6\n    /* \"#utility.yul\":2360:2366   */\n  dup2\n    /* \"#utility.yul\":2357:2372   */\n  gt\n    /* \"#utility.yul\":2354:2476   */\n  iszero\n  tag_64\n  jumpi\n    /* \"#utility.yul\":2387:2466   */\n  tag_65\n  tag_27\n  jump\t// in\ntag_65:\n    /* \"#utility.yul\":2354:2476   */\ntag_64:\n    /* \"#utility.yul\":2502:2508   */\n  dup4\n    /* \"#utility.yul\":2485:2716   */\ntag_66:\n    /* \"#utility.yul\":2519:2525   */\n  dup2\n    /* \"#utility.yul\":2514:2517   */\n  dup2\n    /* \"#utility.yul\":2511:2526   */\n  lt\n    /* \"#utility.yul\":2485:2716   */\n  iszero\n  tag_68\n  jumpi\n    /* \"#utility.yul\":2594:2597   */\n  dup1\n    /* \"#utility.yul\":2623:2671   */\n  tag_69\n    /* \"#utility.yul\":2667:2670   */\n  dup9\n    /* \"#utility.yul\":2655:2665   */\n  dup3\n    /* \"#utility.yul\":2623:2671   */\n  tag_30\n  jump\t// in\ntag_69:\n    /* \"#utility.yul\":2618:2621   */\n  dup5\n    /* \"#utility.yul\":2611:2672   */\n  mstore\n    /* \"#utility.yul\":2701:2705   */\n  0x20\n    /* \"#utility.yul\":2696:2699   */\n  dup5\n    /* \"#utility.yul\":2692:2706   */\n  add\n    /* \"#utility.yul\":2685:2706   */\n  swap4\n  pop\n    /* \"#utility.yul\":2561:2716   */\n  pop\n    /* \"#utility.yul\":2545:2549   */\n  0x20\n    /* \"#utility.yul\":2540:2543   */\n  dup2\n    /* \"#utility.yul\":2536:2550   */\n  add\n    /* \"#utility.yul\":2529:2550   */\n  swap1\n  pop\n    /* \"#utility.yul\":2485:2716   */\n  jump(tag_66)\ntag_68:\n    /* \"#utility.yul\":2489:2510   */\n  pop\n    /* \"#utility.yul\":2103:2722   */\n  pop\n  pop\n    /* \"#utility.yul\":1990:2722   */\n  swap4\n  swap3\n  pop\n  pop\n  pop\n  jump\t// out\n    /* \"#utility.yul\":2745:3130   */\ntag_32:\n    /* \"#utility.yul\":2827:2832   */\n  0x00\n    /* \"#utility.yul\":2876:2879   */\n  dup3\n    /* \"#utility.yul\":2869:2873   */\n  0x1f\n    /* \"#utility.yul\":2861:2867   */\n  dup4\n    /* \"#utility.yul\":2857:2874   */\n  add\n    /* \"#utility.yul\":2853:2880   */\n  slt\n    /* \"#utility.yul\":2843:2965   */\n  tag_71\n  jumpi\n    /* \"#utility.yul\":2884:2963   */\n  tag_72\n  tag_21\n  jump\t// in\ntag_72:\n    /* \"#utility.yul\":2843:2965   */\ntag_71:\n    /* \"#utility.yul\":2994:3000   */\n  dup2\n    /* \"#utility.yul\":2988:3001   */\n  mload\n    /* \"#utility.yul\":3019:3124   */\n  tag_73\n    /* \"#utility.yul\":3120:3123   */\n  dup5\n    /* \"#utility.yul\":3112:3118   */\n  dup3\n    /* \"#utility.yul\":3105:3109   */\n  0x20\n    /* \"#utility.yul\":3097:3103   */\n  dup7\n    /* \"#utility.yul\":3093:3110   */\n  add\n    /* \"#utility.yul\":3019:3124   */\n  tag_31\n  jump\t// in\ntag_73:\n    /* \"#utility.yul\":3010:3124   */\n  swap2\n  pop\n    /* \"#utility.yul\":2833:3130   */\n  pop\n    /* \"#utility.yul\":2745:3130   */\n  swap3\n  swap2\n  pop\n  pop\n  jump\t// out\n    /* \"#utility.yul\":3136:3213   */\ntag_33:\n    /* \"#utility.yul\":3173:3180   */\n  0x00\n    /* \"#utility.yul\":3202:3207   */\n  dup2\n    /* \"#utility.yul\":3191:3207   */\n  swap1\n  pop\n    /* \"#utility.yul\":3136:3213   */\n  swap2\n  swap1\n  pop\n  jump\t// out\n    /* \"#utility.yul\":3219:3341   */\ntag_34:\n    /* \"#utility.yul\":3292:3316   */\n  tag_76\n    /* \"#utility.yul\":3310:3315   */\n  dup2\n    /* \"#utility.yul\":3292:3316   */\n  tag_33\n  jump\t// in\ntag_76:\n    /* \"#utility.yul\":3285:3290   */\n  dup2\n    /* \"#utility.yul\":3282:3317   */\n  eq\n    /* \"#utility.yul\":3272:3335   */\n  tag_77\n  jumpi\n    /* \"#utility.yul\":3331:3332   */\n  0x00\n    /* \"#utility.yul\":3328:3329   */\n  dup1\n    /* \"#utility.yul\":3321:3333   */\n  revert\n    /* \"#utility.yul\":3272:3335   */\ntag_77:\n    /* \"#utility.yul\":3219:3341   */\n  pop\n  jump\t// out\n    /* \"#utility.yul\":3347:3490   */\ntag_35:\n    /* \"#utility.yul\":3404:3409   */\n  0x00\n    /* \"#utility.yul\":3435:3441   */\n  dup2\n    /* \"#utility.yul\":3429:3442   */\n  mload\n    /* \"#utility.yul\":3420:3442   */\n  swap1\n  pop\n    /* \"#utility.yul\":3451:3484   */\n  tag_79\n    /* \"#utility.yul\":3478:3483   */\n  dup2\n    /* \"#utility.yul\":3451:3484   */\n  tag_34\n  jump\t// in\ntag_79:\n    /* \"#utility.yul\":3347:3490   */\n  swap3\n  swap2\n  pop\n  pop\n  jump\t// out\n    /* \"#utility.yul\":3496:4206   */\ntag_3:\n    /* \"#utility.yul\":3600:3606   */\n  0x00\n    /* \"#utility.yul\":3608:3614   */\n  dup1\n    /* \"#utility.yul\":3657:3659   */\n  0x40\n    /* \"#utility.yul\":3645:3654   */\n  dup4\n    /* \"#utility.yul\":3636:3643   */\n  dup6\n    /* \"#utility.yul\":3632:3655   */\n  sub\n    /* \"#utility.yul\":3628:3660   */\n  slt\n    /* \"#utility.yul\":3625:3744   */\n  iszero\n  tag_81\n  jumpi\n    /* \"#utility.yul\":3663:3742   */\n  tag_82\n  tag_19\n  jump\t// in\ntag_82:\n    /* \"#utility.yul\":3625:3744   */\ntag_81:\n    /* \"#utility.yul\":3804:3805   */\n  0x00\n    /* \"#utility.yul\":3793:3802   */\n  dup4\n    /* \"#utility.yul\":3789:3806   */\n  add\n    /* \"#utility.yul\":3783:3807   */\n  mload\n    /* \"#utility.yul\":3834:3852   */\n  0xffffffffffffffff\n    /* \"#utility.yul\":3826:3832   */\n  dup2\n    /* \"#utility.yul\":3823:3853   */\n  gt\n    /* \"#utility.yul\":3820:3937   */\n  iszero\n  tag_83\n  jumpi\n    /* \"#utility.yul\":3856:3935   */\n  tag_84\n  tag_20\n  jump\t// in\ntag_84:\n    /* \"#utility.yul\":3820:3937   */\ntag_83:\n    /* \"#utility.yul\":3961:4050   */\n  tag_85\n    /* \"#utility.yul\":4042:4049   */\n  dup6\n    /* \"#utility.yul\":4033:4039   */\n  dup3\n    /* \"#utility.yul\":4022:4031   */\n  dup7\n    /* \"#utility.yul\":4018:4040   */\n  add\n    /* \"#utility.yul\":3961:4050   */\n  tag_32\n  jump\t// in\ntag_85:\n    /* \"#utility.yul\":3951:4050   */\n  swap3\n  pop\n    /* \"#utility.yul\":3754:4060   */\n  pop\n    /* \"#utility.yul\":4099:4101   */\n  0x20\n    /* \"#utility.yul\":4125:4189   */\n  tag_86\n    /* \"#utility.yul\":4181:4188   */\n  dup6\n    /* \"#utility.yul\":4172:4178   */\n  dup3\n    /* \"#utility.yul\":4161:4170   */\n  dup7\n    /* \"#utility.yul\":4157:4179   */\n  add\n    /* \"#utility.yul\":4125:4189   */\n  tag_35\n  jump\t// in\ntag_86:\n    /* \"#utility.yul\":4115:4189   */\n  swap2\n  pop\n    /* \"#utility.yul\":4070:4199   */\n  pop\n    /* \"#utility.yul\":3496:4206   */\n  swap3\n  pop\n  swap3\n  swap1\n  pop\n  jump\t// out\n    /* \"#utility.yul\":4212:4392   */\ntag_36:\n    /* \"#utility.yul\":4260:4337   */\n  0x4e487b7100000000000000000000000000000000000000000000000000000000\n    /* \"#utility.yul\":4257:4258   */\n  0x00\n    /* \"#utility.yul\":4250:4338   */\n  mstore\n    /* \"#utility.yul\":4357:4361   */\n  0x11\n    /* \"#utility.yul\":4354:4355   */\n  0x04\n    /* \"#utility.yul\":4347:4362   */\n  mstore\n    /* \"#utility.yul\":4381:4385   */\n  0x24\n    /* \"#utility.yul\":4378:4379   */\n  0x00\n    /* \"#utility.yul\":4371:4386   */\n  revert\n    /* \"#utility.yul\":4398:4808   */\ntag_7:\n    /* \"#utility.yul\":4438:4445   */\n  0x00\n    /* \"#utility.yul\":4461:4481   */\n  tag_89\n    /* \"#utility.yul\":4479:4480   */\n  dup3\n    /* \"#utility.yul\":4461:4481   */\n  tag_33\n  jump\t// in\ntag_89:\n    /* \"#utility.yul\":4456:4481   */\n  swap2\n  pop\n    /* \"#utility.yul\":4495:4515   */\n  tag_90\n    /* \"#utility.yul\":4513:4514   */\n  dup4\n    /* \"#utility.yul\":4495:4515   */\n  tag_33\n  jump\t// in\ntag_90:\n    /* \"#utility.yul\":4490:4515   */\n  swap3\n  pop\n    /* \"#utility.yul\":4550:4551   */\n  dup3\n    /* \"#utility.yul\":4547:4548   */\n  dup3\n    /* \"#utility.yul\":4543:4552   */\n  mul\n    /* \"#utility.yul\":4572:4602   */\n  tag_91\n    /* \"#utility.yul\":4590:4601   */\n  dup2\n    /* \"#utility.yul\":4572:4602   */\n  tag_33\n  jump\t// in\ntag_91:\n    /* \"#utility.yul\":4561:4602   */\n  swap2\n  pop\n    /* \"#utility.yul\":4751:4752   */\n  dup3\n    /* \"#utility.yul\":4742:4749   */\n  dup3\n    /* \"#utility.yul\":4738:4753   */\n  div\n    /* \"#utility.yul\":4735:4736   */\n  dup5\n    /* \"#utility.yul\":4732:4754   */\n  eq\n    /* \"#utility.yul\":4712:4713   */\n  dup4\n    /* \"#utility.yul\":4705:4714   */\n  iszero\n    /* \"#utility.yul\":4685:4768   */\n  or\n    /* \"#utility.yul\":4662:4801   */\n  tag_92\n  jumpi\n    /* \"#utility.yul\":4781:4799   */\n  tag_93\n  tag_36\n  jump\t// in\ntag_93:\n    /* \"#utility.yul\":4662:4801   */\ntag_92:\n    /* \"#utility.yul\":4446:4808   */\n  pop\n    /* \"#utility.yul\":4398:4808   */\n  swap3\n  swap2\n  pop\n  pop\n  jump\t// out\n    /* \"#utility.yul\":4814:5005   */\ntag_9:\n    /* \"#utility.yul\":4854:4857   */\n  0x00\n    /* \"#utility.yul\":4873:4893   */\n  tag_95\n    /* \"#utility.yul\":4891:4892   */\n  dup3\n    /* \"#utility.yul\":4873:4893   */\n  tag_33\n  jump\t// in\ntag_95:\n    /* \"#utility.yul\":4868:4893   */\n  swap2\n  pop\n    /* \"#utility.yul\":4907:4927   */\n  tag_96\n    /* \"#utility.yul\":4925:4926   */\n  dup4\n    /* \"#utility.yul\":4907:4927   */\n  tag_33\n  jump\t// in\ntag_96:\n    /* \"#utility.yul\":4902:4927   */\n  swap3\n  pop\n    /* \"#utility.yul\":4950:4951   */\n  dup3\n    /* \"#utility.yul\":4947:4948   */\n  dup3\n    /* \"#utility.yul\":4943:4952   */\n  add\n    /* \"#utility.yul\":4936:4952   */\n  swap1\n  pop\n    /* \"#utility.yul\":4971:4974   */\n  dup1\n    /* \"#utility.yul\":4968:4969   */\n  dup3\n    /* \"#utility.yul\":4965:4975   */\n  gt\n    /* \"#utility.yul\":4962:4998   */\n  iszero\n  tag_97\n  jumpi\n    /* \"#utility.yul\":4978:4996   */\n  tag_98\n  tag_36\n  jump\t// in\ntag_98:\n    /* \"#utility.yul\":4962:4998   */\ntag_97:\n    /* \"#utility.yul\":4814:5005   */\n  swap3\n  swap2\n  pop\n  pop\n  jump\t// out\n    /* \"#utility.yul\":5011:5191   */\ntag_15:\n    /* \"#utility.yul\":5059:5136   */\n  0x4e487b7100000000000000000000000000000000000000000000000000000000\n    /* \"#utility.yul\":5056:5057   */\n  0x00\n    /* \"#utility.yul\":5049:5137   */\n  mstore\n    /* \"#utility.yul\":5156:5160   */\n  0x32\n    /* \"#utility.yul\":5153:5154   */\n  0x04\n    /* \"#utility.yul\":5146:5161   */\n  mstore\n    /* \"#utility.yul\":5180:5184   */\n  0x24\n    /* \"#utility.yul\":5177:5178   */\n  0x00\n    /* \"#utility.yul\":5170:5185   */\n  revert\n    /* \"SmartContractVoting/voting.sol\":183:5420  contract Ballot {... */\ntag_17:\n  dataSize(sub_0)\n  dup1\n  dataOffset(sub_0)\n  0x00\n  codecopy\n  0x00\n  return\nstop\n\nsub_0: assembly {\n        /* \"SmartContractVoting/voting.sol\":183:5420  contract Ballot {... */\n      mstore(0x40, 0x80)\n      callvalue\n      dup1\n      iszero\n      tag_1\n      jumpi\n      0x00\n      dup1\n      revert\n    tag_1:\n      pop\n      jumpi(tag_2, lt(calldatasize, 0x04))\n      shr(0xe0, calldataload(0x00))\n      dup1\n      0x2e4176cf\n      gt\n      tag_15\n      jumpi\n      dup1\n      0x2e4176cf\n      eq\n      tag_9\n      jumpi\n      dup1\n      0x5c19a95c\n      eq\n      tag_10\n      jumpi\n      dup1\n      0x609ff1bd\n      eq\n      tag_11\n      jumpi\n      dup1\n      0x9e7b8d61\n      eq\n      tag_12\n      jumpi\n      dup1\n      0xa3ec138d\n      eq\n      tag_13\n      jumpi\n      dup1\n      0xe2ba53f0\n      eq\n      tag_14\n      jumpi\n      jump(tag_2)\n    tag_15:\n      dup1\n      0x0121b93f\n      eq\n      tag_3\n      jumpi\n      dup1\n      0x013cf08b\n      eq\n      tag_4\n      jumpi\n      dup1\n      0x036ee850\n      eq\n      tag_5\n      jumpi\n      dup1\n      0x06efe3b0\n      eq\n      tag_6\n      jumpi\n      dup1\n      0x070c8b74\n      eq\n      tag_7\n      jumpi\n      dup1\n      0x2d8cd096\n      eq\n      tag_8\n      jumpi\n    tag_2:\n      0x00\n      dup1\n      revert\n        /* \"SmartContractVoting/voting.sol\":3095:3444  function vote(uint proposal) public onlyBeforeDeadline {... */\n    tag_3:\n      tag_16\n      0x04\n      dup1\n      calldatasize\n      sub\n      dup2\n      add\n      swap1\n      tag_17\n      swap2\n      swap1\n      tag_18\n      jump\t// in\n    tag_17:\n      tag_19\n      jump\t// in\n    tag_16:\n      stop\n        /* \"SmartContractVoting/voting.sol\":671:698  Proposal[] public proposals */\n    tag_4:\n      tag_20\n      0x04\n      dup1\n      calldatasize\n      sub\n      dup2\n      add\n      swap1\n      tag_21\n      swap2\n      swap1\n      tag_18\n      jump\t// in\n    tag_21:\n      tag_22\n      jump\t// in\n    tag_20:\n      mload(0x40)\n      tag_23\n      swap3\n      swap2\n      swap1\n      tag_24\n      jump\t// in\n    tag_23:\n      mload(0x40)\n      dup1\n      swap2\n      sub\n      swap1\n      return\n        /* \"SmartContractVoting/voting.sol\":638:664  uint public votingDeadline */\n    tag_5:\n      tag_25\n      tag_26\n      jump\t// in\n    tag_25:\n      mload(0x40)\n      tag_27\n      swap2\n      swap1\n      tag_28\n      jump\t// in\n    tag_27:\n      mload(0x40)\n      dup1\n      swap2\n      sub\n      swap1\n      return\n        /* \"SmartContractVoting/voting.sol\":3962:4144  function addProposal(bytes32 proposalName) public onlyChairperson {... */\n    tag_6:\n      tag_29\n      0x04\n      dup1\n      calldatasize\n      sub\n      dup2\n      add\n      swap1\n      tag_30\n      swap2\n      swap1\n      tag_31\n      jump\t// in\n    tag_30:\n      tag_32\n      jump\t// in\n    tag_29:\n      stop\n        /* \"SmartContractVoting/voting.sol\":3530:3814  function retractVote() public onlyBeforeDeadline {... */\n    tag_7:\n      tag_33\n      tag_34\n      jump\t// in\n    tag_33:\n      stop\n        /* \"SmartContractVoting/voting.sol\":5189:5417  function announceWinner() public onlyBeforeDeadline {... */\n    tag_8:\n      tag_35\n      tag_36\n      jump\t// in\n    tag_35:\n      stop\n        /* \"SmartContractVoting/voting.sol\":605:631  address public chairperson */\n    tag_9:\n      tag_37\n      tag_38\n      jump\t// in\n    tag_37:\n      mload(0x40)\n      tag_39\n      swap2\n      swap1\n      tag_40\n      jump\t// in\n    tag_39:\n      mload(0x40)\n      dup1\n      swap2\n      sub\n      swap1\n      return\n        /* \"SmartContractVoting/voting.sol\":2233:2936  function delegate(address to) public onlyBeforeDeadline {... */\n    tag_10:\n      tag_41\n      0x04\n      dup1\n      calldatasize\n      sub\n      dup2\n      add\n      swap1\n      tag_42\n      swap2\n      swap1\n      tag_43\n      jump\t// in\n    tag_42:\n      tag_44\n      jump\t// in\n    tag_41:\n      stop\n        /* \"SmartContractVoting/voting.sol\":4335:4692  function winningProposal() public view returns (uint winningProposal_) {... */\n    tag_11:\n      tag_45\n      tag_46\n      jump\t// in\n    tag_45:\n      mload(0x40)\n      tag_47\n      swap2\n      swap1\n      tag_28\n      jump\t// in\n    tag_47:\n      mload(0x40)\n      dup1\n      swap2\n      sub\n      swap1\n      return\n        /* \"SmartContractVoting/voting.sol\":1844:2103  function giveRightToVote(address voter) public onlyChairperson {... */\n    tag_12:\n      tag_48\n      0x04\n      dup1\n      calldatasize\n      sub\n      dup2\n      add\n      swap1\n      tag_49\n      swap2\n      swap1\n      tag_43\n      jump\t// in\n    tag_49:\n      tag_50\n      jump\t// in\n    tag_48:\n      stop\n        /* \"SmartContractVoting/voting.sol\":707:746  mapping(address => Voter) public voters */\n    tag_13:\n      tag_51\n      0x04\n      dup1\n      calldatasize\n      sub\n      dup2\n      add\n      swap1\n      tag_52\n      swap2\n      swap1\n      tag_43\n      jump\t// in\n    tag_52:\n      tag_53\n      jump\t// in\n    tag_51:\n      mload(0x40)\n      tag_54\n      swap5\n      swap4\n      swap3\n      swap2\n      swap1\n      tag_55\n      jump\t// in\n    tag_54:\n      mload(0x40)\n      dup1\n      swap2\n      sub\n      swap1\n      return\n        /* \"SmartContractVoting/voting.sol\":4892:5022  function winnerName() public view returns (bytes32 winnerName_) {... */\n    tag_14:\n      tag_56\n      tag_57\n      jump\t// in\n    tag_56:\n      mload(0x40)\n      tag_58\n      swap2\n      swap1\n      tag_59\n      jump\t// in\n    tag_58:\n      mload(0x40)\n      dup1\n      swap2\n      sub\n      swap1\n      return\n        /* \"SmartContractVoting/voting.sol\":3095:3444  function vote(uint proposal) public onlyBeforeDeadline {... */\n    tag_19:\n        /* \"SmartContractVoting/voting.sol\":1482:1496  votingDeadline */\n      sload(0x01)\n        /* \"SmartContractVoting/voting.sol\":1464:1479  block.timestamp */\n      timestamp\n        /* \"SmartContractVoting/voting.sol\":1464:1496  block.timestamp < votingDeadline */\n      lt\n        /* \"SmartContractVoting/voting.sol\":1456:1518  require(block.timestamp < votingDeadline, \"Voting has ended.\") */\n      tag_61\n      jumpi\n      mload(0x40)\n      0x08c379a000000000000000000000000000000000000000000000000000000000\n      dup2\n      mstore\n      0x04\n      add\n      tag_62\n      swap1\n      tag_63\n      jump\t// in\n    tag_62:\n      mload(0x40)\n      dup1\n      swap2\n      sub\n      swap1\n      revert\n    tag_61:\n        /* \"SmartContractVoting/voting.sol\":3161:3181  Voter storage sender */\n      0x00\n        /* \"SmartContractVoting/voting.sol\":3184:3190  voters */\n      0x03\n        /* \"SmartContractVoting/voting.sol\":3184:3202  voters[msg.sender] */\n      0x00\n        /* \"SmartContractVoting/voting.sol\":3191:3201  msg.sender */\n      caller\n        /* \"SmartContractVoting/voting.sol\":3184:3202  voters[msg.sender] */\n      0xffffffffffffffffffffffffffffffffffffffff\n      and\n      0xffffffffffffffffffffffffffffffffffffffff\n      and\n      dup2\n      mstore\n      0x20\n      add\n      swap1\n      dup2\n      mstore\n      0x20\n      add\n      0x00\n      keccak256\n        /* \"SmartContractVoting/voting.sol\":3161:3202  Voter storage sender = voters[msg.sender] */\n      swap1\n      pop\n        /* \"SmartContractVoting/voting.sol\":3238:3239  0 */\n      0x00\n        /* \"SmartContractVoting/voting.sol\":3221:3227  sender */\n      dup2\n        /* \"SmartContractVoting/voting.sol\":3221:3234  sender.weight */\n      0x00\n      add\n      sload\n        /* \"SmartContractVoting/voting.sol\":3221:3239  sender.weight != 0 */\n      sub\n        /* \"SmartContractVoting/voting.sol\":3213:3265  require(sender.weight != 0, \"Has no right to vote.\") */\n      tag_65\n      jumpi\n      mload(0x40)\n      0x08c379a000000000000000000000000000000000000000000000000000000000\n      dup2\n      mstore\n      0x04\n      add\n      tag_66\n      swap1\n      tag_67\n      jump\t// in\n    tag_66:\n      mload(0x40)\n      dup1\n      swap2\n      sub\n      swap1\n      revert\n    tag_65:\n        /* \"SmartContractVoting/voting.sol\":3285:3291  sender */\n      dup1\n        /* \"SmartContractVoting/voting.sol\":3285:3297  sender.voted */\n      0x01\n      add\n      0x00\n      swap1\n      sload\n      swap1\n      0x0100\n      exp\n      swap1\n      div\n      0xff\n      and\n        /* \"SmartContractVoting/voting.sol\":3284:3297  !sender.voted */\n      iszero\n        /* \"SmartContractVoting/voting.sol\":3276:3316  require(!sender.voted, \"Already voted.\") */\n      tag_68\n      jumpi\n      mload(0x40)\n      0x08c379a000000000000000000000000000000000000000000000000000000000\n      dup2\n      mstore\n      0x04\n      add\n      tag_69\n      swap1\n      tag_70\n      jump\t// in\n    tag_69:\n      mload(0x40)\n      dup1\n      swap2\n      sub\n      swap1\n      revert\n    tag_68:\n        /* \"SmartContractVoting/voting.sol\":3342:3346  true */\n      0x01\n        /* \"SmartContractVoting/voting.sol\":3327:3333  sender */\n      dup2\n        /* \"SmartContractVoting/voting.sol\":3327:3339  sender.voted */\n      0x01\n      add\n      0x00\n        /* \"SmartContractVoting/voting.sol\":3327:3346  sender.voted = true */\n      0x0100\n      exp\n      dup2\n      sload\n      dup2\n      0xff\n      mul\n      not\n      and\n      swap1\n      dup4\n      iszero\n      iszero\n      mul\n      or\n      swap1\n      sstore\n      pop\n        /* \"SmartContractVoting/voting.sol\":3371:3379  proposal */\n      dup2\n        /* \"SmartContractVoting/voting.sol\":3357:3363  sender */\n      dup2\n        /* \"SmartContractVoting/voting.sol\":3357:3368  sender.vote */\n      0x02\n      add\n        /* \"SmartContractVoting/voting.sol\":3357:3379  sender.vote = proposal */\n      dup2\n      swap1\n      sstore\n      pop\n        /* \"SmartContractVoting/voting.sol\":3423:3429  sender */\n      dup1\n        /* \"SmartContractVoting/voting.sol\":3423:3436  sender.weight */\n      0x00\n      add\n      sload\n        /* \"SmartContractVoting/voting.sol\":3390:3399  proposals */\n      0x02\n        /* \"SmartContractVoting/voting.sol\":3400:3408  proposal */\n      dup4\n        /* \"SmartContractVoting/voting.sol\":3390:3409  proposals[proposal] */\n      dup2\n      sload\n      dup2\n      lt\n      tag_71\n      jumpi\n      tag_72\n      tag_73\n      jump\t// in\n    tag_72:\n    tag_71:\n      swap1\n      0x00\n      mstore\n      keccak256(0x00, 0x20)\n      swap1\n      0x02\n      mul\n      add\n        /* \"SmartContractVoting/voting.sol\":3390:3419  proposals[proposal].voteCount */\n      0x01\n      add\n      0x00\n        /* \"SmartContractVoting/voting.sol\":3390:3436  proposals[proposal].voteCount += sender.weight */\n      dup3\n      dup3\n      sload\n      tag_75\n      swap2\n      swap1\n      tag_76\n      jump\t// in\n    tag_75:\n      swap3\n      pop\n      pop\n      dup2\n      swap1\n      sstore\n      pop\n        /* \"SmartContractVoting/voting.sol\":3150:3444  {... */\n      pop\n        /* \"SmartContractVoting/voting.sol\":3095:3444  function vote(uint proposal) public onlyBeforeDeadline {... */\n      pop\n      jump\t// out\n        /* \"SmartContractVoting/voting.sol\":671:698  Proposal[] public proposals */\n    tag_22:\n      0x02\n      dup2\n      dup2\n      sload\n      dup2\n      lt\n      tag_77\n      jumpi\n      0x00\n      dup1\n      revert\n    tag_77:\n      swap1\n      0x00\n      mstore\n      keccak256(0x00, 0x20)\n      swap1\n      0x02\n      mul\n      add\n      0x00\n      swap2\n      pop\n      swap1\n      pop\n      dup1\n      0x00\n      add\n      sload\n      swap1\n      dup1\n      0x01\n      add\n      sload\n      swap1\n      pop\n      dup3\n      jump\t// out\n        /* \"SmartContractVoting/voting.sol\":638:664  uint public votingDeadline */\n    tag_26:\n      sload(0x01)\n      dup2\n      jump\t// out\n        /* \"SmartContractVoting/voting.sol\":3962:4144  function addProposal(bytes32 proposalName) public onlyChairperson {... */\n    tag_32:\n        /* \"SmartContractVoting/voting.sol\":1606:1617  chairperson */\n      0x00\n      dup1\n      sload\n      swap1\n      0x0100\n      exp\n      swap1\n      div\n      0xffffffffffffffffffffffffffffffffffffffff\n      and\n        /* \"SmartContractVoting/voting.sol\":1592:1617  msg.sender == chairperson */\n      0xffffffffffffffffffffffffffffffffffffffff\n      and\n        /* \"SmartContractVoting/voting.sol\":1592:1602  msg.sender */\n      caller\n        /* \"SmartContractVoting/voting.sol\":1592:1617  msg.sender == chairperson */\n      0xffffffffffffffffffffffffffffffffffffffff\n      and\n      eq\n        /* \"SmartContractVoting/voting.sol\":1584:1663  require(msg.sender == chairperson, \"Only chairperson can perform this action.\") */\n      tag_80\n      jumpi\n      mload(0x40)\n      0x08c379a000000000000000000000000000000000000000000000000000000000\n      dup2\n      mstore\n      0x04\n      add\n      tag_81\n      swap1\n      tag_82\n      jump\t// in\n    tag_81:\n      mload(0x40)\n      dup1\n      swap2\n      sub\n      swap1\n      revert\n    tag_80:\n        /* \"SmartContractVoting/voting.sol\":4039:4048  proposals */\n      0x02\n        /* \"SmartContractVoting/voting.sol\":4054:4135  Proposal({... */\n      mload(0x40)\n      dup1\n      0x40\n      add\n      0x40\n      mstore\n      dup1\n        /* \"SmartContractVoting/voting.sol\":4084:4096  proposalName */\n      dup4\n        /* \"SmartContractVoting/voting.sol\":4054:4135  Proposal({... */\n      dup2\n      mstore\n      0x20\n      add\n        /* \"SmartContractVoting/voting.sol\":4122:4123  0 */\n      0x00\n        /* \"SmartContractVoting/voting.sol\":4054:4135  Proposal({... */\n      dup2\n      mstore\n      pop\n        /* \"SmartContractVoting/voting.sol\":4039:4136  proposals.push(Proposal({... */\n      swap1\n      dup1\n      0x01\n      dup2\n      sload\n      add\n      dup1\n      dup3\n      sstore\n      dup1\n      swap2\n      pop\n      pop\n      0x01\n      swap1\n      sub\n      swap1\n      0x00\n      mstore\n      keccak256(0x00, 0x20)\n      swap1\n      0x02\n      mul\n      add\n      0x00\n      swap1\n      swap2\n      swap1\n      swap2\n      swap1\n      swap2\n      pop\n      0x00\n      dup3\n      add\n      mload\n      dup2\n      0x00\n      add\n      sstore\n      0x20\n      dup3\n      add\n      mload\n      dup2\n      0x01\n      add\n      sstore\n      pop\n      pop\n        /* \"SmartContractVoting/voting.sol\":3962:4144  function addProposal(bytes32 proposalName) public onlyChairperson {... */\n      pop\n      jump\t// out\n        /* \"SmartContractVoting/voting.sol\":3530:3814  function retractVote() public onlyBeforeDeadline {... */\n    tag_34:\n        /* \"SmartContractVoting/voting.sol\":1482:1496  votingDeadline */\n      sload(0x01)\n        /* \"SmartContractVoting/voting.sol\":1464:1479  block.timestamp */\n      timestamp\n        /* \"SmartContractVoting/voting.sol\":1464:1496  block.timestamp < votingDeadline */\n      lt\n        /* \"SmartContractVoting/voting.sol\":1456:1518  require(block.timestamp < votingDeadline, \"Voting has ended.\") */\n      tag_86\n      jumpi\n      mload(0x40)\n      0x08c379a000000000000000000000000000000000000000000000000000000000\n      dup2\n      mstore\n      0x04\n      add\n      tag_87\n      swap1\n      tag_63\n      jump\t// in\n    tag_87:\n      mload(0x40)\n      dup1\n      swap2\n      sub\n      swap1\n      revert\n    tag_86:\n        /* \"SmartContractVoting/voting.sol\":3590:3610  Voter storage sender */\n      0x00\n        /* \"SmartContractVoting/voting.sol\":3613:3619  voters */\n      0x03\n        /* \"SmartContractVoting/voting.sol\":3613:3631  voters[msg.sender] */\n      0x00\n        /* \"SmartContractVoting/voting.sol\":3620:3630  msg.sender */\n      caller\n        /* \"SmartContractVoting/voting.sol\":3613:3631  voters[msg.sender] */\n      0xffffffffffffffffffffffffffffffffffffffff\n      and\n      0xffffffffffffffffffffffffffffffffffffffff\n      and\n      dup2\n      mstore\n      0x20\n      add\n      swap1\n      dup2\n      mstore\n      0x20\n      add\n      0x00\n      keccak256\n        /* \"SmartContractVoting/voting.sol\":3590:3631  Voter storage sender = voters[msg.sender] */\n      swap1\n      pop\n        /* \"SmartContractVoting/voting.sol\":3650:3656  sender */\n      dup1\n        /* \"SmartContractVoting/voting.sol\":3650:3662  sender.voted */\n      0x01\n      add\n      0x00\n      swap1\n      sload\n      swap1\n      0x0100\n      exp\n      swap1\n      div\n      0xff\n      and\n        /* \"SmartContractVoting/voting.sol\":3642:3689  require(sender.voted, \"You haven't voted yet.\") */\n      tag_89\n      jumpi\n      mload(0x40)\n      0x08c379a000000000000000000000000000000000000000000000000000000000\n      dup2\n      mstore\n      0x04\n      add\n      tag_90\n      swap1\n      tag_91\n      jump\t// in\n    tag_90:\n      mload(0x40)\n      dup1\n      swap2\n      sub\n      swap1\n      revert\n    tag_89:\n        /* \"SmartContractVoting/voting.sol\":3736:3742  sender */\n      dup1\n        /* \"SmartContractVoting/voting.sol\":3736:3749  sender.weight */\n      0x00\n      add\n      sload\n        /* \"SmartContractVoting/voting.sol\":3700:3709  proposals */\n      0x02\n        /* \"SmartContractVoting/voting.sol\":3710:3716  sender */\n      dup3\n        /* \"SmartContractVoting/voting.sol\":3710:3721  sender.vote */\n      0x02\n      add\n      sload\n        /* \"SmartContractVoting/voting.sol\":3700:3722  proposals[sender.vote] */\n      dup2\n      sload\n      dup2\n      lt\n      tag_92\n      jumpi\n      tag_93\n      tag_73\n      jump\t// in\n    tag_93:\n    tag_92:\n      swap1\n      0x00\n      mstore\n      keccak256(0x00, 0x20)\n      swap1\n      0x02\n      mul\n      add\n        /* \"SmartContractVoting/voting.sol\":3700:3732  proposals[sender.vote].voteCount */\n      0x01\n      add\n      0x00\n        /* \"SmartContractVoting/voting.sol\":3700:3749  proposals[sender.vote].voteCount -= sender.weight */\n      dup3\n      dup3\n      sload\n      tag_95\n      swap2\n      swap1\n      tag_96\n      jump\t// in\n    tag_95:\n      swap3\n      pop\n      pop\n      dup2\n      swap1\n      sstore\n      pop\n        /* \"SmartContractVoting/voting.sol\":3775:3780  false */\n      0x00\n        /* \"SmartContractVoting/voting.sol\":3760:3766  sender */\n      dup2\n        /* \"SmartContractVoting/voting.sol\":3760:3772  sender.voted */\n      0x01\n      add\n      0x00\n        /* \"SmartContractVoting/voting.sol\":3760:3780  sender.voted = false */\n      0x0100\n      exp\n      dup2\n      sload\n      dup2\n      0xff\n      mul\n      not\n      and\n      swap1\n      dup4\n      iszero\n      iszero\n      mul\n      or\n      swap1\n      sstore\n      pop\n        /* \"SmartContractVoting/voting.sol\":3805:3806  0 */\n      0x00\n        /* \"SmartContractVoting/voting.sol\":3791:3797  sender */\n      dup2\n        /* \"SmartContractVoting/voting.sol\":3791:3802  sender.vote */\n      0x02\n      add\n        /* \"SmartContractVoting/voting.sol\":3791:3806  sender.vote = 0 */\n      dup2\n      swap1\n      sstore\n      pop\n        /* \"SmartContractVoting/voting.sol\":3579:3814  {... */\n      pop\n        /* \"SmartContractVoting/voting.sol\":3530:3814  function retractVote() public onlyBeforeDeadline {... */\n      jump\t// out\n        /* \"SmartContractVoting/voting.sol\":5189:5417  function announceWinner() public onlyBeforeDeadline {... */\n    tag_36:\n        /* \"SmartContractVoting/voting.sol\":1482:1496  votingDeadline */\n      sload(0x01)\n        /* \"SmartContractVoting/voting.sol\":1464:1479  block.timestamp */\n      timestamp\n        /* \"SmartContractVoting/voting.sol\":1464:1496  block.timestamp < votingDeadline */\n      lt\n        /* \"SmartContractVoting/voting.sol\":1456:1518  require(block.timestamp < votingDeadline, \"Voting has ended.\") */\n      tag_98\n      jumpi\n      mload(0x40)\n      0x08c379a000000000000000000000000000000000000000000000000000000000\n      dup2\n      mstore\n      0x04\n      add\n      tag_99\n      swap1\n      tag_63\n      jump\t// in\n    tag_99:\n      mload(0x40)\n      dup1\n      swap2\n      sub\n      swap1\n      revert\n    tag_98:\n        /* \"SmartContractVoting/voting.sol\":5252:5266  bytes32 winner */\n      0x00\n        /* \"SmartContractVoting/voting.sol\":5269:5281  winnerName() */\n      tag_101\n        /* \"SmartContractVoting/voting.sol\":5269:5279  winnerName */\n      tag_57\n        /* \"SmartContractVoting/voting.sol\":5269:5281  winnerName() */\n      jump\t// in\n    tag_101:\n        /* \"SmartContractVoting/voting.sol\":5252:5281  bytes32 winner = winnerName() */\n      swap1\n      pop\n        /* \"SmartContractVoting/voting.sol\":5292:5313  uint winningVoteCount */\n      0x00\n        /* \"SmartContractVoting/voting.sol\":5316:5325  proposals */\n      0x02\n        /* \"SmartContractVoting/voting.sol\":5326:5343  winningProposal() */\n      tag_102\n        /* \"SmartContractVoting/voting.sol\":5326:5341  winningProposal */\n      tag_46\n        /* \"SmartContractVoting/voting.sol\":5326:5343  winningProposal() */\n      jump\t// in\n    tag_102:\n        /* \"SmartContractVoting/voting.sol\":5316:5344  proposals[winningProposal()] */\n      dup2\n      sload\n      dup2\n      lt\n      tag_103\n      jumpi\n      tag_104\n      tag_73\n      jump\t// in\n    tag_104:\n    tag_103:\n      swap1\n      0x00\n      mstore\n      keccak256(0x00, 0x20)\n      swap1\n      0x02\n      mul\n      add\n        /* \"SmartContractVoting/voting.sol\":5316:5354  proposals[winningProposal()].voteCount */\n      0x01\n      add\n      sload\n        /* \"SmartContractVoting/voting.sol\":5292:5354  uint winningVoteCount = proposals[winningProposal()].voteCount */\n      swap1\n      pop\n        /* \"SmartContractVoting/voting.sol\":5370:5409  VotingResults(winner, winningVoteCount) */\n      0xaff5dcb1fd95b3029a9976c85911d00cdd11ce239597e6ee98ecfe834c68ad3d\n        /* \"SmartContractVoting/voting.sol\":5384:5390  winner */\n      dup3\n        /* \"SmartContractVoting/voting.sol\":5392:5408  winningVoteCount */\n      dup3\n        /* \"SmartContractVoting/voting.sol\":5370:5409  VotingResults(winner, winningVoteCount) */\n      mload(0x40)\n      tag_106\n      swap3\n      swap2\n      swap1\n      tag_24\n      jump\t// in\n    tag_106:\n      mload(0x40)\n      dup1\n      swap2\n      sub\n      swap1\n      log1\n        /* \"SmartContractVoting/voting.sol\":5241:5417  {... */\n      pop\n      pop\n        /* \"SmartContractVoting/voting.sol\":5189:5417  function announceWinner() public onlyBeforeDeadline {... */\n      jump\t// out\n        /* \"SmartContractVoting/voting.sol\":605:631  address public chairperson */\n    tag_38:\n      0x00\n      dup1\n      sload\n      swap1\n      0x0100\n      exp\n      swap1\n      div\n      0xffffffffffffffffffffffffffffffffffffffff\n      and\n      dup2\n      jump\t// out\n        /* \"SmartContractVoting/voting.sol\":2233:2936  function delegate(address to) public onlyBeforeDeadline {... */\n    tag_44:\n        /* \"SmartContractVoting/voting.sol\":1482:1496  votingDeadline */\n      sload(0x01)\n        /* \"SmartContractVoting/voting.sol\":1464:1479  block.timestamp */\n      timestamp\n        /* \"SmartContractVoting/voting.sol\":1464:1496  block.timestamp < votingDeadline */\n      lt\n        /* \"SmartContractVoting/voting.sol\":1456:1518  require(block.timestamp < votingDeadline, \"Voting has ended.\") */\n      tag_108\n      jumpi\n      mload(0x40)\n      0x08c379a000000000000000000000000000000000000000000000000000000000\n      dup2\n      mstore\n      0x04\n      add\n      tag_109\n      swap1\n      tag_63\n      jump\t// in\n    tag_109:\n      mload(0x40)\n      dup1\n      swap2\n      sub\n      swap1\n      revert\n    tag_108:\n        /* \"SmartContractVoting/voting.sol\":2300:2320  Voter storage sender */\n      0x00\n        /* \"SmartContractVoting/voting.sol\":2323:2329  voters */\n      0x03\n        /* \"SmartContractVoting/voting.sol\":2323:2341  voters[msg.sender] */\n      0x00\n        /* \"SmartContractVoting/voting.sol\":2330:2340  msg.sender */\n      caller\n        /* \"SmartContractVoting/voting.sol\":2323:2341  voters[msg.sender] */\n      0xffffffffffffffffffffffffffffffffffffffff\n      and\n      0xffffffffffffffffffffffffffffffffffffffff\n      and\n      dup2\n      mstore\n      0x20\n      add\n      swap1\n      dup2\n      mstore\n      0x20\n      add\n      0x00\n      keccak256\n        /* \"SmartContractVoting/voting.sol\":2300:2341  Voter storage sender = voters[msg.sender] */\n      swap1\n      pop\n        /* \"SmartContractVoting/voting.sol\":2361:2367  sender */\n      dup1\n        /* \"SmartContractVoting/voting.sol\":2361:2373  sender.voted */\n      0x01\n      add\n      0x00\n      swap1\n      sload\n      swap1\n      0x0100\n      exp\n      swap1\n      div\n      0xff\n      and\n        /* \"SmartContractVoting/voting.sol\":2360:2373  !sender.voted */\n      iszero\n        /* \"SmartContractVoting/voting.sol\":2352:2396  require(!sender.voted, \"You already voted.\") */\n      tag_111\n      jumpi\n      mload(0x40)\n      0x08c379a000000000000000000000000000000000000000000000000000000000\n      dup2\n      mstore\n      0x04\n      add\n      tag_112\n      swap1\n      tag_113\n      jump\t// in\n    tag_112:\n      mload(0x40)\n      dup1\n      swap2\n      sub\n      swap1\n      revert\n    tag_111:\n        /* \"SmartContractVoting/voting.sol\":2421:2431  msg.sender */\n      caller\n        /* \"SmartContractVoting/voting.sol\":2415:2431  to != msg.sender */\n      0xffffffffffffffffffffffffffffffffffffffff\n      and\n        /* \"SmartContractVoting/voting.sol\":2415:2417  to */\n      dup3\n        /* \"SmartContractVoting/voting.sol\":2415:2431  to != msg.sender */\n      0xffffffffffffffffffffffffffffffffffffffff\n      and\n      sub\n        /* \"SmartContractVoting/voting.sol\":2407:2466  require(to != msg.sender, \"Self-delegation is disallowed.\") */\n      tag_114\n      jumpi\n      mload(0x40)\n      0x08c379a000000000000000000000000000000000000000000000000000000000\n      dup2\n      mstore\n      0x04\n      add\n      tag_115\n      swap1\n      tag_116\n      jump\t// in\n    tag_115:\n      mload(0x40)\n      dup1\n      swap2\n      sub\n      swap1\n      revert\n    tag_114:\n        /* \"SmartContractVoting/voting.sol\":2479:2641  while (voters[to].delegate != address(0)) {... */\n    tag_117:\n        /* \"SmartContractVoting/voting.sol\":2517:2518  0 */\n      0x00\n        /* \"SmartContractVoting/voting.sol\":2486:2519  voters[to].delegate != address(0) */\n      0xffffffffffffffffffffffffffffffffffffffff\n      and\n        /* \"SmartContractVoting/voting.sol\":2486:2492  voters */\n      0x03\n        /* \"SmartContractVoting/voting.sol\":2486:2496  voters[to] */\n      0x00\n        /* \"SmartContractVoting/voting.sol\":2493:2495  to */\n      dup5\n        /* \"SmartContractVoting/voting.sol\":2486:2496  voters[to] */\n      0xffffffffffffffffffffffffffffffffffffffff\n      and\n      0xffffffffffffffffffffffffffffffffffffffff\n      and\n      dup2\n      mstore\n      0x20\n      add\n      swap1\n      dup2\n      mstore\n      0x20\n      add\n      0x00\n      keccak256\n        /* \"SmartContractVoting/voting.sol\":2486:2505  voters[to].delegate */\n      0x01\n      add\n      0x01\n      swap1\n      sload\n      swap1\n      0x0100\n      exp\n      swap1\n      div\n      0xffffffffffffffffffffffffffffffffffffffff\n      and\n        /* \"SmartContractVoting/voting.sol\":2486:2519  voters[to].delegate != address(0) */\n      0xffffffffffffffffffffffffffffffffffffffff\n      and\n      eq\n        /* \"SmartContractVoting/voting.sol\":2479:2641  while (voters[to].delegate != address(0)) {... */\n      tag_118\n      jumpi\n        /* \"SmartContractVoting/voting.sol\":2541:2547  voters */\n      0x03\n        /* \"SmartContractVoting/voting.sol\":2541:2551  voters[to] */\n      0x00\n        /* \"SmartContractVoting/voting.sol\":2548:2550  to */\n      dup4\n        /* \"SmartContractVoting/voting.sol\":2541:2551  voters[to] */\n      0xffffffffffffffffffffffffffffffffffffffff\n      and\n      0xffffffffffffffffffffffffffffffffffffffff\n      and\n      dup2\n      mstore\n      0x20\n      add\n      swap1\n      dup2\n      mstore\n      0x20\n      add\n      0x00\n      keccak256\n        /* \"SmartContractVoting/voting.sol\":2541:2560  voters[to].delegate */\n      0x01\n      add\n      0x01\n      swap1\n      sload\n      swap1\n      0x0100\n      exp\n      swap1\n      div\n      0xffffffffffffffffffffffffffffffffffffffff\n      and\n        /* \"SmartContractVoting/voting.sol\":2536:2560  to = voters[to].delegate */\n      swap2\n      pop\n        /* \"SmartContractVoting/voting.sol\":2589:2599  msg.sender */\n      caller\n        /* \"SmartContractVoting/voting.sol\":2583:2599  to != msg.sender */\n      0xffffffffffffffffffffffffffffffffffffffff\n      and\n        /* \"SmartContractVoting/voting.sol\":2583:2585  to */\n      dup3\n        /* \"SmartContractVoting/voting.sol\":2583:2599  to != msg.sender */\n      0xffffffffffffffffffffffffffffffffffffffff\n      and\n      sub\n        /* \"SmartContractVoting/voting.sol\":2575:2629  require(to != msg.sender, \"Found loop in delegation.\") */\n      tag_119\n      jumpi\n      mload(0x40)\n      0x08c379a000000000000000000000000000000000000000000000000000000000\n      dup2\n      mstore\n      0x04\n      add\n      tag_120\n      swap1\n      tag_121\n      jump\t// in\n    tag_120:\n      mload(0x40)\n      dup1\n      swap2\n      sub\n      swap1\n      revert\n    tag_119:\n        /* \"SmartContractVoting/voting.sol\":2479:2641  while (voters[to].delegate != address(0)) {... */\n      jump(tag_117)\n    tag_118:\n        /* \"SmartContractVoting/voting.sol\":2668:2672  true */\n      0x01\n        /* \"SmartContractVoting/voting.sol\":2653:2659  sender */\n      dup2\n        /* \"SmartContractVoting/voting.sol\":2653:2665  sender.voted */\n      0x01\n      add\n      0x00\n        /* \"SmartContractVoting/voting.sol\":2653:2672  sender.voted = true */\n      0x0100\n      exp\n      dup2\n      sload\n      dup2\n      0xff\n      mul\n      not\n      and\n      swap1\n      dup4\n      iszero\n      iszero\n      mul\n      or\n      swap1\n      sstore\n      pop\n        /* \"SmartContractVoting/voting.sol\":2701:2703  to */\n      dup2\n        /* \"SmartContractVoting/voting.sol\":2683:2689  sender */\n      dup2\n        /* \"SmartContractVoting/voting.sol\":2683:2698  sender.delegate */\n      0x01\n      add\n      0x01\n        /* \"SmartContractVoting/voting.sol\":2683:2703  sender.delegate = to */\n      0x0100\n      exp\n      dup2\n      sload\n      dup2\n      0xffffffffffffffffffffffffffffffffffffffff\n      mul\n      not\n      and\n      swap1\n      dup4\n      0xffffffffffffffffffffffffffffffffffffffff\n      and\n      mul\n      or\n      swap1\n      sstore\n      pop\n        /* \"SmartContractVoting/voting.sol\":2714:2737  Voter storage delegate_ */\n      0x00\n        /* \"SmartContractVoting/voting.sol\":2740:2746  voters */\n      0x03\n        /* \"SmartContractVoting/voting.sol\":2740:2750  voters[to] */\n      0x00\n        /* \"SmartContractVoting/voting.sol\":2747:2749  to */\n      dup5\n        /* \"SmartContractVoting/voting.sol\":2740:2750  voters[to] */\n      0xffffffffffffffffffffffffffffffffffffffff\n      and\n      0xffffffffffffffffffffffffffffffffffffffff\n      and\n      dup2\n      mstore\n      0x20\n      add\n      swap1\n      dup2\n      mstore\n      0x20\n      add\n      0x00\n      keccak256\n        /* \"SmartContractVoting/voting.sol\":2714:2750  Voter storage delegate_ = voters[to] */\n      swap1\n      pop\n        /* \"SmartContractVoting/voting.sol\":2767:2776  delegate_ */\n      dup1\n        /* \"SmartContractVoting/voting.sol\":2767:2782  delegate_.voted */\n      0x01\n      add\n      0x00\n      swap1\n      sload\n      swap1\n      0x0100\n      exp\n      swap1\n      div\n      0xff\n      and\n        /* \"SmartContractVoting/voting.sol\":2763:2929  if (delegate_.voted) {... */\n      iszero\n      tag_122\n      jumpi\n        /* \"SmartContractVoting/voting.sol\":2838:2844  sender */\n      dup2\n        /* \"SmartContractVoting/voting.sol\":2838:2851  sender.weight */\n      0x00\n      add\n      sload\n        /* \"SmartContractVoting/voting.sol\":2799:2808  proposals */\n      0x02\n        /* \"SmartContractVoting/voting.sol\":2809:2818  delegate_ */\n      dup3\n        /* \"SmartContractVoting/voting.sol\":2809:2823  delegate_.vote */\n      0x02\n      add\n      sload\n        /* \"SmartContractVoting/voting.sol\":2799:2824  proposals[delegate_.vote] */\n      dup2\n      sload\n      dup2\n      lt\n      tag_123\n      jumpi\n      tag_124\n      tag_73\n      jump\t// in\n    tag_124:\n    tag_123:\n      swap1\n      0x00\n      mstore\n      keccak256(0x00, 0x20)\n      swap1\n      0x02\n      mul\n      add\n        /* \"SmartContractVoting/voting.sol\":2799:2834  proposals[delegate_.vote].voteCount */\n      0x01\n      add\n      0x00\n        /* \"SmartContractVoting/voting.sol\":2799:2851  proposals[delegate_.vote].voteCount += sender.weight */\n      dup3\n      dup3\n      sload\n      tag_126\n      swap2\n      swap1\n      tag_76\n      jump\t// in\n    tag_126:\n      swap3\n      pop\n      pop\n      dup2\n      swap1\n      sstore\n      pop\n        /* \"SmartContractVoting/voting.sol\":2763:2929  if (delegate_.voted) {... */\n      jump(tag_127)\n    tag_122:\n        /* \"SmartContractVoting/voting.sol\":2904:2910  sender */\n      dup2\n        /* \"SmartContractVoting/voting.sol\":2904:2917  sender.weight */\n      0x00\n      add\n      sload\n        /* \"SmartContractVoting/voting.sol\":2884:2893  delegate_ */\n      dup2\n        /* \"SmartContractVoting/voting.sol\":2884:2900  delegate_.weight */\n      0x00\n      add\n      0x00\n        /* \"SmartContractVoting/voting.sol\":2884:2917  delegate_.weight += sender.weight */\n      dup3\n      dup3\n      sload\n      tag_128\n      swap2\n      swap1\n      tag_76\n      jump\t// in\n    tag_128:\n      swap3\n      pop\n      pop\n      dup2\n      swap1\n      sstore\n      pop\n        /* \"SmartContractVoting/voting.sol\":2763:2929  if (delegate_.voted) {... */\n    tag_127:\n        /* \"SmartContractVoting/voting.sol\":2289:2936  {... */\n      pop\n      pop\n        /* \"SmartContractVoting/voting.sol\":2233:2936  function delegate(address to) public onlyBeforeDeadline {... */\n      pop\n      jump\t// out\n        /* \"SmartContractVoting/voting.sol\":4335:4692  function winningProposal() public view returns (uint winningProposal_) {... */\n    tag_46:\n        /* \"SmartContractVoting/voting.sol\":4383:4404  uint winningProposal_ */\n      0x00\n        /* \"SmartContractVoting/voting.sol\":4417:4438  uint winningVoteCount */\n      dup1\n        /* \"SmartContractVoting/voting.sol\":4441:4442  0 */\n      0x00\n        /* \"SmartContractVoting/voting.sol\":4417:4442  uint winningVoteCount = 0 */\n      swap1\n      pop\n        /* \"SmartContractVoting/voting.sol\":4458:4464  uint p */\n      0x00\n        /* \"SmartContractVoting/voting.sol\":4453:4685  for (uint p = 0; p < proposals.length; p++) {... */\n    tag_130:\n        /* \"SmartContractVoting/voting.sol\":4474:4483  proposals */\n      0x02\n        /* \"SmartContractVoting/voting.sol\":4474:4490  proposals.length */\n      dup1\n      sload\n      swap1\n      pop\n        /* \"SmartContractVoting/voting.sol\":4470:4471  p */\n      dup2\n        /* \"SmartContractVoting/voting.sol\":4470:4490  p < proposals.length */\n      lt\n        /* \"SmartContractVoting/voting.sol\":4453:4685  for (uint p = 0; p < proposals.length; p++) {... */\n      iszero\n      tag_131\n      jumpi\n        /* \"SmartContractVoting/voting.sol\":4541:4557  winningVoteCount */\n      dup2\n        /* \"SmartContractVoting/voting.sol\":4516:4525  proposals */\n      0x02\n        /* \"SmartContractVoting/voting.sol\":4526:4527  p */\n      dup3\n        /* \"SmartContractVoting/voting.sol\":4516:4528  proposals[p] */\n      dup2\n      sload\n      dup2\n      lt\n      tag_133\n      jumpi\n      tag_134\n      tag_73\n      jump\t// in\n    tag_134:\n    tag_133:\n      swap1\n      0x00\n      mstore\n      keccak256(0x00, 0x20)\n      swap1\n      0x02\n      mul\n      add\n        /* \"SmartContractVoting/voting.sol\":4516:4538  proposals[p].voteCount */\n      0x01\n      add\n      sload\n        /* \"SmartContractVoting/voting.sol\":4516:4557  proposals[p].voteCount > winningVoteCount */\n      gt\n        /* \"SmartContractVoting/voting.sol\":4512:4674  if (proposals[p].voteCount > winningVoteCount) {... */\n      iszero\n      tag_136\n      jumpi\n        /* \"SmartContractVoting/voting.sol\":4597:4606  proposals */\n      0x02\n        /* \"SmartContractVoting/voting.sol\":4607:4608  p */\n      dup2\n        /* \"SmartContractVoting/voting.sol\":4597:4609  proposals[p] */\n      dup2\n      sload\n      dup2\n      lt\n      tag_137\n      jumpi\n      tag_138\n      tag_73\n      jump\t// in\n    tag_138:\n    tag_137:\n      swap1\n      0x00\n      mstore\n      keccak256(0x00, 0x20)\n      swap1\n      0x02\n      mul\n      add\n        /* \"SmartContractVoting/voting.sol\":4597:4619  proposals[p].voteCount */\n      0x01\n      add\n      sload\n        /* \"SmartContractVoting/voting.sol\":4578:4619  winningVoteCount = proposals[p].voteCount */\n      swap2\n      pop\n        /* \"SmartContractVoting/voting.sol\":4657:4658  p */\n      dup1\n        /* \"SmartContractVoting/voting.sol\":4638:4658  winningProposal_ = p */\n      swap3\n      pop\n        /* \"SmartContractVoting/voting.sol\":4512:4674  if (proposals[p].voteCount > winningVoteCount) {... */\n    tag_136:\n        /* \"SmartContractVoting/voting.sol\":4492:4495  p++ */\n      dup1\n      dup1\n      0x01\n      add\n      swap2\n      pop\n      pop\n        /* \"SmartContractVoting/voting.sol\":4453:4685  for (uint p = 0; p < proposals.length; p++) {... */\n      jump(tag_130)\n    tag_131:\n      pop\n        /* \"SmartContractVoting/voting.sol\":4406:4692  {... */\n      pop\n        /* \"SmartContractVoting/voting.sol\":4335:4692  function winningProposal() public view returns (uint winningProposal_) {... */\n      swap1\n      jump\t// out\n        /* \"SmartContractVoting/voting.sol\":1844:2103  function giveRightToVote(address voter) public onlyChairperson {... */\n    tag_50:\n        /* \"SmartContractVoting/voting.sol\":1606:1617  chairperson */\n      0x00\n      dup1\n      sload\n      swap1\n      0x0100\n      exp\n      swap1\n      div\n      0xffffffffffffffffffffffffffffffffffffffff\n      and\n        /* \"SmartContractVoting/voting.sol\":1592:1617  msg.sender == chairperson */\n      0xffffffffffffffffffffffffffffffffffffffff\n      and\n        /* \"SmartContractVoting/voting.sol\":1592:1602  msg.sender */\n      caller\n        /* \"SmartContractVoting/voting.sol\":1592:1617  msg.sender == chairperson */\n      0xffffffffffffffffffffffffffffffffffffffff\n      and\n      eq\n        /* \"SmartContractVoting/voting.sol\":1584:1663  require(msg.sender == chairperson, \"Only chairperson can perform this action.\") */\n      tag_141\n      jumpi\n      mload(0x40)\n      0x08c379a000000000000000000000000000000000000000000000000000000000\n      dup2\n      mstore\n      0x04\n      add\n      tag_142\n      swap1\n      tag_82\n      jump\t// in\n    tag_142:\n      mload(0x40)\n      dup1\n      swap2\n      sub\n      swap1\n      revert\n    tag_141:\n        /* \"SmartContractVoting/voting.sol\":1927:1933  voters */\n      0x03\n        /* \"SmartContractVoting/voting.sol\":1927:1940  voters[voter] */\n      0x00\n        /* \"SmartContractVoting/voting.sol\":1934:1939  voter */\n      dup3\n        /* \"SmartContractVoting/voting.sol\":1927:1940  voters[voter] */\n      0xffffffffffffffffffffffffffffffffffffffff\n      and\n      0xffffffffffffffffffffffffffffffffffffffff\n      and\n      dup2\n      mstore\n      0x20\n      add\n      swap1\n      dup2\n      mstore\n      0x20\n      add\n      0x00\n      keccak256\n        /* \"SmartContractVoting/voting.sol\":1927:1946  voters[voter].voted */\n      0x01\n      add\n      0x00\n      swap1\n      sload\n      swap1\n      0x0100\n      exp\n      swap1\n      div\n      0xff\n      and\n        /* \"SmartContractVoting/voting.sol\":1926:1946  !voters[voter].voted */\n      iszero\n        /* \"SmartContractVoting/voting.sol\":1918:1975  require(!voters[voter].voted, \"The voter already voted.\") */\n      tag_144\n      jumpi\n      mload(0x40)\n      0x08c379a000000000000000000000000000000000000000000000000000000000\n      dup2\n      mstore\n      0x04\n      add\n      tag_145\n      swap1\n      tag_146\n      jump\t// in\n    tag_145:\n      mload(0x40)\n      dup1\n      swap2\n      sub\n      swap1\n      revert\n    tag_144:\n        /* \"SmartContractVoting/voting.sol\":2018:2019  0 */\n      0x00\n        /* \"SmartContractVoting/voting.sol\":1994:2000  voters */\n      0x03\n        /* \"SmartContractVoting/voting.sol\":1994:2007  voters[voter] */\n      0x00\n        /* \"SmartContractVoting/voting.sol\":2001:2006  voter */\n      dup4\n        /* \"SmartContractVoting/voting.sol\":1994:2007  voters[voter] */\n      0xffffffffffffffffffffffffffffffffffffffff\n      and\n      0xffffffffffffffffffffffffffffffffffffffff\n      and\n      dup2\n      mstore\n      0x20\n      add\n      swap1\n      dup2\n      mstore\n      0x20\n      add\n      0x00\n      keccak256\n        /* \"SmartContractVoting/voting.sol\":1994:2014  voters[voter].weight */\n      0x00\n      add\n      sload\n        /* \"SmartContractVoting/voting.sol\":1994:2019  voters[voter].weight == 0 */\n      eq\n        /* \"SmartContractVoting/voting.sol\":1986:2060  require(voters[voter].weight == 0, \"Voter already has the right to vote.\") */\n      tag_147\n      jumpi\n      mload(0x40)\n      0x08c379a000000000000000000000000000000000000000000000000000000000\n      dup2\n      mstore\n      0x04\n      add\n      tag_148\n      swap1\n      tag_149\n      jump\t// in\n    tag_148:\n      mload(0x40)\n      dup1\n      swap2\n      sub\n      swap1\n      revert\n    tag_147:\n        /* \"SmartContractVoting/voting.sol\":2094:2095  1 */\n      0x01\n        /* \"SmartContractVoting/voting.sol\":2071:2077  voters */\n      0x03\n        /* \"SmartContractVoting/voting.sol\":2071:2084  voters[voter] */\n      0x00\n        /* \"SmartContractVoting/voting.sol\":2078:2083  voter */\n      dup4\n        /* \"SmartContractVoting/voting.sol\":2071:2084  voters[voter] */\n      0xffffffffffffffffffffffffffffffffffffffff\n      and\n      0xffffffffffffffffffffffffffffffffffffffff\n      and\n      dup2\n      mstore\n      0x20\n      add\n      swap1\n      dup2\n      mstore\n      0x20\n      add\n      0x00\n      keccak256\n        /* \"SmartContractVoting/voting.sol\":2071:2091  voters[voter].weight */\n      0x00\n      add\n        /* \"SmartContractVoting/voting.sol\":2071:2095  voters[voter].weight = 1 */\n      dup2\n      swap1\n      sstore\n      pop\n        /* \"SmartContractVoting/voting.sol\":1844:2103  function giveRightToVote(address voter) public onlyChairperson {... */\n      pop\n      jump\t// out\n        /* \"SmartContractVoting/voting.sol\":707:746  mapping(address => Voter) public voters */\n    tag_53:\n      mstore(0x20, 0x03)\n      dup1\n      0x00\n      mstore\n      keccak256(0x00, 0x40)\n      0x00\n      swap2\n      pop\n      swap1\n      pop\n      dup1\n      0x00\n      add\n      sload\n      swap1\n      dup1\n      0x01\n      add\n      0x00\n      swap1\n      sload\n      swap1\n      0x0100\n      exp\n      swap1\n      div\n      0xff\n      and\n      swap1\n      dup1\n      0x01\n      add\n      0x01\n      swap1\n      sload\n      swap1\n      0x0100\n      exp\n      swap1\n      div\n      0xffffffffffffffffffffffffffffffffffffffff\n      and\n      swap1\n      dup1\n      0x02\n      add\n      sload\n      swap1\n      pop\n      dup5\n      jump\t// out\n        /* \"SmartContractVoting/voting.sol\":4892:5022  function winnerName() public view returns (bytes32 winnerName_) {... */\n    tag_57:\n        /* \"SmartContractVoting/voting.sol\":4935:4954  bytes32 winnerName_ */\n      0x00\n        /* \"SmartContractVoting/voting.sol\":4981:4990  proposals */\n      0x02\n        /* \"SmartContractVoting/voting.sol\":4991:5008  winningProposal() */\n      tag_151\n        /* \"SmartContractVoting/voting.sol\":4991:5006  winningProposal */\n      tag_46\n        /* \"SmartContractVoting/voting.sol\":4991:5008  winningProposal() */\n      jump\t// in\n    tag_151:\n        /* \"SmartContractVoting/voting.sol\":4981:5009  proposals[winningProposal()] */\n      dup2\n      sload\n      dup2\n      lt\n      tag_152\n      jumpi\n      tag_153\n      tag_73\n      jump\t// in\n    tag_153:\n    tag_152:\n      swap1\n      0x00\n      mstore\n      keccak256(0x00, 0x20)\n      swap1\n      0x02\n      mul\n      add\n        /* \"SmartContractVoting/voting.sol\":4981:5014  proposals[winningProposal()].name */\n      0x00\n      add\n      sload\n        /* \"SmartContractVoting/voting.sol\":4967:5014  winnerName_ = proposals[winningProposal()].name */\n      swap1\n      pop\n        /* \"SmartContractVoting/voting.sol\":4892:5022  function winnerName() public view returns (bytes32 winnerName_) {... */\n      swap1\n      jump\t// out\n        /* \"#utility.yul\":88:205   */\n    tag_156:\n        /* \"#utility.yul\":197:198   */\n      0x00\n        /* \"#utility.yul\":194:195   */\n      dup1\n        /* \"#utility.yul\":187:199   */\n      revert\n        /* \"#utility.yul\":334:411   */\n    tag_158:\n        /* \"#utility.yul\":371:378   */\n      0x00\n        /* \"#utility.yul\":400:405   */\n      dup2\n        /* \"#utility.yul\":389:405   */\n      swap1\n      pop\n        /* \"#utility.yul\":334:411   */\n      swap2\n      swap1\n      pop\n      jump\t// out\n        /* \"#utility.yul\":417:539   */\n    tag_159:\n        /* \"#utility.yul\":490:514   */\n      tag_201\n        /* \"#utility.yul\":508:513   */\n      dup2\n        /* \"#utility.yul\":490:514   */\n      tag_158\n      jump\t// in\n    tag_201:\n        /* \"#utility.yul\":483:488   */\n      dup2\n        /* \"#utility.yul\":480:515   */\n      eq\n        /* \"#utility.yul\":470:533   */\n      tag_202\n      jumpi\n        /* \"#utility.yul\":529:530   */\n      0x00\n        /* \"#utility.yul\":526:527   */\n      dup1\n        /* \"#utility.yul\":519:531   */\n      revert\n        /* \"#utility.yul\":470:533   */\n    tag_202:\n        /* \"#utility.yul\":417:539   */\n      pop\n      jump\t// out\n        /* \"#utility.yul\":545:684   */\n    tag_160:\n        /* \"#utility.yul\":591:596   */\n      0x00\n        /* \"#utility.yul\":629:635   */\n      dup2\n        /* \"#utility.yul\":616:636   */\n      calldataload\n        /* \"#utility.yul\":607:636   */\n      swap1\n      pop\n        /* \"#utility.yul\":645:678   */\n      tag_204\n        /* \"#utility.yul\":672:677   */\n      dup2\n        /* \"#utility.yul\":645:678   */\n      tag_159\n      jump\t// in\n    tag_204:\n        /* \"#utility.yul\":545:684   */\n      swap3\n      swap2\n      pop\n      pop\n      jump\t// out\n        /* \"#utility.yul\":690:1019   */\n    tag_18:\n        /* \"#utility.yul\":749:755   */\n      0x00\n        /* \"#utility.yul\":798:800   */\n      0x20\n        /* \"#utility.yul\":786:795   */\n      dup3\n        /* \"#utility.yul\":777:784   */\n      dup5\n        /* \"#utility.yul\":773:796   */\n      sub\n        /* \"#utility.yul\":769:801   */\n      slt\n        /* \"#utility.yul\":766:885   */\n      iszero\n      tag_206\n      jumpi\n        /* \"#utility.yul\":804:883   */\n      tag_207\n      tag_156\n      jump\t// in\n    tag_207:\n        /* \"#utility.yul\":766:885   */\n    tag_206:\n        /* \"#utility.yul\":924:925   */\n      0x00\n        /* \"#utility.yul\":949:1002   */\n      tag_208\n        /* \"#utility.yul\":994:1001   */\n      dup5\n        /* \"#utility.yul\":985:991   */\n      dup3\n        /* \"#utility.yul\":974:983   */\n      dup6\n        /* \"#utility.yul\":970:992   */\n      add\n        /* \"#utility.yul\":949:1002   */\n      tag_160\n      jump\t// in\n    tag_208:\n        /* \"#utility.yul\":939:1002   */\n      swap2\n      pop\n        /* \"#utility.yul\":895:1012   */\n      pop\n        /* \"#utility.yul\":690:1019   */\n      swap3\n      swap2\n      pop\n      pop\n      jump\t// out\n        /* \"#utility.yul\":1025:1102   */\n    tag_161:\n        /* \"#utility.yul\":1062:1069   */\n      0x00\n        /* \"#utility.yul\":1091:1096   */\n      dup2\n        /* \"#utility.yul\":1080:1096   */\n      swap1\n      pop\n        /* \"#utility.yul\":1025:1102   */\n      swap2\n      swap1\n      pop\n      jump\t// out\n        /* \"#utility.yul\":1108:1226   */\n    tag_162:\n        /* \"#utility.yul\":1195:1219   */\n      tag_211\n        /* \"#utility.yul\":1213:1218   */\n      dup2\n        /* \"#utility.yul\":1195:1219   */\n      tag_161\n      jump\t// in\n    tag_211:\n        /* \"#utility.yul\":1190:1193   */\n      dup3\n        /* \"#utility.yul\":1183:1220   */\n      mstore\n        /* \"#utility.yul\":1108:1226   */\n      pop\n      pop\n      jump\t// out\n        /* \"#utility.yul\":1232:1350   */\n    tag_163:\n        /* \"#utility.yul\":1319:1343   */\n      tag_213\n        /* \"#utility.yul\":1337:1342   */\n      dup2\n        /* \"#utility.yul\":1319:1343   */\n      tag_158\n      jump\t// in\n    tag_213:\n        /* \"#utility.yul\":1314:1317   */\n      dup3\n        /* \"#utility.yul\":1307:1344   */\n      mstore\n        /* \"#utility.yul\":1232:1350   */\n      pop\n      pop\n      jump\t// out\n        /* \"#utility.yul\":1356:1688   */\n    tag_24:\n        /* \"#utility.yul\":1477:1481   */\n      0x00\n        /* \"#utility.yul\":1515:1517   */\n      0x40\n        /* \"#utility.yul\":1504:1513   */\n      dup3\n        /* \"#utility.yul\":1500:1518   */\n      add\n        /* \"#utility.yul\":1492:1518   */\n      swap1\n      pop\n        /* \"#utility.yul\":1528:1599   */\n      tag_215\n        /* \"#utility.yul\":1596:1597   */\n      0x00\n        /* \"#utility.yul\":1585:1594   */\n      dup4\n        /* \"#utility.yul\":1581:1598   */\n      add\n        /* \"#utility.yul\":1572:1578   */\n      dup6\n        /* \"#utility.yul\":1528:1599   */\n      tag_162\n      jump\t// in\n    tag_215:\n        /* \"#utility.yul\":1609:1681   */\n      tag_216\n        /* \"#utility.yul\":1677:1679   */\n      0x20\n        /* \"#utility.yul\":1666:1675   */\n      dup4\n        /* \"#utility.yul\":1662:1680   */\n      add\n        /* \"#utility.yul\":1653:1659   */\n      dup5\n        /* \"#utility.yul\":1609:1681   */\n      tag_163\n      jump\t// in\n    tag_216:\n        /* \"#utility.yul\":1356:1688   */\n      swap4\n      swap3\n      pop\n      pop\n      pop\n      jump\t// out\n        /* \"#utility.yul\":1694:1916   */\n    tag_28:\n        /* \"#utility.yul\":1787:1791   */\n      0x00\n        /* \"#utility.yul\":1825:1827   */\n      0x20\n        /* \"#utility.yul\":1814:1823   */\n      dup3\n        /* \"#utility.yul\":1810:1828   */\n      add\n        /* \"#utility.yul\":1802:1828   */\n      swap1\n      pop\n        /* \"#utility.yul\":1838:1909   */\n      tag_218\n        /* \"#utility.yul\":1906:1907   */\n      0x00\n        /* \"#utility.yul\":1895:1904   */\n      dup4\n        /* \"#utility.yul\":1891:1908   */\n      add\n        /* \"#utility.yul\":1882:1888   */\n      dup5\n        /* \"#utility.yul\":1838:1909   */\n      tag_163\n      jump\t// in\n    tag_218:\n        /* \"#utility.yul\":1694:1916   */\n      swap3\n      swap2\n      pop\n      pop\n      jump\t// out\n        /* \"#utility.yul\":1922:2044   */\n    tag_164:\n        /* \"#utility.yul\":1995:2019   */\n      tag_220\n        /* \"#utility.yul\":2013:2018   */\n      dup2\n        /* \"#utility.yul\":1995:2019   */\n      tag_161\n      jump\t// in\n    tag_220:\n        /* \"#utility.yul\":1988:1993   */\n      dup2\n        /* \"#utility.yul\":1985:2020   */\n      eq\n        /* \"#utility.yul\":1975:2038   */\n      tag_221\n      jumpi\n        /* \"#utility.yul\":2034:2035   */\n      0x00\n        /* \"#utility.yul\":2031:2032   */\n      dup1\n        /* \"#utility.yul\":2024:2036   */\n      revert\n        /* \"#utility.yul\":1975:2038   */\n    tag_221:\n        /* \"#utility.yul\":1922:2044   */\n      pop\n      jump\t// out\n        /* \"#utility.yul\":2050:2189   */\n    tag_165:\n        /* \"#utility.yul\":2096:2101   */\n      0x00\n        /* \"#utility.yul\":2134:2140   */\n      dup2\n        /* \"#utility.yul\":2121:2141   */\n      calldataload\n        /* \"#utility.yul\":2112:2141   */\n      swap1\n      pop\n        /* \"#utility.yul\":2150:2183   */\n      tag_223\n        /* \"#utility.yul\":2177:2182   */\n      dup2\n        /* \"#utility.yul\":2150:2183   */\n      tag_164\n      jump\t// in\n    tag_223:\n        /* \"#utility.yul\":2050:2189   */\n      swap3\n      swap2\n      pop\n      pop\n      jump\t// out\n        /* \"#utility.yul\":2195:2524   */\n    tag_31:\n        /* \"#utility.yul\":2254:2260   */\n      0x00\n        /* \"#utility.yul\":2303:2305   */\n      0x20\n        /* \"#utility.yul\":2291:2300   */\n      dup3\n        /* \"#utility.yul\":2282:2289   */\n      dup5\n        /* \"#utility.yul\":2278:2301   */\n      sub\n        /* \"#utility.yul\":2274:2306   */\n      slt\n        /* \"#utility.yul\":2271:2390   */\n      iszero\n      tag_225\n      jumpi\n        /* \"#utility.yul\":2309:2388   */\n      tag_226\n      tag_156\n      jump\t// in\n    tag_226:\n        /* \"#utility.yul\":2271:2390   */\n    tag_225:\n        /* \"#utility.yul\":2429:2430   */\n      0x00\n        /* \"#utility.yul\":2454:2507   */\n      tag_227\n        /* \"#utility.yul\":2499:2506   */\n      dup5\n        /* \"#utility.yul\":2490:2496   */\n      dup3\n        /* \"#utility.yul\":2479:2488   */\n      dup6\n        /* \"#utility.yul\":2475:2497   */\n      add\n        /* \"#utility.yul\":2454:2507   */\n      tag_165\n      jump\t// in\n    tag_227:\n        /* \"#utility.yul\":2444:2507   */\n      swap2\n      pop\n        /* \"#utility.yul\":2400:2517   */\n      pop\n        /* \"#utility.yul\":2195:2524   */\n      swap3\n      swap2\n      pop\n      pop\n      jump\t// out\n        /* \"#utility.yul\":2530:2656   */\n    tag_166:\n        /* \"#utility.yul\":2567:2574   */\n      0x00\n        /* \"#utility.yul\":2607:2649   */\n      0xffffffffffffffffffffffffffffffffffffffff\n        /* \"#utility.yul\":2600:2605   */\n      dup3\n        /* \"#utility.yul\":2596:2650   */\n      and\n        /* \"#utility.yul\":2585:2650   */\n      swap1\n      pop\n        /* \"#utility.yul\":2530:2656   */\n      swap2\n      swap1\n      pop\n      jump\t// out\n        /* \"#utility.yul\":2662:2758   */\n    tag_167:\n        /* \"#utility.yul\":2699:2706   */\n      0x00\n        /* \"#utility.yul\":2728:2752   */\n      tag_230\n        /* \"#utility.yul\":2746:2751   */\n      dup3\n        /* \"#utility.yul\":2728:2752   */\n      tag_166\n      jump\t// in\n    tag_230:\n        /* \"#utility.yul\":2717:2752   */\n      swap1\n      pop\n        /* \"#utility.yul\":2662:2758   */\n      swap2\n      swap1\n      pop\n      jump\t// out\n        /* \"#utility.yul\":2764:2882   */\n    tag_168:\n        /* \"#utility.yul\":2851:2875   */\n      tag_232\n        /* \"#utility.yul\":2869:2874   */\n      dup2\n        /* \"#utility.yul\":2851:2875   */\n      tag_167\n      jump\t// in\n    tag_232:\n        /* \"#utility.yul\":2846:2849   */\n      dup3\n        /* \"#utility.yul\":2839:2876   */\n      mstore\n        /* \"#utility.yul\":2764:2882   */\n      pop\n      pop\n      jump\t// out\n        /* \"#utility.yul\":2888:3110   */\n    tag_40:\n        /* \"#utility.yul\":2981:2985   */\n      0x00\n        /* \"#utility.yul\":3019:3021   */\n      0x20\n        /* \"#utility.yul\":3008:3017   */\n      dup3\n        /* \"#utility.yul\":3004:3022   */\n      add\n        /* \"#utility.yul\":2996:3022   */\n      swap1\n      pop\n        /* \"#utility.yul\":3032:3103   */\n      tag_234\n        /* \"#utility.yul\":3100:3101   */\n      0x00\n        /* \"#utility.yul\":3089:3098   */\n      dup4\n        /* \"#utility.yul\":3085:3102   */\n      add\n        /* \"#utility.yul\":3076:3082   */\n      dup5\n        /* \"#utility.yul\":3032:3103   */\n      tag_168\n      jump\t// in\n    tag_234:\n        /* \"#utility.yul\":2888:3110   */\n      swap3\n      swap2\n      pop\n      pop\n      jump\t// out\n        /* \"#utility.yul\":3116:3238   */\n    tag_169:\n        /* \"#utility.yul\":3189:3213   */\n      tag_236\n        /* \"#utility.yul\":3207:3212   */\n      dup2\n        /* \"#utility.yul\":3189:3213   */\n      tag_167\n      jump\t// in\n    tag_236:\n        /* \"#utility.yul\":3182:3187   */\n      dup2\n        /* \"#utility.yul\":3179:3214   */\n      eq\n        /* \"#utility.yul\":3169:3232   */\n      tag_237\n      jumpi\n        /* \"#utility.yul\":3228:3229   */\n      0x00\n        /* \"#utility.yul\":3225:3226   */\n      dup1\n        /* \"#utility.yul\":3218:3230   */\n      revert\n        /* \"#utility.yul\":3169:3232   */\n    tag_237:\n        /* \"#utility.yul\":3116:3238   */\n      pop\n      jump\t// out\n        /* \"#utility.yul\":3244:3383   */\n    tag_170:\n        /* \"#utility.yul\":3290:3295   */\n      0x00\n        /* \"#utility.yul\":3328:3334   */\n      dup2\n        /* \"#utility.yul\":3315:3335   */\n      calldataload\n        /* \"#utility.yul\":3306:3335   */\n      swap1\n      pop\n        /* \"#utility.yul\":3344:3377   */\n      tag_239\n        /* \"#utility.yul\":3371:3376   */\n      dup2\n        /* \"#utility.yul\":3344:3377   */\n      tag_169\n      jump\t// in\n    tag_239:\n        /* \"#utility.yul\":3244:3383   */\n      swap3\n      swap2\n      pop\n      pop\n      jump\t// out\n        /* \"#utility.yul\":3389:3718   */\n    tag_43:\n        /* \"#utility.yul\":3448:3454   */\n      0x00\n        /* \"#utility.yul\":3497:3499   */\n      0x20\n        /* \"#utility.yul\":3485:3494   */\n      dup3\n        /* \"#utility.yul\":3476:3483   */\n      dup5\n        /* \"#utility.yul\":3472:3495   */\n      sub\n        /* \"#utility.yul\":3468:3500   */\n      slt\n        /* \"#utility.yul\":3465:3584   */\n      iszero\n      tag_241\n      jumpi\n        /* \"#utility.yul\":3503:3582   */\n      tag_242\n      tag_156\n      jump\t// in\n    tag_242:\n        /* \"#utility.yul\":3465:3584   */\n    tag_241:\n        /* \"#utility.yul\":3623:3624   */\n      0x00\n        /* \"#utility.yul\":3648:3701   */\n      tag_243\n        /* \"#utility.yul\":3693:3700   */\n      dup5\n        /* \"#utility.yul\":3684:3690   */\n      dup3\n        /* \"#utility.yul\":3673:3682   */\n      dup6\n        /* \"#utility.yul\":3669:3691   */\n      add\n        /* \"#utility.yul\":3648:3701   */\n      tag_170\n      jump\t// in\n    tag_243:\n        /* \"#utility.yul\":3638:3701   */\n      swap2\n      pop\n        /* \"#utility.yul\":3594:3711   */\n      pop\n        /* \"#utility.yul\":3389:3718   */\n      swap3\n      swap2\n      pop\n      pop\n      jump\t// out\n        /* \"#utility.yul\":3724:3814   */\n    tag_171:\n        /* \"#utility.yul\":3758:3765   */\n      0x00\n        /* \"#utility.yul\":3801:3806   */\n      dup2\n        /* \"#utility.yul\":3794:3807   */\n      iszero\n        /* \"#utility.yul\":3787:3808   */\n      iszero\n        /* \"#utility.yul\":3776:3808   */\n      swap1\n      pop\n        /* \"#utility.yul\":3724:3814   */\n      swap2\n      swap1\n      pop\n      jump\t// out\n        /* \"#utility.yul\":3820:3929   */\n    tag_172:\n        /* \"#utility.yul\":3901:3922   */\n      tag_246\n        /* \"#utility.yul\":3916:3921   */\n      dup2\n        /* \"#utility.yul\":3901:3922   */\n      tag_171\n      jump\t// in\n    tag_246:\n        /* \"#utility.yul\":3896:3899   */\n      dup3\n        /* \"#utility.yul\":3889:3923   */\n      mstore\n        /* \"#utility.yul\":3820:3929   */\n      pop\n      pop\n      jump\t// out\n        /* \"#utility.yul\":3935:4476   */\n    tag_55:\n        /* \"#utility.yul\":4106:4110   */\n      0x00\n        /* \"#utility.yul\":4144:4147   */\n      0x80\n        /* \"#utility.yul\":4133:4142   */\n      dup3\n        /* \"#utility.yul\":4129:4148   */\n      add\n        /* \"#utility.yul\":4121:4148   */\n      swap1\n      pop\n        /* \"#utility.yul\":4158:4229   */\n      tag_248\n        /* \"#utility.yul\":4226:4227   */\n      0x00\n        /* \"#utility.yul\":4215:4224   */\n      dup4\n        /* \"#utility.yul\":4211:4228   */\n      add\n        /* \"#utility.yul\":4202:4208   */\n      dup8\n        /* \"#utility.yul\":4158:4229   */\n      tag_163\n      jump\t// in\n    tag_248:\n        /* \"#utility.yul\":4239:4305   */\n      tag_249\n        /* \"#utility.yul\":4301:4303   */\n      0x20\n        /* \"#utility.yul\":4290:4299   */\n      dup4\n        /* \"#utility.yul\":4286:4304   */\n      add\n        /* \"#utility.yul\":4277:4283   */\n      dup7\n        /* \"#utility.yul\":4239:4305   */\n      tag_172\n      jump\t// in\n    tag_249:\n        /* \"#utility.yul\":4315:4387   */\n      tag_250\n        /* \"#utility.yul\":4383:4385   */\n      0x40\n        /* \"#utility.yul\":4372:4381   */\n      dup4\n        /* \"#utility.yul\":4368:4386   */\n      add\n        /* \"#utility.yul\":4359:4365   */\n      dup6\n        /* \"#utility.yul\":4315:4387   */\n      tag_168\n      jump\t// in\n    tag_250:\n        /* \"#utility.yul\":4397:4469   */\n      tag_251\n        /* \"#utility.yul\":4465:4467   */\n      0x60\n        /* \"#utility.yul\":4454:4463   */\n      dup4\n        /* \"#utility.yul\":4450:4468   */\n      add\n        /* \"#utility.yul\":4441:4447   */\n      dup5\n        /* \"#utility.yul\":4397:4469   */\n      tag_163\n      jump\t// in\n    tag_251:\n        /* \"#utility.yul\":3935:4476   */\n      swap6\n      swap5\n      pop\n      pop\n      pop\n      pop\n      pop\n      jump\t// out\n        /* \"#utility.yul\":4482:4704   */\n    tag_59:\n        /* \"#utility.yul\":4575:4579   */\n      0x00\n        /* \"#utility.yul\":4613:4615   */\n      0x20\n        /* \"#utility.yul\":4602:4611   */\n      dup3\n        /* \"#utility.yul\":4598:4616   */\n      add\n        /* \"#utility.yul\":4590:4616   */\n      swap1\n      pop\n        /* \"#utility.yul\":4626:4697   */\n      tag_253\n        /* \"#utility.yul\":4694:4695   */\n      0x00\n        /* \"#utility.yul\":4683:4692   */\n      dup4\n        /* \"#utility.yul\":4679:4696   */\n      add\n        /* \"#utility.yul\":4670:4676   */\n      dup5\n        /* \"#utility.yul\":4626:4697   */\n      tag_162\n      jump\t// in\n    tag_253:\n        /* \"#utility.yul\":4482:4704   */\n      swap3\n      swap2\n      pop\n      pop\n      jump\t// out\n        /* \"#utility.yul\":4710:4879   */\n    tag_173:\n        /* \"#utility.yul\":4794:4805   */\n      0x00\n        /* \"#utility.yul\":4828:4834   */\n      dup3\n        /* \"#utility.yul\":4823:4826   */\n      dup3\n        /* \"#utility.yul\":4816:4835   */\n      mstore\n        /* \"#utility.yul\":4868:4872   */\n      0x20\n        /* \"#utility.yul\":4863:4866   */\n      dup3\n        /* \"#utility.yul\":4859:4873   */\n      add\n        /* \"#utility.yul\":4844:4873   */\n      swap1\n      pop\n        /* \"#utility.yul\":4710:4879   */\n      swap3\n      swap2\n      pop\n      pop\n      jump\t// out\n        /* \"#utility.yul\":4885:5052   */\n    tag_174:\n        /* \"#utility.yul\":5025:5044   */\n      0x566f74696e672068617320656e6465642e000000000000000000000000000000\n        /* \"#utility.yul\":5021:5022   */\n      0x00\n        /* \"#utility.yul\":5013:5019   */\n      dup3\n        /* \"#utility.yul\":5009:5023   */\n      add\n        /* \"#utility.yul\":5002:5045   */\n      mstore\n        /* \"#utility.yul\":4885:5052   */\n      pop\n      jump\t// out\n        /* \"#utility.yul\":5058:5424   */\n    tag_175:\n        /* \"#utility.yul\":5200:5203   */\n      0x00\n        /* \"#utility.yul\":5221:5288   */\n      tag_257\n        /* \"#utility.yul\":5285:5287   */\n      0x11\n        /* \"#utility.yul\":5280:5283   */\n      dup4\n        /* \"#utility.yul\":5221:5288   */\n      tag_173\n      jump\t// in\n    tag_257:\n        /* \"#utility.yul\":5214:5288   */\n      swap2\n      pop\n        /* \"#utility.yul\":5297:5390   */\n      tag_258\n        /* \"#utility.yul\":5386:5389   */\n      dup3\n        /* \"#utility.yul\":5297:5390   */\n      tag_174\n      jump\t// in\n    tag_258:\n        /* \"#utility.yul\":5415:5417   */\n      0x20\n        /* \"#utility.yul\":5410:5413   */\n      dup3\n        /* \"#utility.yul\":5406:5418   */\n      add\n        /* \"#utility.yul\":5399:5418   */\n      swap1\n      pop\n        /* \"#utility.yul\":5058:5424   */\n      swap2\n      swap1\n      pop\n      jump\t// out\n        /* \"#utility.yul\":5430:5849   */\n    tag_63:\n        /* \"#utility.yul\":5596:5600   */\n      0x00\n        /* \"#utility.yul\":5634:5636   */\n      0x20\n        /* \"#utility.yul\":5623:5632   */\n      dup3\n        /* \"#utility.yul\":5619:5637   */\n      add\n        /* \"#utility.yul\":5611:5637   */\n      swap1\n      pop\n        /* \"#utility.yul\":5683:5692   */\n      dup2\n        /* \"#utility.yul\":5677:5681   */\n      dup2\n        /* \"#utility.yul\":5673:5693   */\n      sub\n        /* \"#utility.yul\":5669:5670   */\n      0x00\n        /* \"#utility.yul\":5658:5667   */\n      dup4\n        /* \"#utility.yul\":5654:5671   */\n      add\n        /* \"#utility.yul\":5647:5694   */\n      mstore\n        /* \"#utility.yul\":5711:5842   */\n      tag_260\n        /* \"#utility.yul\":5837:5841   */\n      dup2\n        /* \"#utility.yul\":5711:5842   */\n      tag_175\n      jump\t// in\n    tag_260:\n        /* \"#utility.yul\":5703:5842   */\n      swap1\n      pop\n        /* \"#utility.yul\":5430:5849   */\n      swap2\n      swap1\n      pop\n      jump\t// out\n        /* \"#utility.yul\":5855:6026   */\n    tag_176:\n        /* \"#utility.yul\":5995:6018   */\n      0x486173206e6f20726967687420746f20766f74652e0000000000000000000000\n        /* \"#utility.yul\":5991:5992   */\n      0x00\n        /* \"#utility.yul\":5983:5989   */\n      dup3\n        /* \"#utility.yul\":5979:5993   */\n      add\n        /* \"#utility.yul\":5972:6019   */\n      mstore\n        /* \"#utility.yul\":5855:6026   */\n      pop\n      jump\t// out\n        /* \"#utility.yul\":6032:6398   */\n    tag_177:\n        /* \"#utility.yul\":6174:6177   */\n      0x00\n        /* \"#utility.yul\":6195:6262   */\n      tag_263\n        /* \"#utility.yul\":6259:6261   */\n      0x15\n        /* \"#utility.yul\":6254:6257   */\n      dup4\n        /* \"#utility.yul\":6195:6262   */\n      tag_173\n      jump\t// in\n    tag_263:\n        /* \"#utility.yul\":6188:6262   */\n      swap2\n      pop\n        /* \"#utility.yul\":6271:6364   */\n      tag_264\n        /* \"#utility.yul\":6360:6363   */\n      dup3\n        /* \"#utility.yul\":6271:6364   */\n      tag_176\n      jump\t// in\n    tag_264:\n        /* \"#utility.yul\":6389:6391   */\n      0x20\n        /* \"#utility.yul\":6384:6387   */\n      dup3\n        /* \"#utility.yul\":6380:6392   */\n      add\n        /* \"#utility.yul\":6373:6392   */\n      swap1\n      pop\n        /* \"#utility.yul\":6032:6398   */\n      swap2\n      swap1\n      pop\n      jump\t// out\n        /* \"#utility.yul\":6404:6823   */\n    tag_67:\n        /* \"#utility.yul\":6570:6574   */\n      0x00\n        /* \"#utility.yul\":6608:6610   */\n      0x20\n        /* \"#utility.yul\":6597:6606   */\n      dup3\n        /* \"#utility.yul\":6593:6611   */\n      add\n        /* \"#utility.yul\":6585:6611   */\n      swap1\n      pop\n        /* \"#utility.yul\":6657:6666   */\n      dup2\n        /* \"#utility.yul\":6651:6655   */\n      dup2\n        /* \"#utility.yul\":6647:6667   */\n      sub\n        /* \"#utility.yul\":6643:6644   */\n      0x00\n        /* \"#utility.yul\":6632:6641   */\n      dup4\n        /* \"#utility.yul\":6628:6645   */\n      add\n        /* \"#utility.yul\":6621:6668   */\n      mstore\n        /* \"#utility.yul\":6685:6816   */\n      tag_266\n        /* \"#utility.yul\":6811:6815   */\n      dup2\n        /* \"#utility.yul\":6685:6816   */\n      tag_177\n      jump\t// in\n    tag_266:\n        /* \"#utility.yul\":6677:6816   */\n      swap1\n      pop\n        /* \"#utility.yul\":6404:6823   */\n      swap2\n      swap1\n      pop\n      jump\t// out\n        /* \"#utility.yul\":6829:6993   */\n    tag_178:\n        /* \"#utility.yul\":6969:6985   */\n      0x416c726561647920766f7465642e000000000000000000000000000000000000\n        /* \"#utility.yul\":6965:6966   */\n      0x00\n        /* \"#utility.yul\":6957:6963   */\n      dup3\n        /* \"#utility.yul\":6953:6967   */\n      add\n        /* \"#utility.yul\":6946:6986   */\n      mstore\n        /* \"#utility.yul\":6829:6993   */\n      pop\n      jump\t// out\n        /* \"#utility.yul\":6999:7365   */\n    tag_179:\n        /* \"#utility.yul\":7141:7144   */\n      0x00\n        /* \"#utility.yul\":7162:7229   */\n      tag_269\n        /* \"#utility.yul\":7226:7228   */\n      0x0e\n        /* \"#utility.yul\":7221:7224   */\n      dup4\n        /* \"#utility.yul\":7162:7229   */\n      tag_173\n      jump\t// in\n    tag_269:\n        /* \"#utility.yul\":7155:7229   */\n      swap2\n      pop\n        /* \"#utility.yul\":7238:7331   */\n      tag_270\n        /* \"#utility.yul\":7327:7330   */\n      dup3\n        /* \"#utility.yul\":7238:7331   */\n      tag_178\n      jump\t// in\n    tag_270:\n        /* \"#utility.yul\":7356:7358   */\n      0x20\n        /* \"#utility.yul\":7351:7354   */\n      dup3\n        /* \"#utility.yul\":7347:7359   */\n      add\n        /* \"#utility.yul\":7340:7359   */\n      swap1\n      pop\n        /* \"#utility.yul\":6999:7365   */\n      swap2\n      swap1\n      pop\n      jump\t// out\n        /* \"#utility.yul\":7371:7790   */\n    tag_70:\n        /* \"#utility.yul\":7537:7541   */\n      0x00\n        /* \"#utility.yul\":7575:7577   */\n      0x20\n        /* \"#utility.yul\":7564:7573   */\n      dup3\n        /* \"#utility.yul\":7560:7578   */\n      add\n        /* \"#utility.yul\":7552:7578   */\n      swap1\n      pop\n        /* \"#utility.yul\":7624:7633   */\n      dup2\n        /* \"#utility.yul\":7618:7622   */\n      dup2\n        /* \"#utility.yul\":7614:7634   */\n      sub\n        /* \"#utility.yul\":7610:7611   */\n      0x00\n        /* \"#utility.yul\":7599:7608   */\n      dup4\n        /* \"#utility.yul\":7595:7612   */\n      add\n        /* \"#utility.yul\":7588:7635   */\n      mstore\n        /* \"#utility.yul\":7652:7783   */\n      tag_272\n        /* \"#utility.yul\":7778:7782   */\n      dup2\n        /* \"#utility.yul\":7652:7783   */\n      tag_179\n      jump\t// in\n    tag_272:\n        /* \"#utility.yul\":7644:7783   */\n      swap1\n      pop\n        /* \"#utility.yul\":7371:7790   */\n      swap2\n      swap1\n      pop\n      jump\t// out\n        /* \"#utility.yul\":7796:7976   */\n    tag_73:\n        /* \"#utility.yul\":7844:7921   */\n      0x4e487b7100000000000000000000000000000000000000000000000000000000\n        /* \"#utility.yul\":7841:7842   */\n      0x00\n        /* \"#utility.yul\":7834:7922   */\n      mstore\n        /* \"#utility.yul\":7941:7945   */\n      0x32\n        /* \"#utility.yul\":7938:7939   */\n      0x04\n        /* \"#utility.yul\":7931:7946   */\n      mstore\n        /* \"#utility.yul\":7965:7969   */\n      0x24\n        /* \"#utility.yul\":7962:7963   */\n      0x00\n        /* \"#utility.yul\":7955:7970   */\n      revert\n        /* \"#utility.yul\":7982:8162   */\n    tag_180:\n        /* \"#utility.yul\":8030:8107   */\n      0x4e487b7100000000000000000000000000000000000000000000000000000000\n        /* \"#utility.yul\":8027:8028   */\n      0x00\n        /* \"#utility.yul\":8020:8108   */\n      mstore\n        /* \"#utility.yul\":8127:8131   */\n      0x11\n        /* \"#utility.yul\":8124:8125   */\n      0x04\n        /* \"#utility.yul\":8117:8132   */\n      mstore\n        /* \"#utility.yul\":8151:8155   */\n      0x24\n        /* \"#utility.yul\":8148:8149   */\n      0x00\n        /* \"#utility.yul\":8141:8156   */\n      revert\n        /* \"#utility.yul\":8168:8359   */\n    tag_76:\n        /* \"#utility.yul\":8208:8211   */\n      0x00\n        /* \"#utility.yul\":8227:8247   */\n      tag_276\n        /* \"#utility.yul\":8245:8246   */\n      dup3\n        /* \"#utility.yul\":8227:8247   */\n      tag_158\n      jump\t// in\n    tag_276:\n        /* \"#utility.yul\":8222:8247   */\n      swap2\n      pop\n        /* \"#utility.yul\":8261:8281   */\n      tag_277\n        /* \"#utility.yul\":8279:8280   */\n      dup4\n        /* \"#utility.yul\":8261:8281   */\n      tag_158\n      jump\t// in\n    tag_277:\n        /* \"#utility.yul\":8256:8281   */\n      swap3\n      pop\n        /* \"#utility.yul\":8304:8305   */\n      dup3\n        /* \"#utility.yul\":8301:8302   */\n      dup3\n        /* \"#utility.yul\":8297:8306   */\n      add\n        /* \"#utility.yul\":8290:8306   */\n      swap1\n      pop\n        /* \"#utility.yul\":8325:8328   */\n      dup1\n        /* \"#utility.yul\":8322:8323   */\n      dup3\n        /* \"#utility.yul\":8319:8329   */\n      gt\n        /* \"#utility.yul\":8316:8352   */\n      iszero\n      tag_278\n      jumpi\n        /* \"#utility.yul\":8332:8350   */\n      tag_279\n      tag_180\n      jump\t// in\n    tag_279:\n        /* \"#utility.yul\":8316:8352   */\n    tag_278:\n        /* \"#utility.yul\":8168:8359   */\n      swap3\n      swap2\n      pop\n      pop\n      jump\t// out\n        /* \"#utility.yul\":8365:8593   */\n    tag_181:\n        /* \"#utility.yul\":8505:8539   */\n      0x4f6e6c79206368616972706572736f6e2063616e20706572666f726d20746869\n        /* \"#utility.yul\":8501:8502   */\n      0x00\n        /* \"#utility.yul\":8493:8499   */\n      dup3\n        /* \"#utility.yul\":8489:8503   */\n      add\n        /* \"#utility.yul\":8482:8540   */\n      mstore\n        /* \"#utility.yul\":8574:8585   */\n      0x7320616374696f6e2e0000000000000000000000000000000000000000000000\n        /* \"#utility.yul\":8569:8571   */\n      0x20\n        /* \"#utility.yul\":8561:8567   */\n      dup3\n        /* \"#utility.yul\":8557:8572   */\n      add\n        /* \"#utility.yul\":8550:8586   */\n      mstore\n        /* \"#utility.yul\":8365:8593   */\n      pop\n      jump\t// out\n        /* \"#utility.yul\":8599:8965   */\n    tag_182:\n        /* \"#utility.yul\":8741:8744   */\n      0x00\n        /* \"#utility.yul\":8762:8829   */\n      tag_282\n        /* \"#utility.yul\":8826:8828   */\n      0x29\n        /* \"#utility.yul\":8821:8824   */\n      dup4\n        /* \"#utility.yul\":8762:8829   */\n      tag_173\n      jump\t// in\n    tag_282:\n        /* \"#utility.yul\":8755:8829   */\n      swap2\n      pop\n        /* \"#utility.yul\":8838:8931   */\n      tag_283\n        /* \"#utility.yul\":8927:8930   */\n      dup3\n        /* \"#utility.yul\":8838:8931   */\n      tag_181\n      jump\t// in\n    tag_283:\n        /* \"#utility.yul\":8956:8958   */\n      0x40\n        /* \"#utility.yul\":8951:8954   */\n      dup3\n        /* \"#utility.yul\":8947:8959   */\n      add\n        /* \"#utility.yul\":8940:8959   */\n      swap1\n      pop\n        /* \"#utility.yul\":8599:8965   */\n      swap2\n      swap1\n      pop\n      jump\t// out\n        /* \"#utility.yul\":8971:9390   */\n    tag_82:\n        /* \"#utility.yul\":9137:9141   */\n      0x00\n        /* \"#utility.yul\":9175:9177   */\n      0x20\n        /* \"#utility.yul\":9164:9173   */\n      dup3\n        /* \"#utility.yul\":9160:9178   */\n      add\n        /* \"#utility.yul\":9152:9178   */\n      swap1\n      pop\n        /* \"#utility.yul\":9224:9233   */\n      dup2\n        /* \"#utility.yul\":9218:9222   */\n      dup2\n        /* \"#utility.yul\":9214:9234   */\n      sub\n        /* \"#utility.yul\":9210:9211   */\n      0x00\n        /* \"#utility.yul\":9199:9208   */\n      dup4\n        /* \"#utility.yul\":9195:9212   */\n      add\n        /* \"#utility.yul\":9188:9235   */\n      mstore\n        /* \"#utility.yul\":9252:9383   */\n      tag_285\n        /* \"#utility.yul\":9378:9382   */\n      dup2\n        /* \"#utility.yul\":9252:9383   */\n      tag_182\n      jump\t// in\n    tag_285:\n        /* \"#utility.yul\":9244:9383   */\n      swap1\n      pop\n        /* \"#utility.yul\":8971:9390   */\n      swap2\n      swap1\n      pop\n      jump\t// out\n        /* \"#utility.yul\":9396:9568   */\n    tag_183:\n        /* \"#utility.yul\":9536:9560   */\n      0x596f7520686176656e277420766f746564207965742e00000000000000000000\n        /* \"#utility.yul\":9532:9533   */\n      0x00\n        /* \"#utility.yul\":9524:9530   */\n      dup3\n        /* \"#utility.yul\":9520:9534   */\n      add\n        /* \"#utility.yul\":9513:9561   */\n      mstore\n        /* \"#utility.yul\":9396:9568   */\n      pop\n      jump\t// out\n        /* \"#utility.yul\":9574:9940   */\n    tag_184:\n        /* \"#utility.yul\":9716:9719   */\n      0x00\n        /* \"#utility.yul\":9737:9804   */\n      tag_288\n        /* \"#utility.yul\":9801:9803   */\n      0x16\n        /* \"#utility.yul\":9796:9799   */\n      dup4\n        /* \"#utility.yul\":9737:9804   */\n      tag_173\n      jump\t// in\n    tag_288:\n        /* \"#utility.yul\":9730:9804   */\n      swap2\n      pop\n        /* \"#utility.yul\":9813:9906   */\n      tag_289\n        /* \"#utility.yul\":9902:9905   */\n      dup3\n        /* \"#utility.yul\":9813:9906   */\n      tag_183\n      jump\t// in\n    tag_289:\n        /* \"#utility.yul\":9931:9933   */\n      0x20\n        /* \"#utility.yul\":9926:9929   */\n      dup3\n        /* \"#utility.yul\":9922:9934   */\n      add\n        /* \"#utility.yul\":9915:9934   */\n      swap1\n      pop\n        /* \"#utility.yul\":9574:9940   */\n      swap2\n      swap1\n      pop\n      jump\t// out\n        /* \"#utility.yul\":9946:10365   */\n    tag_91:\n        /* \"#utility.yul\":10112:10116   */\n      0x00\n        /* \"#utility.yul\":10150:10152   */\n      0x20\n        /* \"#utility.yul\":10139:10148   */\n      dup3\n        /* \"#utility.yul\":10135:10153   */\n      add\n        /* \"#utility.yul\":10127:10153   */\n      swap1\n      pop\n        /* \"#utility.yul\":10199:10208   */\n      dup2\n        /* \"#utility.yul\":10193:10197   */\n      dup2\n        /* \"#utility.yul\":10189:10209   */\n      sub\n        /* \"#utility.yul\":10185:10186   */\n      0x00\n        /* \"#utility.yul\":10174:10183   */\n      dup4\n        /* \"#utility.yul\":10170:10187   */\n      add\n        /* \"#utility.yul\":10163:10210   */\n      mstore\n        /* \"#utility.yul\":10227:10358   */\n      tag_291\n        /* \"#utility.yul\":10353:10357   */\n      dup2\n        /* \"#utility.yul\":10227:10358   */\n      tag_184\n      jump\t// in\n    tag_291:\n        /* \"#utility.yul\":10219:10358   */\n      swap1\n      pop\n        /* \"#utility.yul\":9946:10365   */\n      swap2\n      swap1\n      pop\n      jump\t// out\n        /* \"#utility.yul\":10371:10565   */\n    tag_96:\n        /* \"#utility.yul\":10411:10415   */\n      0x00\n        /* \"#utility.yul\":10431:10451   */\n      tag_293\n        /* \"#utility.yul\":10449:10450   */\n      dup3\n        /* \"#utility.yul\":10431:10451   */\n      tag_158\n      jump\t// in\n    tag_293:\n        /* \"#utility.yul\":10426:10451   */\n      swap2\n      pop\n        /* \"#utility.yul\":10465:10485   */\n      tag_294\n        /* \"#utility.yul\":10483:10484   */\n      dup4\n        /* \"#utility.yul\":10465:10485   */\n      tag_158\n      jump\t// in\n    tag_294:\n        /* \"#utility.yul\":10460:10485   */\n      swap3\n      pop\n        /* \"#utility.yul\":10509:10510   */\n      dup3\n        /* \"#utility.yul\":10506:10507   */\n      dup3\n        /* \"#utility.yul\":10502:10511   */\n      sub\n        /* \"#utility.yul\":10494:10511   */\n      swap1\n      pop\n        /* \"#utility.yul\":10533:10534   */\n      dup2\n        /* \"#utility.yul\":10527:10531   */\n      dup2\n        /* \"#utility.yul\":10524:10535   */\n      gt\n        /* \"#utility.yul\":10521:10558   */\n      iszero\n      tag_295\n      jumpi\n        /* \"#utility.yul\":10538:10556   */\n      tag_296\n      tag_180\n      jump\t// in\n    tag_296:\n        /* \"#utility.yul\":10521:10558   */\n    tag_295:\n        /* \"#utility.yul\":10371:10565   */\n      swap3\n      swap2\n      pop\n      pop\n      jump\t// out\n        /* \"#utility.yul\":10571:10739   */\n    tag_185:\n        /* \"#utility.yul\":10711:10731   */\n      0x596f7520616c726561647920766f7465642e0000000000000000000000000000\n        /* \"#utility.yul\":10707:10708   */\n      0x00\n        /* \"#utility.yul\":10699:10705   */\n      dup3\n        /* \"#utility.yul\":10695:10709   */\n      add\n        /* \"#utility.yul\":10688:10732   */\n      mstore\n        /* \"#utility.yul\":10571:10739   */\n      pop\n      jump\t// out\n        /* \"#utility.yul\":10745:11111   */\n    tag_186:\n        /* \"#utility.yul\":10887:10890   */\n      0x00\n        /* \"#utility.yul\":10908:10975   */\n      tag_299\n        /* \"#utility.yul\":10972:10974   */\n      0x12\n        /* \"#utility.yul\":10967:10970   */\n      dup4\n        /* \"#utility.yul\":10908:10975   */\n      tag_173\n      jump\t// in\n    tag_299:\n        /* \"#utility.yul\":10901:10975   */\n      swap2\n      pop\n        /* \"#utility.yul\":10984:11077   */\n      tag_300\n        /* \"#utility.yul\":11073:11076   */\n      dup3\n        /* \"#utility.yul\":10984:11077   */\n      tag_185\n      jump\t// in\n    tag_300:\n        /* \"#utility.yul\":11102:11104   */\n      0x20\n        /* \"#utility.yul\":11097:11100   */\n      dup3\n        /* \"#utility.yul\":11093:11105   */\n      add\n        /* \"#utility.yul\":11086:11105   */\n      swap1\n      pop\n        /* \"#utility.yul\":10745:11111   */\n      swap2\n      swap1\n      pop\n      jump\t// out\n        /* \"#utility.yul\":11117:11536   */\n    tag_113:\n        /* \"#utility.yul\":11283:11287   */\n      0x00\n        /* \"#utility.yul\":11321:11323   */\n      0x20\n        /* \"#utility.yul\":11310:11319   */\n      dup3\n        /* \"#utility.yul\":11306:11324   */\n      add\n        /* \"#utility.yul\":11298:11324   */\n      swap1\n      pop\n        /* \"#utility.yul\":11370:11379   */\n      dup2\n        /* \"#utility.yul\":11364:11368   */\n      dup2\n        /* \"#utility.yul\":11360:11380   */\n      sub\n        /* \"#utility.yul\":11356:11357   */\n      0x00\n        /* \"#utility.yul\":11345:11354   */\n      dup4\n        /* \"#utility.yul\":11341:11358   */\n      add\n        /* \"#utility.yul\":11334:11381   */\n      mstore\n        /* \"#utility.yul\":11398:11529   */\n      tag_302\n        /* \"#utility.yul\":11524:11528   */\n      dup2\n        /* \"#utility.yul\":11398:11529   */\n      tag_186\n      jump\t// in\n    tag_302:\n        /* \"#utility.yul\":11390:11529   */\n      swap1\n      pop\n        /* \"#utility.yul\":11117:11536   */\n      swap2\n      swap1\n      pop\n      jump\t// out\n        /* \"#utility.yul\":11542:11722   */\n    tag_187:\n        /* \"#utility.yul\":11682:11714   */\n      0x53656c662d64656c65676174696f6e20697320646973616c6c6f7765642e0000\n        /* \"#utility.yul\":11678:11679   */\n      0x00\n        /* \"#utility.yul\":11670:11676   */\n      dup3\n        /* \"#utility.yul\":11666:11680   */\n      add\n        /* \"#utility.yul\":11659:11715   */\n      mstore\n        /* \"#utility.yul\":11542:11722   */\n      pop\n      jump\t// out\n        /* \"#utility.yul\":11728:12094   */\n    tag_188:\n        /* \"#utility.yul\":11870:11873   */\n      0x00\n        /* \"#utility.yul\":11891:11958   */\n      tag_305\n        /* \"#utility.yul\":11955:11957   */\n      0x1e\n        /* \"#utility.yul\":11950:11953   */\n      dup4\n        /* \"#utility.yul\":11891:11958   */\n      tag_173\n      jump\t// in\n    tag_305:\n        /* \"#utility.yul\":11884:11958   */\n      swap2\n      pop\n        /* \"#utility.yul\":11967:12060   */\n      tag_306\n        /* \"#utility.yul\":12056:12059   */\n      dup3\n        /* \"#utility.yul\":11967:12060   */\n      tag_187\n      jump\t// in\n    tag_306:\n        /* \"#utility.yul\":12085:12087   */\n      0x20\n        /* \"#utility.yul\":12080:12083   */\n      dup3\n        /* \"#utility.yul\":12076:12088   */\n      add\n        /* \"#utility.yul\":12069:12088   */\n      swap1\n      pop\n        /* \"#utility.yul\":11728:12094   */\n      swap2\n      swap1\n      pop\n      jump\t// out\n        /* \"#utility.yul\":12100:12519   */\n    tag_116:\n        /* \"#utility.yul\":12266:12270   */\n      0x00\n        /* \"#utility.yul\":12304:12306   */\n      0x20\n        /* \"#utility.yul\":12293:12302   */\n      dup3\n        /* \"#utility.yul\":12289:12307   */\n      add\n        /* \"#utility.yul\":12281:12307   */\n      swap1\n      pop\n        /* \"#utility.yul\":12353:12362   */\n      dup2\n        /* \"#utility.yul\":12347:12351   */\n      dup2\n        /* \"#utility.yul\":12343:12363   */\n      sub\n        /* \"#utility.yul\":12339:12340   */\n      0x00\n        /* \"#utility.yul\":12328:12337   */\n      dup4\n        /* \"#utility.yul\":12324:12341   */\n      add\n        /* \"#utility.yul\":12317:12364   */\n      mstore\n        /* \"#utility.yul\":12381:12512   */\n      tag_308\n        /* \"#utility.yul\":12507:12511   */\n      dup2\n        /* \"#utility.yul\":12381:12512   */\n      tag_188\n      jump\t// in\n    tag_308:\n        /* \"#utility.yul\":12373:12512   */\n      swap1\n      pop\n        /* \"#utility.yul\":12100:12519   */\n      swap2\n      swap1\n      pop\n      jump\t// out\n        /* \"#utility.yul\":12525:12700   */\n    tag_189:\n        /* \"#utility.yul\":12665:12692   */\n      0x466f756e64206c6f6f7020696e2064656c65676174696f6e2e00000000000000\n        /* \"#utility.yul\":12661:12662   */\n      0x00\n        /* \"#utility.yul\":12653:12659   */\n      dup3\n        /* \"#utility.yul\":12649:12663   */\n      add\n        /* \"#utility.yul\":12642:12693   */\n      mstore\n        /* \"#utility.yul\":12525:12700   */\n      pop\n      jump\t// out\n        /* \"#utility.yul\":12706:13072   */\n    tag_190:\n        /* \"#utility.yul\":12848:12851   */\n      0x00\n        /* \"#utility.yul\":12869:12936   */\n      tag_311\n        /* \"#utility.yul\":12933:12935   */\n      0x19\n        /* \"#utility.yul\":12928:12931   */\n      dup4\n        /* \"#utility.yul\":12869:12936   */\n      tag_173\n      jump\t// in\n    tag_311:\n        /* \"#utility.yul\":12862:12936   */\n      swap2\n      pop\n        /* \"#utility.yul\":12945:13038   */\n      tag_312\n        /* \"#utility.yul\":13034:13037   */\n      dup3\n        /* \"#utility.yul\":12945:13038   */\n      tag_189\n      jump\t// in\n    tag_312:\n        /* \"#utility.yul\":13063:13065   */\n      0x20\n        /* \"#utility.yul\":13058:13061   */\n      dup3\n        /* \"#utility.yul\":13054:13066   */\n      add\n        /* \"#utility.yul\":13047:13066   */\n      swap1\n      pop\n        /* \"#utility.yul\":12706:13072   */\n      swap2\n      swap1\n      pop\n      jump\t// out\n        /* \"#utility.yul\":13078:13497   */\n    tag_121:\n        /* \"#utility.yul\":13244:13248   */\n      0x00\n        /* \"#utility.yul\":13282:13284   */\n      0x20\n        /* \"#utility.yul\":13271:13280   */\n      dup3\n        /* \"#utility.yul\":13267:13285   */\n      add\n        /* \"#utility.yul\":13259:13285   */\n      swap1\n      pop\n        /* \"#utility.yul\":13331:13340   */\n      dup2\n        /* \"#utility.yul\":13325:13329   */\n      dup2\n        /* \"#utility.yul\":13321:13341   */\n      sub\n        /* \"#utility.yul\":13317:13318   */\n      0x00\n        /* \"#utility.yul\":13306:13315   */\n      dup4\n        /* \"#utility.yul\":13302:13319   */\n      add\n        /* \"#utility.yul\":13295:13342   */\n      mstore\n        /* \"#utility.yul\":13359:13490   */\n      tag_314\n        /* \"#utility.yul\":13485:13489   */\n      dup2\n        /* \"#utility.yul\":13359:13490   */\n      tag_190\n      jump\t// in\n    tag_314:\n        /* \"#utility.yul\":13351:13490   */\n      swap1\n      pop\n        /* \"#utility.yul\":13078:13497   */\n      swap2\n      swap1\n      pop\n      jump\t// out\n        /* \"#utility.yul\":13503:13677   */\n    tag_191:\n        /* \"#utility.yul\":13643:13669   */\n      0x54686520766f74657220616c726561647920766f7465642e0000000000000000\n        /* \"#utility.yul\":13639:13640   */\n      0x00\n        /* \"#utility.yul\":13631:13637   */\n      dup3\n        /* \"#utility.yul\":13627:13641   */\n      add\n        /* \"#utility.yul\":13620:13670   */\n      mstore\n        /* \"#utility.yul\":13503:13677   */\n      pop\n      jump\t// out\n        /* \"#utility.yul\":13683:14049   */\n    tag_192:\n        /* \"#utility.yul\":13825:13828   */\n      0x00\n        /* \"#utility.yul\":13846:13913   */\n      tag_317\n        /* \"#utility.yul\":13910:13912   */\n      0x18\n        /* \"#utility.yul\":13905:13908   */\n      dup4\n        /* \"#utility.yul\":13846:13913   */\n      tag_173\n      jump\t// in\n    tag_317:\n        /* \"#utility.yul\":13839:13913   */\n      swap2\n      pop\n        /* \"#utility.yul\":13922:14015   */\n      tag_318\n        /* \"#utility.yul\":14011:14014   */\n      dup3\n        /* \"#utility.yul\":13922:14015   */\n      tag_191\n      jump\t// in\n    tag_318:\n        /* \"#utility.yul\":14040:14042   */\n      0x20\n        /* \"#utility.yul\":14035:14038   */\n      dup3\n        /* \"#utility.yul\":14031:14043   */\n      add\n        /* \"#utility.yul\":14024:14043   */\n      swap1\n      pop\n        /* \"#utility.yul\":13683:14049   */\n      swap2\n      swap1\n      pop\n      jump\t// out\n        /* \"#utility.yul\":14055:14474   */\n    tag_146:\n        /* \"#utility.yul\":14221:14225   */\n      0x00\n        /* \"#utility.yul\":14259:14261   */\n      0x20\n        /* \"#utility.yul\":14248:14257   */\n      dup3\n        /* \"#utility.yul\":14244:14262   */\n      add\n        /* \"#utility.yul\":14236:14262   */\n      swap1\n      pop\n        /* \"#utility.yul\":14308:14317   */\n      dup2\n        /* \"#utility.yul\":14302:14306   */\n      dup2\n        /* \"#utility.yul\":14298:14318   */\n      sub\n        /* \"#utility.yul\":14294:14295   */\n      0x00\n        /* \"#utility.yul\":14283:14292   */\n      dup4\n        /* \"#utility.yul\":14279:14296   */\n      add\n        /* \"#utility.yul\":14272:14319   */\n      mstore\n        /* \"#utility.yul\":14336:14467   */\n      tag_320\n        /* \"#utility.yul\":14462:14466   */\n      dup2\n        /* \"#utility.yul\":14336:14467   */\n      tag_192\n      jump\t// in\n    tag_320:\n        /* \"#utility.yul\":14328:14467   */\n      swap1\n      pop\n        /* \"#utility.yul\":14055:14474   */\n      swap2\n      swap1\n      pop\n      jump\t// out\n        /* \"#utility.yul\":14480:14703   */\n    tag_193:\n        /* \"#utility.yul\":14620:14654   */\n      0x566f74657220616c7265616479206861732074686520726967687420746f2076\n        /* \"#utility.yul\":14616:14617   */\n      0x00\n        /* \"#utility.yul\":14608:14614   */\n      dup3\n        /* \"#utility.yul\":14604:14618   */\n      add\n        /* \"#utility.yul\":14597:14655   */\n      mstore\n        /* \"#utility.yul\":14689:14695   */\n      0x6f74652e00000000000000000000000000000000000000000000000000000000\n        /* \"#utility.yul\":14684:14686   */\n      0x20\n        /* \"#utility.yul\":14676:14682   */\n      dup3\n        /* \"#utility.yul\":14672:14687   */\n      add\n        /* \"#utility.yul\":14665:14696   */\n      mstore\n        /* \"#utility.yul\":14480:14703   */\n      pop\n      jump\t// out\n        /* \"#utility.yul\":14709:15075   */\n    tag_194:\n        /* \"#utility.yul\":14851:14854   */\n      0x00\n        /* \"#utility.yul\":14872:14939   */\n      tag_323\n        /* \"#utility.yul\":14936:14938   */\n      0x24\n        /* \"#utility.yul\":14931:14934   */\n      dup4\n        /* \"#utility.yul\":14872:14939   */\n      tag_173\n      jump\t// in\n    tag_323:\n        /* \"#utility.yul\":14865:14939   */\n      swap2\n      pop\n        /* \"#utility.yul\":14948:15041   */\n      tag_324\n        /* \"#utility.yul\":15037:15040   */\n      dup3\n        /* \"#utility.yul\":14948:15041   */\n      tag_193\n      jump\t// in\n    tag_324:\n        /* \"#utility.yul\":15066:15068   */\n      0x40\n        /* \"#utility.yul\":15061:15064   */\n      dup3\n        /* \"#utility.yul\":15057:15069   */\n      add\n        /* \"#utility.yul\":15050:15069   */\n      swap1\n      pop\n        /* \"#utility.yul\":14709:15075   */\n      swap2\n      swap1\n      pop\n      jump\t// out\n        /* \"#utility.yul\":15081:15500   */\n    tag_149:\n        /* \"#utility.yul\":15247:15251   */\n      0x00\n        /* \"#utility.yul\":15285:15287   */\n      0x20\n        /* \"#utility.yul\":15274:15283   */\n      dup3\n        /* \"#utility.yul\":15270:15288   */\n      add\n        /* \"#utility.yul\":15262:15288   */\n      swap1\n      pop\n        /* \"#utility.yul\":15334:15343   */\n      dup2\n        /* \"#utility.yul\":15328:15332   */\n      dup2\n        /* \"#utility.yul\":15324:15344   */\n      sub\n        /* \"#utility.yul\":15320:15321   */\n      0x00\n        /* \"#utility.yul\":15309:15318   */\n      dup4\n        /* \"#utility.yul\":15305:15322   */\n      add\n        /* \"#utility.yul\":15298:15345   */\n      mstore\n        /* \"#utility.yul\":15362:15493   */\n      tag_326\n        /* \"#utility.yul\":15488:15492   */\n      dup2\n        /* \"#utility.yul\":15362:15493   */\n      tag_194\n      jump\t// in\n    tag_326:\n        /* \"#utility.yul\":15354:15493   */\n      swap1\n      pop\n        /* \"#utility.yul\":15081:15500   */\n      swap2\n      swap1\n      pop\n      jump\t// out\n\n    auxdata: 0xa2646970667358221220fc948a204d0761d89e42687235962b143be34b9b2c3e7bf8808d193630c76ef564736f6c634300081a0033\n}\n",
				"bytecode": {
					"linkReferences": {},
					"object": "608060405234801561000f575f80fd5b5060405161198f38038061198f83398181016040528101906100319190610345565b335f806101000a81548173ffffffffffffffffffffffffffffffffffffffff021916908373ffffffffffffffffffffffffffffffffffffffff160217905550600160035f805f9054906101000a900473ffffffffffffffffffffffffffffffffffffffff1673ffffffffffffffffffffffffffffffffffffffff1673ffffffffffffffffffffffffffffffffffffffff1681526020019081526020015f205f0181905550603c816100e291906103cc565b426100ed919061040d565b6001819055505f5b8251811015610176576002604051806040016040528085848151811061011e5761011d610440565b5b602002602001015181526020015f815250908060018154018082558091505060019003905f5260205f2090600202015f909190919091505f820151815f015560208201518160010155505080806001019150506100f5565b50505061046d565b5f604051905090565b5f80fd5b5f80fd5b5f80fd5b5f601f19601f8301169050919050565b7f4e487b71000000000000000000000000000000000000000000000000000000005f52604160045260245ffd5b6101d982610193565b810181811067ffffffffffffffff821117156101f8576101f76101a3565b5b80604052505050565b5f61020a61017e565b905061021682826101d0565b919050565b5f67ffffffffffffffff821115610235576102346101a3565b5b602082029050602081019050919050565b5f80fd5b5f819050919050565b61025c8161024a565b8114610266575f80fd5b50565b5f8151905061027781610253565b92915050565b5f61028f61028a8461021b565b610201565b905080838252602082019050602084028301858111156102b2576102b1610246565b5b835b818110156102db57806102c78882610269565b8452602084019350506020810190506102b4565b5050509392505050565b5f82601f8301126102f9576102f861018f565b5b815161030984826020860161027d565b91505092915050565b5f819050919050565b61032481610312565b811461032e575f80fd5b50565b5f8151905061033f8161031b565b92915050565b5f806040838503121561035b5761035a610187565b5b5f83015167ffffffffffffffff8111156103785761037761018b565b5b610384858286016102e5565b925050602061039585828601610331565b9150509250929050565b7f4e487b71000000000000000000000000000000000000000000000000000000005f52601160045260245ffd5b5f6103d682610312565b91506103e183610312565b92508282026103ef81610312565b915082820484148315176104065761040561039f565b5b5092915050565b5f61041782610312565b915061042283610312565b925082820190508082111561043a5761043961039f565b5b92915050565b7f4e487b71000000000000000000000000000000000000000000000000000000005f52603260045260245ffd5b6115158061047a5f395ff3fe608060405234801561000f575f80fd5b50600436106100b2575f3560e01c80632e4176cf1161006f5780632e4176cf146101515780635c19a95c1461016f578063609ff1bd1461018b5780639e7b8d61146101a9578063a3ec138d146101c5578063e2ba53f0146101f8576100b2565b80630121b93f146100b6578063013cf08b146100d2578063036ee8501461010357806306efe3b014610121578063070c8b741461013d5780632d8cd09614610147575b5f80fd5b6100d060048036038101906100cb9190610da9565b610216565b005b6100ec60048036038101906100e79190610da9565b610395565b6040516100fa929190610dfb565b60405180910390f35b61010b6103c4565b6040516101189190610e22565b60405180910390f35b61013b60048036038101906101369190610e65565b6103ca565b005b6101456104ab565b005b61014f6105e6565b005b6101596106a0565b6040516101669190610ecf565b60405180910390f35b61018960048036038101906101849190610f12565b6106c3565b005b610193610a8c565b6040516101a09190610e22565b60405180910390f35b6101c360048036038101906101be9190610f12565b610b07565b005b6101df60048036038101906101da9190610f12565b610cea565b6040516101ef9493929190610f57565b60405180910390f35b610200610d42565b60405161020d9190610f9a565b60405180910390f35b600154421061025a576040517f08c379a00000000000000000000000000000000000000000000000000000000081526004016102519061100d565b60405180910390fd5b5f60035f3373ffffffffffffffffffffffffffffffffffffffff1673ffffffffffffffffffffffffffffffffffffffff1681526020019081526020015f2090505f815f0154036102df576040517f08c379a00000000000000000000000000000000000000000000000000000000081526004016102d690611075565b60405180910390fd5b806001015f9054906101000a900460ff1615610330576040517f08c379a0000000000000000000000000000000000000000000000000000000008152600401610327906110dd565b60405180910390fd5b6001816001015f6101000a81548160ff021916908315150217905550818160020181905550805f01546002838154811061036d5761036c6110fb565b5b905f5260205f2090600202016001015f82825461038a9190611155565b925050819055505050565b600281815481106103a4575f80fd5b905f5260205f2090600202015f91509050805f0154908060010154905082565b60015481565b5f8054906101000a900473ffffffffffffffffffffffffffffffffffffffff1673ffffffffffffffffffffffffffffffffffffffff163373ffffffffffffffffffffffffffffffffffffffff1614610457576040517f08c379a000000000000000000000000000000000000000000000000000000000815260040161044e906111f8565b60405180910390fd5b600260405180604001604052808381526020015f815250908060018154018082558091505060019003905f5260205f2090600202015f909190919091505f820151815f015560208201518160010155505050565b60015442106104ef576040517f08c379a00000000000000000000000000000000000000000000000000000000081526004016104e69061100d565b60405180910390fd5b5f60035f3373ffffffffffffffffffffffffffffffffffffffff1673ffffffffffffffffffffffffffffffffffffffff1681526020019081526020015f209050806001015f9054906101000a900460ff1661057f576040517f08c379a000000000000000000000000000000000000000000000000000000000815260040161057690611260565b60405180910390fd5b805f0154600282600201548154811061059b5761059a6110fb565b5b905f5260205f2090600202016001015f8282546105b8919061127e565b925050819055505f816001015f6101000a81548160ff0219169083151502179055505f816002018190555050565b600154421061062a576040517f08c379a00000000000000000000000000000000000000000000000000000000081526004016106219061100d565b60405180910390fd5b5f610633610d42565b90505f6002610640610a8c565b81548110610651576106506110fb565b5b905f5260205f2090600202016001015490507faff5dcb1fd95b3029a9976c85911d00cdd11ce239597e6ee98ecfe834c68ad3d8282604051610694929190610dfb565b60405180910390a15050565b5f8054906101000a900473ffffffffffffffffffffffffffffffffffffffff1681565b6001544210610707576040517f08c379a00000000000000000000000000000000000000000000000000000000081526004016106fe9061100d565b60405180910390fd5b5f60035f3373ffffffffffffffffffffffffffffffffffffffff1673ffffffffffffffffffffffffffffffffffffffff1681526020019081526020015f209050806001015f9054906101000a900460ff1615610798576040517f08c379a000000000000000000000000000000000000000000000000000000000815260040161078f906112fb565b60405180910390fd5b3373ffffffffffffffffffffffffffffffffffffffff168273ffffffffffffffffffffffffffffffffffffffff1603610806576040517f08c379a00000000000000000000000000000000000000000000000000000000081526004016107fd90611363565b60405180910390fd5b5b5f73ffffffffffffffffffffffffffffffffffffffff1660035f8473ffffffffffffffffffffffffffffffffffffffff1673ffffffffffffffffffffffffffffffffffffffff1681526020019081526020015f2060010160019054906101000a900473ffffffffffffffffffffffffffffffffffffffff1673ffffffffffffffffffffffffffffffffffffffff16146109705760035f8373ffffffffffffffffffffffffffffffffffffffff1673ffffffffffffffffffffffffffffffffffffffff1681526020019081526020015f2060010160019054906101000a900473ffffffffffffffffffffffffffffffffffffffff1691503373ffffffffffffffffffffffffffffffffffffffff168273ffffffffffffffffffffffffffffffffffffffff160361096b576040517f08c379a0000000000000000000000000000000000000000000000000000000008152600401610962906113cb565b60405180910390fd5b610807565b6001816001015f6101000a81548160ff021916908315150217905550818160010160016101000a81548173ffffffffffffffffffffffffffffffffffffffff021916908373ffffffffffffffffffffffffffffffffffffffff1602179055505f60035f8473ffffffffffffffffffffffffffffffffffffffff1673ffffffffffffffffffffffffffffffffffffffff1681526020019081526020015f209050806001015f9054906101000a900460ff1615610a6a57815f01546002826002015481548110610a4157610a406110fb565b5b905f5260205f2090600202016001015f828254610a5e9190611155565b92505081905550610a87565b815f0154815f015f828254610a7f9190611155565b925050819055505b505050565b5f805f90505f5b600280549050811015610b02578160028281548110610ab557610ab46110fb565b5b905f5260205f209060020201600101541115610af55760028181548110610adf57610ade6110fb565b5b905f5260205f2090600202016001015491508092505b8080600101915050610a93565b505090565b5f8054906101000a900473ffffffffffffffffffffffffffffffffffffffff1673ffffffffffffffffffffffffffffffffffffffff163373ffffffffffffffffffffffffffffffffffffffff1614610b94576040517f08c379a0000000000000000000000000000000000000000000000000000000008152600401610b8b906111f8565b60405180910390fd5b60035f8273ffffffffffffffffffffffffffffffffffffffff1673ffffffffffffffffffffffffffffffffffffffff1681526020019081526020015f206001015f9054906101000a900460ff1615610c21576040517f08c379a0000000000000000000000000000000000000000000000000000000008152600401610c1890611433565b60405180910390fd5b5f60035f8373ffffffffffffffffffffffffffffffffffffffff1673ffffffffffffffffffffffffffffffffffffffff1681526020019081526020015f205f015414610ca2576040517f08c379a0000000000000000000000000000000000000000000000000000000008152600401610c99906114c1565b60405180910390fd5b600160035f8373ffffffffffffffffffffffffffffffffffffffff1673ffffffffffffffffffffffffffffffffffffffff1681526020019081526020015f205f018190555050565b6003602052805f5260405f205f91509050805f015490806001015f9054906101000a900460ff16908060010160019054906101000a900473ffffffffffffffffffffffffffffffffffffffff16908060020154905084565b5f6002610d4d610a8c565b81548110610d5e57610d5d6110fb565b5b905f5260205f2090600202015f0154905090565b5f80fd5b5f819050919050565b610d8881610d76565b8114610d92575f80fd5b50565b5f81359050610da381610d7f565b92915050565b5f60208284031215610dbe57610dbd610d72565b5b5f610dcb84828501610d95565b91505092915050565b5f819050919050565b610de681610dd4565b82525050565b610df581610d76565b82525050565b5f604082019050610e0e5f830185610ddd565b610e1b6020830184610dec565b9392505050565b5f602082019050610e355f830184610dec565b92915050565b610e4481610dd4565b8114610e4e575f80fd5b50565b5f81359050610e5f81610e3b565b92915050565b5f60208284031215610e7a57610e79610d72565b5b5f610e8784828501610e51565b91505092915050565b5f73ffffffffffffffffffffffffffffffffffffffff82169050919050565b5f610eb982610e90565b9050919050565b610ec981610eaf565b82525050565b5f602082019050610ee25f830184610ec0565b92915050565b610ef181610eaf565b8114610efb575f80fd5b50565b5f81359050610f0c81610ee8565b92915050565b5f60208284031215610f2757610f26610d72565b5b5f610f3484828501610efe565b91505092915050565b5f8115159050919050565b610f5181610f3d565b82525050565b5f608082019050610f6a5f830187610dec565b610f776020830186610f48565b610f846040830185610ec0565b610f916060830184610dec565b95945050505050565b5f602082019050610fad5f830184610ddd565b92915050565b5f82825260208201905092915050565b7f566f74696e672068617320656e6465642e0000000000000000000000000000005f82015250565b5f610ff7601183610fb3565b915061100282610fc3565b602082019050919050565b5f6020820190508181035f83015261102481610feb565b9050919050565b7f486173206e6f20726967687420746f20766f74652e00000000000000000000005f82015250565b5f61105f601583610fb3565b915061106a8261102b565b602082019050919050565b5f6020820190508181035f83015261108c81611053565b9050919050565b7f416c726561647920766f7465642e0000000000000000000000000000000000005f82015250565b5f6110c7600e83610fb3565b91506110d282611093565b602082019050919050565b5f6020820190508181035f8301526110f4816110bb565b9050919050565b7f4e487b71000000000000000000000000000000000000000000000000000000005f52603260045260245ffd5b7f4e487b71000000000000000000000000000000000000000000000000000000005f52601160045260245ffd5b5f61115f82610d76565b915061116a83610d76565b925082820190508082111561118257611181611128565b5b92915050565b7f4f6e6c79206368616972706572736f6e2063616e20706572666f726d207468695f8201527f7320616374696f6e2e0000000000000000000000000000000000000000000000602082015250565b5f6111e2602983610fb3565b91506111ed82611188565b604082019050919050565b5f6020820190508181035f83015261120f816111d6565b9050919050565b7f596f7520686176656e277420766f746564207965742e000000000000000000005f82015250565b5f61124a601683610fb3565b915061125582611216565b602082019050919050565b5f6020820190508181035f8301526112778161123e565b9050919050565b5f61128882610d76565b915061129383610d76565b92508282039050818111156112ab576112aa611128565b5b92915050565b7f596f7520616c726561647920766f7465642e00000000000000000000000000005f82015250565b5f6112e5601283610fb3565b91506112f0826112b1565b602082019050919050565b5f6020820190508181035f830152611312816112d9565b9050919050565b7f53656c662d64656c65676174696f6e20697320646973616c6c6f7765642e00005f82015250565b5f61134d601e83610fb3565b915061135882611319565b602082019050919050565b5f6020820190508181035f83015261137a81611341565b9050919050565b7f466f756e64206c6f6f7020696e2064656c65676174696f6e2e000000000000005f82015250565b5f6113b5601983610fb3565b91506113c082611381565b602082019050919050565b5f6020820190508181035f8301526113e2816113a9565b9050919050565b7f54686520766f74657220616c726561647920766f7465642e00000000000000005f82015250565b5f61141d601883610fb3565b9150611428826113e9565b602082019050919050565b5f6020820190508181035f83015261144a81611411565b9050919050565b7f566f74657220616c7265616479206861732074686520726967687420746f20765f8201527f6f74652e00000000000000000000000000000000000000000000000000000000602082015250565b5f6114ab602483610fb3565b91506114b682611451565b604082019050919050565b5f6020820190508181035f8301526114d88161149f565b905091905056fea2646970667358221220fc948a204d0761d89e42687235962b143be34b9b2c3e7bf8808d193630c76ef564736f6c634300081a0033",
					"opcodes": "PUSH1 0x80 PUSH1 0x40 MSTORE CALLVALUE DUP1 ISZERO PUSH2 0xF JUMPI PUSH0 DUP1 REVERT JUMPDEST POP PUSH1 0x40 MLOAD PUSH2 0x198F CODESIZE SUB DUP1 PUSH2 0x198F DUP4 CODECOPY DUP2 DUP2 ADD PUSH1 0x40 MSTORE DUP2 ADD SWAP1 PUSH2 0x31 SWAP2 SWAP1 PUSH2 0x345 JUMP JUMPDEST CALLER PUSH0 DUP1 PUSH2 0x100 EXP DUP2 SLOAD DUP2 PUSH20 0xFFFFFFFFFFFFFFFFFFFFFFFFFFFFFFFFFFFFFFFF MUL NOT AND SWAP1 DUP4 PUSH20 0xFFFFFFFFFFFFFFFFFFFFFFFFFFFFFFFFFFFFFFFF AND MUL OR SWAP1 SSTORE POP PUSH1 0x1 PUSH1 0x3 PUSH0 DUP1 PUSH0 SWAP1 SLOAD SWAP1 PUSH2 0x100 EXP SWAP1 DIV PUSH20 0xFFFFFFFFFFFFFFFFFFFFFFFFFFFFFFFFFFFFFFFF AND PUSH20 0xFFFFFFFFFFFFFFFFFFFFFFFFFFFFFFFFFFFFFFFF AND PUSH20 0xFFFFFFFFFFFFFFFFFFFFFFFFFFFFFFFFFFFFFFFF AND DUP2 MSTORE PUSH1 0x20 ADD SWAP1 DUP2 MSTORE PUSH1 0x20 ADD PUSH0 KECCAK256 PUSH0 ADD DUP2 SWAP1 SSTORE POP PUSH1 0x3C DUP2 PUSH2 0xE2 SWAP2 SWAP1 PUSH2 0x3CC JUMP JUMPDEST TIMESTAMP PUSH2 0xED SWAP2 SWAP1 PUSH2 0x40D JUMP JUMPDEST PUSH1 0x1 DUP2 SWAP1 SSTORE POP PUSH0 JUMPDEST DUP3 MLOAD DUP2 LT ISZERO PUSH2 0x176 JUMPI PUSH1 0x2 PUSH1 0x40 MLOAD DUP1 PUSH1 0x40 ADD PUSH1 0x40 MSTORE DUP1 DUP6 DUP5 DUP2 MLOAD DUP2 LT PUSH2 0x11E JUMPI PUSH2 0x11D PUSH2 0x440 JUMP JUMPDEST JUMPDEST PUSH1 0x20 MUL PUSH1 0x20 ADD ADD MLOAD DUP2 MSTORE PUSH1 0x20 ADD PUSH0 DUP2 MSTORE POP SWAP1 DUP1 PUSH1 0x1 DUP2 SLOAD ADD DUP1 DUP3 SSTORE DUP1 SWAP2 POP POP PUSH1 0x1 SWAP1 SUB SWAP1 PUSH0 MSTORE PUSH1 0x20 PUSH0 KECCAK256 SWAP1 PUSH1 0x2 MUL ADD PUSH0 SWAP1 SWAP2 SWAP1 SWAP2 SWAP1 SWAP2 POP PUSH0 DUP3 ADD MLOAD DUP2 PUSH0 ADD SSTORE PUSH1 0x20 DUP3 ADD MLOAD DUP2 PUSH1 0x1 ADD SSTORE POP POP DUP1 DUP1 PUSH1 0x1 ADD SWAP2 POP POP PUSH2 0xF5 JUMP JUMPDEST POP POP POP PUSH2 0x46D JUMP JUMPDEST PUSH0 PUSH1 0x40 MLOAD SWAP1 POP SWAP1 JUMP JUMPDEST PUSH0 DUP1 REVERT JUMPDEST PUSH0 DUP1 REVERT JUMPDEST PUSH0 DUP1 REVERT JUMPDEST PUSH0 PUSH1 0x1F NOT PUSH1 0x1F DUP4 ADD AND SWAP1 POP SWAP2 SWAP1 POP JUMP JUMPDEST PUSH32 0x4E487B7100000000000000000000000000000000000000000000000000000000 PUSH0 MSTORE PUSH1 0x41 PUSH1 0x4 MSTORE PUSH1 0x24 PUSH0 REVERT JUMPDEST PUSH2 0x1D9 DUP3 PUSH2 0x193 JUMP JUMPDEST DUP2 ADD DUP2 DUP2 LT PUSH8 0xFFFFFFFFFFFFFFFF DUP3 GT OR ISZERO PUSH2 0x1F8 JUMPI PUSH2 0x1F7 PUSH2 0x1A3 JUMP JUMPDEST JUMPDEST DUP1 PUSH1 0x40 MSTORE POP POP POP JUMP JUMPDEST PUSH0 PUSH2 0x20A PUSH2 0x17E JUMP JUMPDEST SWAP1 POP PUSH2 0x216 DUP3 DUP3 PUSH2 0x1D0 JUMP JUMPDEST SWAP2 SWAP1 POP JUMP JUMPDEST PUSH0 PUSH8 0xFFFFFFFFFFFFFFFF DUP3 GT ISZERO PUSH2 0x235 JUMPI PUSH2 0x234 PUSH2 0x1A3 JUMP JUMPDEST JUMPDEST PUSH1 0x20 DUP3 MUL SWAP1 POP PUSH1 0x20 DUP2 ADD SWAP1 POP SWAP2 SWAP1 POP JUMP JUMPDEST PUSH0 DUP1 REVERT JUMPDEST PUSH0 DUP2 SWAP1 POP SWAP2 SWAP1 POP JUMP JUMPDEST PUSH2 0x25C DUP2 PUSH2 0x24A JUMP JUMPDEST DUP2 EQ PUSH2 0x266 JUMPI PUSH0 DUP1 REVERT JUMPDEST POP JUMP JUMPDEST PUSH0 DUP2 MLOAD SWAP1 POP PUSH2 0x277 DUP2 PUSH2 0x253 JUMP JUMPDEST SWAP3 SWAP2 POP POP JUMP JUMPDEST PUSH0 PUSH2 0x28F PUSH2 0x28A DUP5 PUSH2 0x21B JUMP JUMPDEST PUSH2 0x201 JUMP JUMPDEST SWAP1 POP DUP1 DUP4 DUP3 MSTORE PUSH1 0x20 DUP3 ADD SWAP1 POP PUSH1 0x20 DUP5 MUL DUP4 ADD DUP6 DUP2 GT ISZERO PUSH2 0x2B2 JUMPI PUSH2 0x2B1 PUSH2 0x246 JUMP JUMPDEST JUMPDEST DUP4 JUMPDEST DUP2 DUP2 LT ISZERO PUSH2 0x2DB JUMPI DUP1 PUSH2 0x2C7 DUP9 DUP3 PUSH2 0x269 JUMP JUMPDEST DUP5 MSTORE PUSH1 0x20 DUP5 ADD SWAP4 POP POP PUSH1 0x20 DUP2 ADD SWAP1 POP PUSH2 0x2B4 JUMP JUMPDEST POP POP POP SWAP4 SWAP3 POP POP POP JUMP JUMPDEST PUSH0 DUP3 PUSH1 0x1F DUP4 ADD SLT PUSH2 0x2F9 JUMPI PUSH2 0x2F8 PUSH2 0x18F JUMP JUMPDEST JUMPDEST DUP2 MLOAD PUSH2 0x309 DUP5 DUP3 PUSH1 0x20 DUP7 ADD PUSH2 0x27D JUMP JUMPDEST SWAP2 POP POP SWAP3 SWAP2 POP POP JUMP JUMPDEST PUSH0 DUP2 SWAP1 POP SWAP2 SWAP1 POP JUMP JUMPDEST PUSH2 0x324 DUP2 PUSH2 0x312 JUMP JUMPDEST DUP2 EQ PUSH2 0x32E JUMPI PUSH0 DUP1 REVERT JUMPDEST POP JUMP JUMPDEST PUSH0 DUP2 MLOAD SWAP1 POP PUSH2 0x33F DUP2 PUSH2 0x31B JUMP JUMPDEST SWAP3 SWAP2 POP POP JUMP JUMPDEST PUSH0 DUP1 PUSH1 0x40 DUP4 DUP6 SUB SLT ISZERO PUSH2 0x35B JUMPI PUSH2 0x35A PUSH2 0x187 JUMP JUMPDEST JUMPDEST PUSH0 DUP4 ADD MLOAD PUSH8 0xFFFFFFFFFFFFFFFF DUP2 GT ISZERO PUSH2 0x378 JUMPI PUSH2 0x377 PUSH2 0x18B JUMP JUMPDEST JUMPDEST PUSH2 0x384 DUP6 DUP3 DUP7 ADD PUSH2 0x2E5 JUMP JUMPDEST SWAP3 POP POP PUSH1 0x20 PUSH2 0x395 DUP6 DUP3 DUP7 ADD PUSH2 0x331 JUMP JUMPDEST SWAP2 POP POP SWAP3 POP SWAP3 SWAP1 POP JUMP JUMPDEST PUSH32 0x4E487B7100000000000000000000000000000000000000000000000000000000 PUSH0 MSTORE PUSH1 0x11 PUSH1 0x4 MSTORE PUSH1 0x24 PUSH0 REVERT JUMPDEST PUSH0 PUSH2 0x3D6 DUP3 PUSH2 0x312 JUMP JUMPDEST SWAP2 POP PUSH2 0x3E1 DUP4 PUSH2 0x312 JUMP JUMPDEST SWAP3 POP DUP3 DUP3 MUL PUSH2 0x3EF DUP2 PUSH2 0x312 JUMP JUMPDEST SWAP2 POP DUP3 DUP3 DIV DUP5 EQ DUP4 ISZERO OR PUSH2 0x406 JUMPI PUSH2 0x405 PUSH2 0x39F JUMP JUMPDEST JUMPDEST POP SWAP3 SWAP2 POP POP JUMP JUMPDEST PUSH0 PUSH2 0x417 DUP3 PUSH2 0x312 JUMP JUMPDEST SWAP2 POP PUSH2 0x422 DUP4 PUSH2 0x312 JUMP JUMPDEST SWAP3 POP DUP3 DUP3 ADD SWAP1 POP DUP1 DUP3 GT ISZERO PUSH2 0x43A JUMPI PUSH2 0x439 PUSH2 0x39F JUMP JUMPDEST JUMPDEST SWAP3 SWAP2 POP POP JUMP JUMPDEST PUSH32 0x4E487B7100000000000000000000000000000000000000000000000000000000 PUSH0 MSTORE PUSH1 0x32 PUSH1 0x4 MSTORE PUSH1 0x24 PUSH0 REVERT JUMPDEST PUSH2 0x1515 DUP1 PUSH2 0x47A PUSH0 CODECOPY PUSH0 RETURN INVALID PUSH1 0x80 PUSH1 0x40 MSTORE CALLVALUE DUP1 ISZERO PUSH2 0xF JUMPI PUSH0 DUP1 REVERT JUMPDEST POP PUSH1 0x4 CALLDATASIZE LT PUSH2 0xB2 JUMPI PUSH0 CALLDATALOAD PUSH1 0xE0 SHR DUP1 PUSH4 0x2E4176CF GT PUSH2 0x6F JUMPI DUP1 PUSH4 0x2E4176CF EQ PUSH2 0x151 JUMPI DUP1 PUSH4 0x5C19A95C EQ PUSH2 0x16F JUMPI DUP1 PUSH4 0x609FF1BD EQ PUSH2 0x18B JUMPI DUP1 PUSH4 0x9E7B8D61 EQ PUSH2 0x1A9 JUMPI DUP1 PUSH4 0xA3EC138D EQ PUSH2 0x1C5 JUMPI DUP1 PUSH4 0xE2BA53F0 EQ PUSH2 0x1F8 JUMPI PUSH2 0xB2 JUMP JUMPDEST DUP1 PUSH4 0x121B93F EQ PUSH2 0xB6 JUMPI DUP1 PUSH4 0x13CF08B EQ PUSH2 0xD2 JUMPI DUP1 PUSH4 0x36EE850 EQ PUSH2 0x103 JUMPI DUP1 PUSH4 0x6EFE3B0 EQ PUSH2 0x121 JUMPI DUP1 PUSH4 0x70C8B74 EQ PUSH2 0x13D JUMPI DUP1 PUSH4 0x2D8CD096 EQ PUSH2 0x147 JUMPI JUMPDEST PUSH0 DUP1 REVERT JUMPDEST PUSH2 0xD0 PUSH1 0x4 DUP1 CALLDATASIZE SUB DUP2 ADD SWAP1 PUSH2 0xCB SWAP2 SWAP1 PUSH2 0xDA9 JUMP JUMPDEST PUSH2 0x216 JUMP JUMPDEST STOP JUMPDEST PUSH2 0xEC PUSH1 0x4 DUP1 CALLDATASIZE SUB DUP2 ADD SWAP1 PUSH2 0xE7 SWAP2 SWAP1 PUSH2 0xDA9 JUMP JUMPDEST PUSH2 0x395 JUMP JUMPDEST PUSH1 0x40 MLOAD PUSH2 0xFA SWAP3 SWAP2 SWAP1 PUSH2 0xDFB JUMP JUMPDEST PUSH1 0x40 MLOAD DUP1 SWAP2 SUB SWAP1 RETURN JUMPDEST PUSH2 0x10B PUSH2 0x3C4 JUMP JUMPDEST PUSH1 0x40 MLOAD PUSH2 0x118 SWAP2 SWAP1 PUSH2 0xE22 JUMP JUMPDEST PUSH1 0x40 MLOAD DUP1 SWAP2 SUB SWAP1 RETURN JUMPDEST PUSH2 0x13B PUSH1 0x4 DUP1 CALLDATASIZE SUB DUP2 ADD SWAP1 PUSH2 0x136 SWAP2 SWAP1 PUSH2 0xE65 JUMP JUMPDEST PUSH2 0x3CA JUMP JUMPDEST STOP JUMPDEST PUSH2 0x145 PUSH2 0x4AB JUMP JUMPDEST STOP JUMPDEST PUSH2 0x14F PUSH2 0x5E6 JUMP JUMPDEST STOP JUMPDEST PUSH2 0x159 PUSH2 0x6A0 JUMP JUMPDEST PUSH1 0x40 MLOAD PUSH2 0x166 SWAP2 SWAP1 PUSH2 0xECF JUMP JUMPDEST PUSH1 0x40 MLOAD DUP1 SWAP2 SUB SWAP1 RETURN JUMPDEST PUSH2 0x189 PUSH1 0x4 DUP1 CALLDATASIZE SUB DUP2 ADD SWAP1 PUSH2 0x184 SWAP2 SWAP1 PUSH2 0xF12 JUMP JUMPDEST PUSH2 0x6C3 JUMP JUMPDEST STOP JUMPDEST PUSH2 0x193 PUSH2 0xA8C JUMP JUMPDEST PUSH1 0x40 MLOAD PUSH2 0x1A0 SWAP2 SWAP1 PUSH2 0xE22 JUMP JUMPDEST PUSH1 0x40 MLOAD DUP1 SWAP2 SUB SWAP1 RETURN JUMPDEST PUSH2 0x1C3 PUSH1 0x4 DUP1 CALLDATASIZE SUB DUP2 ADD SWAP1 PUSH2 0x1BE SWAP2 SWAP1 PUSH2 0xF12 JUMP JUMPDEST PUSH2 0xB07 JUMP JUMPDEST STOP JUMPDEST PUSH2 0x1DF PUSH1 0x4 DUP1 CALLDATASIZE SUB DUP2 ADD SWAP1 PUSH2 0x1DA SWAP2 SWAP1 PUSH2 0xF12 JUMP JUMPDEST PUSH2 0xCEA JUMP JUMPDEST PUSH1 0x40 MLOAD PUSH2 0x1EF SWAP5 SWAP4 SWAP3 SWAP2 SWAP1 PUSH2 0xF57 JUMP JUMPDEST PUSH1 0x40 MLOAD DUP1 SWAP2 SUB SWAP1 RETURN JUMPDEST PUSH2 0x200 PUSH2 0xD42 JUMP JUMPDEST PUSH1 0x40 MLOAD PUSH2 0x20D SWAP2 SWAP1 PUSH2 0xF9A JUMP JUMPDEST PUSH1 0x40 MLOAD DUP1 SWAP2 SUB SWAP1 RETURN JUMPDEST PUSH1 0x1 SLOAD TIMESTAMP LT PUSH2 0x25A JUMPI PUSH1 0x40 MLOAD PUSH32 0x8C379A000000000000000000000000000000000000000000000000000000000 DUP2 MSTORE PUSH1 0x4 ADD PUSH2 0x251 SWAP1 PUSH2 0x100D JUMP JUMPDEST PUSH1 0x40 MLOAD DUP1 SWAP2 SUB SWAP1 REVERT JUMPDEST PUSH0 PUSH1 0x3 PUSH0 CALLER PUSH20 0xFFFFFFFFFFFFFFFFFFFFFFFFFFFFFFFFFFFFFFFF AND PUSH20 0xFFFFFFFFFFFFFFFFFFFFFFFFFFFFFFFFFFFFFFFF AND DUP2 MSTORE PUSH1 0x20 ADD SWAP1 DUP2 MSTORE PUSH1 0x20 ADD PUSH0 KECCAK256 SWAP1 POP PUSH0 DUP2 PUSH0 ADD SLOAD SUB PUSH2 0x2DF JUMPI PUSH1 0x40 MLOAD PUSH32 0x8C379A000000000000000000000000000000000000000000000000000000000 DUP2 MSTORE PUSH1 0x4 ADD PUSH2 0x2D6 SWAP1 PUSH2 0x1075 JUMP JUMPDEST PUSH1 0x40 MLOAD DUP1 SWAP2 SUB SWAP1 REVERT JUMPDEST DUP1 PUSH1 0x1 ADD PUSH0 SWAP1 SLOAD SWAP1 PUSH2 0x100 EXP SWAP1 DIV PUSH1 0xFF AND ISZERO PUSH2 0x330 JUMPI PUSH1 0x40 MLOAD PUSH32 0x8C379A000000000000000000000000000000000000000000000000000000000 DUP2 MSTORE PUSH1 0x4 ADD PUSH2 0x327 SWAP1 PUSH2 0x10DD JUMP JUMPDEST PUSH1 0x40 MLOAD DUP1 SWAP2 SUB SWAP1 REVERT JUMPDEST PUSH1 0x1 DUP2 PUSH1 0x1 ADD PUSH0 PUSH2 0x100 EXP DUP2 SLOAD DUP2 PUSH1 0xFF MUL NOT AND SWAP1 DUP4 ISZERO ISZERO MUL OR SWAP1 SSTORE POP DUP2 DUP2 PUSH1 0x2 ADD DUP2 SWAP1 SSTORE POP DUP1 PUSH0 ADD SLOAD PUSH1 0x2 DUP4 DUP2 SLOAD DUP2 LT PUSH2 0x36D JUMPI PUSH2 0x36C PUSH2 0x10FB JUMP JUMPDEST JUMPDEST SWAP1 PUSH0 MSTORE PUSH1 0x20 PUSH0 KECCAK256 SWAP1 PUSH1 0x2 MUL ADD PUSH1 0x1 ADD PUSH0 DUP3 DUP3 SLOAD PUSH2 0x38A SWAP2 SWAP1 PUSH2 0x1155 JUMP JUMPDEST SWAP3 POP POP DUP2 SWAP1 SSTORE POP POP POP JUMP JUMPDEST PUSH1 0x2 DUP2 DUP2 SLOAD DUP2 LT PUSH2 0x3A4 JUMPI PUSH0 DUP1 REVERT JUMPDEST SWAP1 PUSH0 MSTORE PUSH1 0x20 PUSH0 KECCAK256 SWAP1 PUSH1 0x2 MUL ADD PUSH0 SWAP2 POP SWAP1 POP DUP1 PUSH0 ADD SLOAD SWAP1 DUP1 PUSH1 0x1 ADD SLOAD SWAP1 POP DUP3 JUMP JUMPDEST PUSH1 0x1 SLOAD DUP2 JUMP JUMPDEST PUSH0 DUP1 SLOAD SWAP1 PUSH2 0x100 EXP SWAP1 DIV PUSH20 0xFFFFFFFFFFFFFFFFFFFFFFFFFFFFFFFFFFFFFFFF AND PUSH20 0xFFFFFFFFFFFFFFFFFFFFFFFFFFFFFFFFFFFFFFFF AND CALLER PUSH20 0xFFFFFFFFFFFFFFFFFFFFFFFFFFFFFFFFFFFFFFFF AND EQ PUSH2 0x457 JUMPI PUSH1 0x40 MLOAD PUSH32 0x8C379A000000000000000000000000000000000000000000000000000000000 DUP2 MSTORE PUSH1 0x4 ADD PUSH2 0x44E SWAP1 PUSH2 0x11F8 JUMP JUMPDEST PUSH1 0x40 MLOAD DUP1 SWAP2 SUB SWAP1 REVERT JUMPDEST PUSH1 0x2 PUSH1 0x40 MLOAD DUP1 PUSH1 0x40 ADD PUSH1 0x40 MSTORE DUP1 DUP4 DUP2 MSTORE PUSH1 0x20 ADD PUSH0 DUP2 MSTORE POP SWAP1 DUP1 PUSH1 0x1 DUP2 SLOAD ADD DUP1 DUP3 SSTORE DUP1 SWAP2 POP POP PUSH1 0x1 SWAP1 SUB SWAP1 PUSH0 MSTORE PUSH1 0x20 PUSH0 KECCAK256 SWAP1 PUSH1 0x2 MUL ADD PUSH0 SWAP1 SWAP2 SWAP1 SWAP2 SWAP1 SWAP2 POP PUSH0 DUP3 ADD MLOAD DUP2 PUSH0 ADD SSTORE PUSH1 0x20 DUP3 ADD MLOAD DUP2 PUSH1 0x1 ADD SSTORE POP POP POP JUMP JUMPDEST PUSH1 0x1 SLOAD TIMESTAMP LT PUSH2 0x4EF JUMPI PUSH1 0x40 MLOAD PUSH32 0x8C379A000000000000000000000000000000000000000000000000000000000 DUP2 MSTORE PUSH1 0x4 ADD PUSH2 0x4E6 SWAP1 PUSH2 0x100D JUMP JUMPDEST PUSH1 0x40 MLOAD DUP1 SWAP2 SUB SWAP1 REVERT JUMPDEST PUSH0 PUSH1 0x3 PUSH0 CALLER PUSH20 0xFFFFFFFFFFFFFFFFFFFFFFFFFFFFFFFFFFFFFFFF AND PUSH20 0xFFFFFFFFFFFFFFFFFFFFFFFFFFFFFFFFFFFFFFFF AND DUP2 MSTORE PUSH1 0x20 ADD SWAP1 DUP2 MSTORE PUSH1 0x20 ADD PUSH0 KECCAK256 SWAP1 POP DUP1 PUSH1 0x1 ADD PUSH0 SWAP1 SLOAD SWAP1 PUSH2 0x100 EXP SWAP1 DIV PUSH1 0xFF AND PUSH2 0x57F JUMPI PUSH1 0x40 MLOAD PUSH32 0x8C379A000000000000000000000000000000000000000000000000000000000 DUP2 MSTORE PUSH1 0x4 ADD PUSH2 0x576 SWAP1 PUSH2 0x1260 JUMP JUMPDEST PUSH1 0x40 MLOAD DUP1 SWAP2 SUB SWAP1 REVERT JUMPDEST DUP1 PUSH0 ADD SLOAD PUSH1 0x2 DUP3 PUSH1 0x2 ADD SLOAD DUP2 SLOAD DUP2 LT PUSH2 0x59B JUMPI PUSH2 0x59A PUSH2 0x10FB JUMP JUMPDEST JUMPDEST SWAP1 PUSH0 MSTORE PUSH1 0x20 PUSH0 KECCAK256 SWAP1 PUSH1 0x2 MUL ADD PUSH1 0x1 ADD PUSH0 DUP3 DUP3 SLOAD PUSH2 0x5B8 SWAP2 SWAP1 PUSH2 0x127E JUMP JUMPDEST SWAP3 POP POP DUP2 SWAP1 SSTORE POP PUSH0 DUP2 PUSH1 0x1 ADD PUSH0 PUSH2 0x100 EXP DUP2 SLOAD DUP2 PUSH1 0xFF MUL NOT AND SWAP1 DUP4 ISZERO ISZERO MUL OR SWAP1 SSTORE POP PUSH0 DUP2 PUSH1 0x2 ADD DUP2 SWAP1 SSTORE POP POP JUMP JUMPDEST PUSH1 0x1 SLOAD TIMESTAMP LT PUSH2 0x62A JUMPI PUSH1 0x40 MLOAD PUSH32 0x8C379A000000000000000000000000000000000000000000000000000000000 DUP2 MSTORE PUSH1 0x4 ADD PUSH2 0x621 SWAP1 PUSH2 0x100D JUMP JUMPDEST PUSH1 0x40 MLOAD DUP1 SWAP2 SUB SWAP1 REVERT JUMPDEST PUSH0 PUSH2 0x633 PUSH2 0xD42 JUMP JUMPDEST SWAP1 POP PUSH0 PUSH1 0x2 PUSH2 0x640 PUSH2 0xA8C JUMP JUMPDEST DUP2 SLOAD DUP2 LT PUSH2 0x651 JUMPI PUSH2 0x650 PUSH2 0x10FB JUMP JUMPDEST JUMPDEST SWAP1 PUSH0 MSTORE PUSH1 0x20 PUSH0 KECCAK256 SWAP1 PUSH1 0x2 MUL ADD PUSH1 0x1 ADD SLOAD SWAP1 POP PUSH32 0xAFF5DCB1FD95B3029A9976C85911D00CDD11CE239597E6EE98ECFE834C68AD3D DUP3 DUP3 PUSH1 0x40 MLOAD PUSH2 0x694 SWAP3 SWAP2 SWAP1 PUSH2 0xDFB JUMP JUMPDEST PUSH1 0x40 MLOAD DUP1 SWAP2 SUB SWAP1 LOG1 POP POP JUMP JUMPDEST PUSH0 DUP1 SLOAD SWAP1 PUSH2 0x100 EXP SWAP1 DIV PUSH20 0xFFFFFFFFFFFFFFFFFFFFFFFFFFFFFFFFFFFFFFFF AND DUP2 JUMP JUMPDEST PUSH1 0x1 SLOAD TIMESTAMP LT PUSH2 0x707 JUMPI PUSH1 0x40 MLOAD PUSH32 0x8C379A000000000000000000000000000000000000000000000000000000000 DUP2 MSTORE PUSH1 0x4 ADD PUSH2 0x6FE SWAP1 PUSH2 0x100D JUMP JUMPDEST PUSH1 0x40 MLOAD DUP1 SWAP2 SUB SWAP1 REVERT JUMPDEST PUSH0 PUSH1 0x3 PUSH0 CALLER PUSH20 0xFFFFFFFFFFFFFFFFFFFFFFFFFFFFFFFFFFFFFFFF AND PUSH20 0xFFFFFFFFFFFFFFFFFFFFFFFFFFFFFFFFFFFFFFFF AND DUP2 MSTORE PUSH1 0x20 ADD SWAP1 DUP2 MSTORE PUSH1 0x20 ADD PUSH0 KECCAK256 SWAP1 POP DUP1 PUSH1 0x1 ADD PUSH0 SWAP1 SLOAD SWAP1 PUSH2 0x100 EXP SWAP1 DIV PUSH1 0xFF AND ISZERO PUSH2 0x798 JUMPI PUSH1 0x40 MLOAD PUSH32 0x8C379A000000000000000000000000000000000000000000000000000000000 DUP2 MSTORE PUSH1 0x4 ADD PUSH2 0x78F SWAP1 PUSH2 0x12FB JUMP JUMPDEST PUSH1 0x40 MLOAD DUP1 SWAP2 SUB SWAP1 REVERT JUMPDEST CALLER PUSH20 0xFFFFFFFFFFFFFFFFFFFFFFFFFFFFFFFFFFFFFFFF AND DUP3 PUSH20 0xFFFFFFFFFFFFFFFFFFFFFFFFFFFFFFFFFFFFFFFF AND SUB PUSH2 0x806 JUMPI PUSH1 0x40 MLOAD PUSH32 0x8C379A000000000000000000000000000000000000000000000000000000000 DUP2 MSTORE PUSH1 0x4 ADD PUSH2 0x7FD SWAP1 PUSH2 0x1363 JUMP JUMPDEST PUSH1 0x40 MLOAD DUP1 SWAP2 SUB SWAP1 REVERT JUMPDEST JUMPDEST PUSH0 PUSH20 0xFFFFFFFFFFFFFFFFFFFFFFFFFFFFFFFFFFFFFFFF AND PUSH1 0x3 PUSH0 DUP5 PUSH20 0xFFFFFFFFFFFFFFFFFFFFFFFFFFFFFFFFFFFFFFFF AND PUSH20 0xFFFFFFFFFFFFFFFFFFFFFFFFFFFFFFFFFFFFFFFF AND DUP2 MSTORE PUSH1 0x20 ADD SWAP1 DUP2 MSTORE PUSH1 0x20 ADD PUSH0 KECCAK256 PUSH1 0x1 ADD PUSH1 0x1 SWAP1 SLOAD SWAP1 PUSH2 0x100 EXP SWAP1 DIV PUSH20 0xFFFFFFFFFFFFFFFFFFFFFFFFFFFFFFFFFFFFFFFF AND PUSH20 0xFFFFFFFFFFFFFFFFFFFFFFFFFFFFFFFFFFFFFFFF AND EQ PUSH2 0x970 JUMPI PUSH1 0x3 PUSH0 DUP4 PUSH20 0xFFFFFFFFFFFFFFFFFFFFFFFFFFFFFFFFFFFFFFFF AND PUSH20 0xFFFFFFFFFFFFFFFFFFFFFFFFFFFFFFFFFFFFFFFF AND DUP2 MSTORE PUSH1 0x20 ADD SWAP1 DUP2 MSTORE PUSH1 0x20 ADD PUSH0 KECCAK256 PUSH1 0x1 ADD PUSH1 0x1 SWAP1 SLOAD SWAP1 PUSH2 0x100 EXP SWAP1 DIV PUSH20 0xFFFFFFFFFFFFFFFFFFFFFFFFFFFFFFFFFFFFFFFF AND SWAP2 POP CALLER PUSH20 0xFFFFFFFFFFFFFFFFFFFFFFFFFFFFFFFFFFFFFFFF AND DUP3 PUSH20 0xFFFFFFFFFFFFFFFFFFFFFFFFFFFFFFFFFFFFFFFF AND SUB PUSH2 0x96B JUMPI PUSH1 0x40 MLOAD PUSH32 0x8C379A000000000000000000000000000000000000000000000000000000000 DUP2 MSTORE PUSH1 0x4 ADD PUSH2 0x962 SWAP1 PUSH2 0x13CB JUMP JUMPDEST PUSH1 0x40 MLOAD DUP1 SWAP2 SUB SWAP1 REVERT JUMPDEST PUSH2 0x807 JUMP JUMPDEST PUSH1 0x1 DUP2 PUSH1 0x1 ADD PUSH0 PUSH2 0x100 EXP DUP2 SLOAD DUP2 PUSH1 0xFF MUL NOT AND SWAP1 DUP4 ISZERO ISZERO MUL OR SWAP1 SSTORE POP DUP2 DUP2 PUSH1 0x1 ADD PUSH1 0x1 PUSH2 0x100 EXP DUP2 SLOAD DUP2 PUSH20 0xFFFFFFFFFFFFFFFFFFFFFFFFFFFFFFFFFFFFFFFF MUL NOT AND SWAP1 DUP4 PUSH20 0xFFFFFFFFFFFFFFFFFFFFFFFFFFFFFFFFFFFFFFFF AND MUL OR SWAP1 SSTORE POP PUSH0 PUSH1 0x3 PUSH0 DUP5 PUSH20 0xFFFFFFFFFFFFFFFFFFFFFFFFFFFFFFFFFFFFFFFF AND PUSH20 0xFFFFFFFFFFFFFFFFFFFFFFFFFFFFFFFFFFFFFFFF AND DUP2 MSTORE PUSH1 0x20 ADD SWAP1 DUP2 MSTORE PUSH1 0x20 ADD PUSH0 KECCAK256 SWAP1 POP DUP1 PUSH1 0x1 ADD PUSH0 SWAP1 SLOAD SWAP1 PUSH2 0x100 EXP SWAP1 DIV PUSH1 0xFF AND ISZERO PUSH2 0xA6A JUMPI DUP2 PUSH0 ADD SLOAD PUSH1 0x2 DUP3 PUSH1 0x2 ADD SLOAD DUP2 SLOAD DUP2 LT PUSH2 0xA41 JUMPI PUSH2 0xA40 PUSH2 0x10FB JUMP JUMPDEST JUMPDEST SWAP1 PUSH0 MSTORE PUSH1 0x20 PUSH0 KECCAK256 SWAP1 PUSH1 0x2 MUL ADD PUSH1 0x1 ADD PUSH0 DUP3 DUP3 SLOAD PUSH2 0xA5E SWAP2 SWAP1 PUSH2 0x1155 JUMP JUMPDEST SWAP3 POP POP DUP2 SWAP1 SSTORE POP PUSH2 0xA87 JUMP JUMPDEST DUP2 PUSH0 ADD SLOAD DUP2 PUSH0 ADD PUSH0 DUP3 DUP3 SLOAD PUSH2 0xA7F SWAP2 SWAP1 PUSH2 0x1155 JUMP JUMPDEST SWAP3 POP POP DUP2 SWAP1 SSTORE POP JUMPDEST POP POP POP JUMP JUMPDEST PUSH0 DUP1 PUSH0 SWAP1 POP PUSH0 JUMPDEST PUSH1 0x2 DUP1 SLOAD SWAP1 POP DUP2 LT ISZERO PUSH2 0xB02 JUMPI DUP2 PUSH1 0x2 DUP3 DUP2 SLOAD DUP2 LT PUSH2 0xAB5 JUMPI PUSH2 0xAB4 PUSH2 0x10FB JUMP JUMPDEST JUMPDEST SWAP1 PUSH0 MSTORE PUSH1 0x20 PUSH0 KECCAK256 SWAP1 PUSH1 0x2 MUL ADD PUSH1 0x1 ADD SLOAD GT ISZERO PUSH2 0xAF5 JUMPI PUSH1 0x2 DUP2 DUP2 SLOAD DUP2 LT PUSH2 0xADF JUMPI PUSH2 0xADE PUSH2 0x10FB JUMP JUMPDEST JUMPDEST SWAP1 PUSH0 MSTORE PUSH1 0x20 PUSH0 KECCAK256 SWAP1 PUSH1 0x2 MUL ADD PUSH1 0x1 ADD SLOAD SWAP2 POP DUP1 SWAP3 POP JUMPDEST DUP1 DUP1 PUSH1 0x1 ADD SWAP2 POP POP PUSH2 0xA93 JUMP JUMPDEST POP POP SWAP1 JUMP JUMPDEST PUSH0 DUP1 SLOAD SWAP1 PUSH2 0x100 EXP SWAP1 DIV PUSH20 0xFFFFFFFFFFFFFFFFFFFFFFFFFFFFFFFFFFFFFFFF AND PUSH20 0xFFFFFFFFFFFFFFFFFFFFFFFFFFFFFFFFFFFFFFFF AND CALLER PUSH20 0xFFFFFFFFFFFFFFFFFFFFFFFFFFFFFFFFFFFFFFFF AND EQ PUSH2 0xB94 JUMPI PUSH1 0x40 MLOAD PUSH32 0x8C379A000000000000000000000000000000000000000000000000000000000 DUP2 MSTORE PUSH1 0x4 ADD PUSH2 0xB8B SWAP1 PUSH2 0x11F8 JUMP JUMPDEST PUSH1 0x40 MLOAD DUP1 SWAP2 SUB SWAP1 REVERT JUMPDEST PUSH1 0x3 PUSH0 DUP3 PUSH20 0xFFFFFFFFFFFFFFFFFFFFFFFFFFFFFFFFFFFFFFFF AND PUSH20 0xFFFFFFFFFFFFFFFFFFFFFFFFFFFFFFFFFFFFFFFF AND DUP2 MSTORE PUSH1 0x20 ADD SWAP1 DUP2 MSTORE PUSH1 0x20 ADD PUSH0 KECCAK256 PUSH1 0x1 ADD PUSH0 SWAP1 SLOAD SWAP1 PUSH2 0x100 EXP SWAP1 DIV PUSH1 0xFF AND ISZERO PUSH2 0xC21 JUMPI PUSH1 0x40 MLOAD PUSH32 0x8C379A000000000000000000000000000000000000000000000000000000000 DUP2 MSTORE PUSH1 0x4 ADD PUSH2 0xC18 SWAP1 PUSH2 0x1433 JUMP JUMPDEST PUSH1 0x40 MLOAD DUP1 SWAP2 SUB SWAP1 REVERT JUMPDEST PUSH0 PUSH1 0x3 PUSH0 DUP4 PUSH20 0xFFFFFFFFFFFFFFFFFFFFFFFFFFFFFFFFFFFFFFFF AND PUSH20 0xFFFFFFFFFFFFFFFFFFFFFFFFFFFFFFFFFFFFFFFF AND DUP2 MSTORE PUSH1 0x20 ADD SWAP1 DUP2 MSTORE PUSH1 0x20 ADD PUSH0 KECCAK256 PUSH0 ADD SLOAD EQ PUSH2 0xCA2 JUMPI PUSH1 0x40 MLOAD PUSH32 0x8C379A000000000000000000000000000000000000000000000000000000000 DUP2 MSTORE PUSH1 0x4 ADD PUSH2 0xC99 SWAP1 PUSH2 0x14C1 JUMP JUMPDEST PUSH1 0x40 MLOAD DUP1 SWAP2 SUB SWAP1 REVERT JUMPDEST PUSH1 0x1 PUSH1 0x3 PUSH0 DUP4 PUSH20 0xFFFFFFFFFFFFFFFFFFFFFFFFFFFFFFFFFFFFFFFF AND PUSH20 0xFFFFFFFFFFFFFFFFFFFFFFFFFFFFFFFFFFFFFFFF AND DUP2 MSTORE PUSH1 0x20 ADD SWAP1 DUP2 MSTORE PUSH1 0x20 ADD PUSH0 KECCAK256 PUSH0 ADD DUP2 SWAP1 SSTORE POP POP JUMP JUMPDEST PUSH1 0x3 PUSH1 0x20 MSTORE DUP1 PUSH0 MSTORE PUSH1 0x40 PUSH0 KECCAK256 PUSH0 SWAP2 POP SWAP1 POP DUP1 PUSH0 ADD SLOAD SWAP1 DUP1 PUSH1 0x1 ADD PUSH0 SWAP1 SLOAD SWAP1 PUSH2 0x100 EXP SWAP1 DIV PUSH1 0xFF AND SWAP1 DUP1 PUSH1 0x1 ADD PUSH1 0x1 SWAP1 SLOAD SWAP1 PUSH2 0x100 EXP SWAP1 DIV PUSH20 0xFFFFFFFFFFFFFFFFFFFFFFFFFFFFFFFFFFFFFFFF AND SWAP1 DUP1 PUSH1 0x2 ADD SLOAD SWAP1 POP DUP5 JUMP JUMPDEST PUSH0 PUSH1 0x2 PUSH2 0xD4D PUSH2 0xA8C JUMP JUMPDEST DUP2 SLOAD DUP2 LT PUSH2 0xD5E JUMPI PUSH2 0xD5D PUSH2 0x10FB JUMP JUMPDEST JUMPDEST SWAP1 PUSH0 MSTORE PUSH1 0x20 PUSH0 KECCAK256 SWAP1 PUSH1 0x2 MUL ADD PUSH0 ADD SLOAD SWAP1 POP SWAP1 JUMP JUMPDEST PUSH0 DUP1 REVERT JUMPDEST PUSH0 DUP2 SWAP1 POP SWAP2 SWAP1 POP JUMP JUMPDEST PUSH2 0xD88 DUP2 PUSH2 0xD76 JUMP JUMPDEST DUP2 EQ PUSH2 0xD92 JUMPI PUSH0 DUP1 REVERT JUMPDEST POP JUMP JUMPDEST PUSH0 DUP2 CALLDATALOAD SWAP1 POP PUSH2 0xDA3 DUP2 PUSH2 0xD7F JUMP JUMPDEST SWAP3 SWAP2 POP POP JUMP JUMPDEST PUSH0 PUSH1 0x20 DUP3 DUP5 SUB SLT ISZERO PUSH2 0xDBE JUMPI PUSH2 0xDBD PUSH2 0xD72 JUMP JUMPDEST JUMPDEST PUSH0 PUSH2 0xDCB DUP5 DUP3 DUP6 ADD PUSH2 0xD95 JUMP JUMPDEST SWAP2 POP POP SWAP3 SWAP2 POP POP JUMP JUMPDEST PUSH0 DUP2 SWAP1 POP SWAP2 SWAP1 POP JUMP JUMPDEST PUSH2 0xDE6 DUP2 PUSH2 0xDD4 JUMP JUMPDEST DUP3 MSTORE POP POP JUMP JUMPDEST PUSH2 0xDF5 DUP2 PUSH2 0xD76 JUMP JUMPDEST DUP3 MSTORE POP POP JUMP JUMPDEST PUSH0 PUSH1 0x40 DUP3 ADD SWAP1 POP PUSH2 0xE0E PUSH0 DUP4 ADD DUP6 PUSH2 0xDDD JUMP JUMPDEST PUSH2 0xE1B PUSH1 0x20 DUP4 ADD DUP5 PUSH2 0xDEC JUMP JUMPDEST SWAP4 SWAP3 POP POP POP JUMP JUMPDEST PUSH0 PUSH1 0x20 DUP3 ADD SWAP1 POP PUSH2 0xE35 PUSH0 DUP4 ADD DUP5 PUSH2 0xDEC JUMP JUMPDEST SWAP3 SWAP2 POP POP JUMP JUMPDEST PUSH2 0xE44 DUP2 PUSH2 0xDD4 JUMP JUMPDEST DUP2 EQ PUSH2 0xE4E JUMPI PUSH0 DUP1 REVERT JUMPDEST POP JUMP JUMPDEST PUSH0 DUP2 CALLDATALOAD SWAP1 POP PUSH2 0xE5F DUP2 PUSH2 0xE3B JUMP JUMPDEST SWAP3 SWAP2 POP POP JUMP JUMPDEST PUSH0 PUSH1 0x20 DUP3 DUP5 SUB SLT ISZERO PUSH2 0xE7A JUMPI PUSH2 0xE79 PUSH2 0xD72 JUMP JUMPDEST JUMPDEST PUSH0 PUSH2 0xE87 DUP5 DUP3 DUP6 ADD PUSH2 0xE51 JUMP JUMPDEST SWAP2 POP POP SWAP3 SWAP2 POP POP JUMP JUMPDEST PUSH0 PUSH20 0xFFFFFFFFFFFFFFFFFFFFFFFFFFFFFFFFFFFFFFFF DUP3 AND SWAP1 POP SWAP2 SWAP1 POP JUMP JUMPDEST PUSH0 PUSH2 0xEB9 DUP3 PUSH2 0xE90 JUMP JUMPDEST SWAP1 POP SWAP2 SWAP1 POP JUMP JUMPDEST PUSH2 0xEC9 DUP2 PUSH2 0xEAF JUMP JUMPDEST DUP3 MSTORE POP POP JUMP JUMPDEST PUSH0 PUSH1 0x20 DUP3 ADD SWAP1 POP PUSH2 0xEE2 PUSH0 DUP4 ADD DUP5 PUSH2 0xEC0 JUMP JUMPDEST SWAP3 SWAP2 POP POP JUMP JUMPDEST PUSH2 0xEF1 DUP2 PUSH2 0xEAF JUMP JUMPDEST DUP2 EQ PUSH2 0xEFB JUMPI PUSH0 DUP1 REVERT JUMPDEST POP JUMP JUMPDEST PUSH0 DUP2 CALLDATALOAD SWAP1 POP PUSH2 0xF0C DUP2 PUSH2 0xEE8 JUMP JUMPDEST SWAP3 SWAP2 POP POP JUMP JUMPDEST PUSH0 PUSH1 0x20 DUP3 DUP5 SUB SLT ISZERO PUSH2 0xF27 JUMPI PUSH2 0xF26 PUSH2 0xD72 JUMP JUMPDEST JUMPDEST PUSH0 PUSH2 0xF34 DUP5 DUP3 DUP6 ADD PUSH2 0xEFE JUMP JUMPDEST SWAP2 POP POP SWAP3 SWAP2 POP POP JUMP JUMPDEST PUSH0 DUP2 ISZERO ISZERO SWAP1 POP SWAP2 SWAP1 POP JUMP JUMPDEST PUSH2 0xF51 DUP2 PUSH2 0xF3D JUMP JUMPDEST DUP3 MSTORE POP POP JUMP JUMPDEST PUSH0 PUSH1 0x80 DUP3 ADD SWAP1 POP PUSH2 0xF6A PUSH0 DUP4 ADD DUP8 PUSH2 0xDEC JUMP JUMPDEST PUSH2 0xF77 PUSH1 0x20 DUP4 ADD DUP7 PUSH2 0xF48 JUMP JUMPDEST PUSH2 0xF84 PUSH1 0x40 DUP4 ADD DUP6 PUSH2 0xEC0 JUMP JUMPDEST PUSH2 0xF91 PUSH1 0x60 DUP4 ADD DUP5 PUSH2 0xDEC JUMP JUMPDEST SWAP6 SWAP5 POP POP POP POP POP JUMP JUMPDEST PUSH0 PUSH1 0x20 DUP3 ADD SWAP1 POP PUSH2 0xFAD PUSH0 DUP4 ADD DUP5 PUSH2 0xDDD JUMP JUMPDEST SWAP3 SWAP2 POP POP JUMP JUMPDEST PUSH0 DUP3 DUP3 MSTORE PUSH1 0x20 DUP3 ADD SWAP1 POP SWAP3 SWAP2 POP POP JUMP JUMPDEST PUSH32 0x566F74696E672068617320656E6465642E000000000000000000000000000000 PUSH0 DUP3 ADD MSTORE POP JUMP JUMPDEST PUSH0 PUSH2 0xFF7 PUSH1 0x11 DUP4 PUSH2 0xFB3 JUMP JUMPDEST SWAP2 POP PUSH2 0x1002 DUP3 PUSH2 0xFC3 JUMP JUMPDEST PUSH1 0x20 DUP3 ADD SWAP1 POP SWAP2 SWAP1 POP JUMP JUMPDEST PUSH0 PUSH1 0x20 DUP3 ADD SWAP1 POP DUP2 DUP2 SUB PUSH0 DUP4 ADD MSTORE PUSH2 0x1024 DUP2 PUSH2 0xFEB JUMP JUMPDEST SWAP1 POP SWAP2 SWAP1 POP JUMP JUMPDEST PUSH32 0x486173206E6F20726967687420746F20766F74652E0000000000000000000000 PUSH0 DUP3 ADD MSTORE POP JUMP JUMPDEST PUSH0 PUSH2 0x105F PUSH1 0x15 DUP4 PUSH2 0xFB3 JUMP JUMPDEST SWAP2 POP PUSH2 0x106A DUP3 PUSH2 0x102B JUMP JUMPDEST PUSH1 0x20 DUP3 ADD SWAP1 POP SWAP2 SWAP1 POP JUMP JUMPDEST PUSH0 PUSH1 0x20 DUP3 ADD SWAP1 POP DUP2 DUP2 SUB PUSH0 DUP4 ADD MSTORE PUSH2 0x108C DUP2 PUSH2 0x1053 JUMP JUMPDEST SWAP1 POP SWAP2 SWAP1 POP JUMP JUMPDEST PUSH32 0x416C726561647920766F7465642E000000000000000000000000000000000000 PUSH0 DUP3 ADD MSTORE POP JUMP JUMPDEST PUSH0 PUSH2 0x10C7 PUSH1 0xE DUP4 PUSH2 0xFB3 JUMP JUMPDEST SWAP2 POP PUSH2 0x10D2 DUP3 PUSH2 0x1093 JUMP JUMPDEST PUSH1 0x20 DUP3 ADD SWAP1 POP SWAP2 SWAP1 POP JUMP JUMPDEST PUSH0 PUSH1 0x20 DUP3 ADD SWAP1 POP DUP2 DUP2 SUB PUSH0 DUP4 ADD MSTORE PUSH2 0x10F4 DUP2 PUSH2 0x10BB JUMP JUMPDEST SWAP1 POP SWAP2 SWAP1 POP JUMP JUMPDEST PUSH32 0x4E487B7100000000000000000000000000000000000000000000000000000000 PUSH0 MSTORE PUSH1 0x32 PUSH1 0x4 MSTORE PUSH1 0x24 PUSH0 REVERT JUMPDEST PUSH32 0x4E487B7100000000000000000000000000000000000000000000000000000000 PUSH0 MSTORE PUSH1 0x11 PUSH1 0x4 MSTORE PUSH1 0x24 PUSH0 REVERT JUMPDEST PUSH0 PUSH2 0x115F DUP3 PUSH2 0xD76 JUMP JUMPDEST SWAP2 POP PUSH2 0x116A DUP4 PUSH2 0xD76 JUMP JUMPDEST SWAP3 POP DUP3 DUP3 ADD SWAP1 POP DUP1 DUP3 GT ISZERO PUSH2 0x1182 JUMPI PUSH2 0x1181 PUSH2 0x1128 JUMP JUMPDEST JUMPDEST SWAP3 SWAP2 POP POP JUMP JUMPDEST PUSH32 0x4F6E6C79206368616972706572736F6E2063616E20706572666F726D20746869 PUSH0 DUP3 ADD MSTORE PUSH32 0x7320616374696F6E2E0000000000000000000000000000000000000000000000 PUSH1 0x20 DUP3 ADD MSTORE POP JUMP JUMPDEST PUSH0 PUSH2 0x11E2 PUSH1 0x29 DUP4 PUSH2 0xFB3 JUMP JUMPDEST SWAP2 POP PUSH2 0x11ED DUP3 PUSH2 0x1188 JUMP JUMPDEST PUSH1 0x40 DUP3 ADD SWAP1 POP SWAP2 SWAP1 POP JUMP JUMPDEST PUSH0 PUSH1 0x20 DUP3 ADD SWAP1 POP DUP2 DUP2 SUB PUSH0 DUP4 ADD MSTORE PUSH2 0x120F DUP2 PUSH2 0x11D6 JUMP JUMPDEST SWAP1 POP SWAP2 SWAP1 POP JUMP JUMPDEST PUSH32 0x596F7520686176656E277420766F746564207965742E00000000000000000000 PUSH0 DUP3 ADD MSTORE POP JUMP JUMPDEST PUSH0 PUSH2 0x124A PUSH1 0x16 DUP4 PUSH2 0xFB3 JUMP JUMPDEST SWAP2 POP PUSH2 0x1255 DUP3 PUSH2 0x1216 JUMP JUMPDEST PUSH1 0x20 DUP3 ADD SWAP1 POP SWAP2 SWAP1 POP JUMP JUMPDEST PUSH0 PUSH1 0x20 DUP3 ADD SWAP1 POP DUP2 DUP2 SUB PUSH0 DUP4 ADD MSTORE PUSH2 0x1277 DUP2 PUSH2 0x123E JUMP JUMPDEST SWAP1 POP SWAP2 SWAP1 POP JUMP JUMPDEST PUSH0 PUSH2 0x1288 DUP3 PUSH2 0xD76 JUMP JUMPDEST SWAP2 POP PUSH2 0x1293 DUP4 PUSH2 0xD76 JUMP JUMPDEST SWAP3 POP DUP3 DUP3 SUB SWAP1 POP DUP2 DUP2 GT ISZERO PUSH2 0x12AB JUMPI PUSH2 0x12AA PUSH2 0x1128 JUMP JUMPDEST JUMPDEST SWAP3 SWAP2 POP POP JUMP JUMPDEST PUSH32 0x596F7520616C726561647920766F7465642E0000000000000000000000000000 PUSH0 DUP3 ADD MSTORE POP JUMP JUMPDEST PUSH0 PUSH2 0x12E5 PUSH1 0x12 DUP4 PUSH2 0xFB3 JUMP JUMPDEST SWAP2 POP PUSH2 0x12F0 DUP3 PUSH2 0x12B1 JUMP JUMPDEST PUSH1 0x20 DUP3 ADD SWAP1 POP SWAP2 SWAP1 POP JUMP JUMPDEST PUSH0 PUSH1 0x20 DUP3 ADD SWAP1 POP DUP2 DUP2 SUB PUSH0 DUP4 ADD MSTORE PUSH2 0x1312 DUP2 PUSH2 0x12D9 JUMP JUMPDEST SWAP1 POP SWAP2 SWAP1 POP JUMP JUMPDEST PUSH32 0x53656C662D64656C65676174696F6E20697320646973616C6C6F7765642E0000 PUSH0 DUP3 ADD MSTORE POP JUMP JUMPDEST PUSH0 PUSH2 0x134D PUSH1 0x1E DUP4 PUSH2 0xFB3 JUMP JUMPDEST SWAP2 POP PUSH2 0x1358 DUP3 PUSH2 0x1319 JUMP JUMPDEST PUSH1 0x20 DUP3 ADD SWAP1 POP SWAP2 SWAP1 POP JUMP JUMPDEST PUSH0 PUSH1 0x20 DUP3 ADD SWAP1 POP DUP2 DUP2 SUB PUSH0 DUP4 ADD MSTORE PUSH2 0x137A DUP2 PUSH2 0x1341 JUMP JUMPDEST SWAP1 POP SWAP2 SWAP1 POP JUMP JUMPDEST PUSH32 0x466F756E64206C6F6F7020696E2064656C65676174696F6E2E00000000000000 PUSH0 DUP3 ADD MSTORE POP JUMP JUMPDEST PUSH0 PUSH2 0x13B5 PUSH1 0x19 DUP4 PUSH2 0xFB3 JUMP JUMPDEST SWAP2 POP PUSH2 0x13C0 DUP3 PUSH2 0x1381 JUMP JUMPDEST PUSH1 0x20 DUP3 ADD SWAP1 POP SWAP2 SWAP1 POP JUMP JUMPDEST PUSH0 PUSH1 0x20 DUP3 ADD SWAP1 POP DUP2 DUP2 SUB PUSH0 DUP4 ADD MSTORE PUSH2 0x13E2 DUP2 PUSH2 0x13A9 JUMP JUMPDEST SWAP1 POP SWAP2 SWAP1 POP JUMP JUMPDEST PUSH32 0x54686520766F74657220616C726561647920766F7465642E0000000000000000 PUSH0 DUP3 ADD MSTORE POP JUMP JUMPDEST PUSH0 PUSH2 0x141D PUSH1 0x18 DUP4 PUSH2 0xFB3 JUMP JUMPDEST SWAP2 POP PUSH2 0x1428 DUP3 PUSH2 0x13E9 JUMP JUMPDEST PUSH1 0x20 DUP3 ADD SWAP1 POP SWAP2 SWAP1 POP JUMP JUMPDEST PUSH0 PUSH1 0x20 DUP3 ADD SWAP1 POP DUP2 DUP2 SUB PUSH0 DUP4 ADD MSTORE PUSH2 0x144A DUP2 PUSH2 0x1411 JUMP JUMPDEST SWAP1 POP SWAP2 SWAP1 POP JUMP JUMPDEST PUSH32 0x566F74657220616C7265616479206861732074686520726967687420746F2076 PUSH0 DUP3 ADD MSTORE PUSH32 0x6F74652E00000000000000000000000000000000000000000000000000000000 PUSH1 0x20 DUP3 ADD MSTORE POP JUMP JUMPDEST PUSH0 PUSH2 0x14AB PUSH1 0x24 DUP4 PUSH2 0xFB3 JUMP JUMPDEST SWAP2 POP PUSH2 0x14B6 DUP3 PUSH2 0x1451 JUMP JUMPDEST PUSH1 0x40 DUP3 ADD SWAP1 POP SWAP2 SWAP1 POP JUMP JUMPDEST PUSH0 PUSH1 0x20 DUP3 ADD SWAP1 POP DUP2 DUP2 SUB PUSH0 DUP4 ADD MSTORE PUSH2 0x14D8 DUP2 PUSH2 0x149F JUMP JUMPDEST SWAP1 POP SWAP2 SWAP1 POP JUMP INVALID LOG2 PUSH5 0x6970667358 0x22 SLT KECCAK256 0xFC SWAP5 DUP11 KECCAK256 0x4D SMOD PUSH2 0xD89E TIMESTAMP PUSH9 0x7235962B143BE34B9B 0x2C RETURNDATACOPY PUSH28 0xF8808D193630C76EF564736F6C634300081A00330000000000000000 "
				},
				"gasEstimates": {
					"creation": {
						"codeDepositCost": "1079400",
						"executionCost": "infinite",
						"totalCost": "infinite"
					},
					"external": {
						"addProposal(bytes32)": "54164",
						"announceWinner()": "infinite",
						"chairperson()": "2505",
						"delegate(address)": "infinite",
						"giveRightToVote(address)": "29352",
						"proposals(uint256)": "infinite",
						"retractVote()": "infinite",
						"vote(uint256)": "infinite",
						"voters(address)": "infinite",
						"votingDeadline()": "2470",
						"winnerName()": "infinite",
						"winningProposal()": "infinite"
					}
				},
				"methodIdentifiers": {
					"addProposal(bytes32)": "06efe3b0",
					"announceWinner()": "2d8cd096",
					"chairperson()": "2e4176cf",
					"delegate(address)": "5c19a95c",
					"giveRightToVote(address)": "9e7b8d61",
					"proposals(uint256)": "013cf08b",
					"retractVote()": "070c8b74",
					"vote(uint256)": "0121b93f",
					"voters(address)": "a3ec138d",
					"votingDeadline()": "036ee850",
					"winnerName()": "e2ba53f0",
					"winningProposal()": "609ff1bd"
				}
			},
			"storageLayout": {
				"storage": [
					{
						"astId": 18,
						"contract": "SmartContractVoting/voting.sol:Ballot",
						"label": "chairperson",
						"offset": 0,
						"slot": "0",
						"type": "t_address"
					},
					{
						"astId": 20,
						"contract": "SmartContractVoting/voting.sol:Ballot",
						"label": "votingDeadline",
						"offset": 0,
						"slot": "1",
						"type": "t_uint256"
					},
					{
						"astId": 24,
						"contract": "SmartContractVoting/voting.sol:Ballot",
						"label": "proposals",
						"offset": 0,
						"slot": "2",
						"type": "t_array(t_struct(Proposal)16_storage)dyn_storage"
					},
					{
						"astId": 29,
						"contract": "SmartContractVoting/voting.sol:Ballot",
						"label": "voters",
						"offset": 0,
						"slot": "3",
						"type": "t_mapping(t_address,t_struct(Voter)11_storage)"
					}
				],
				"types": {
					"t_address": {
						"encoding": "inplace",
						"label": "address",
						"numberOfBytes": "20"
					},
					"t_array(t_struct(Proposal)16_storage)dyn_storage": {
						"base": "t_struct(Proposal)16_storage",
						"encoding": "dynamic_array",
						"label": "struct Ballot.Proposal[]",
						"numberOfBytes": "32"
					},
					"t_bool": {
						"encoding": "inplace",
						"label": "bool",
						"numberOfBytes": "1"
					},
					"t_bytes32": {
						"encoding": "inplace",
						"label": "bytes32",
						"numberOfBytes": "32"
					},
					"t_mapping(t_address,t_struct(Voter)11_storage)": {
						"encoding": "mapping",
						"key": "t_address",
						"label": "mapping(address => struct Ballot.Voter)",
						"numberOfBytes": "32",
						"value": "t_struct(Voter)11_storage"
					},
					"t_struct(Proposal)16_storage": {
						"encoding": "inplace",
						"label": "struct Ballot.Proposal",
						"members": [
							{
								"astId": 13,
								"contract": "SmartContractVoting/voting.sol:Ballot",
								"label": "name",
								"offset": 0,
								"slot": "0",
								"type": "t_bytes32"
							},
							{
								"astId": 15,
								"contract": "SmartContractVoting/voting.sol:Ballot",
								"label": "voteCount",
								"offset": 0,
								"slot": "1",
								"type": "t_uint256"
							}
						],
						"numberOfBytes": "64"
					},
					"t_struct(Voter)11_storage": {
						"encoding": "inplace",
						"label": "struct Ballot.Voter",
						"members": [
							{
								"astId": 4,
								"contract": "SmartContractVoting/voting.sol:Ballot",
								"label": "weight",
								"offset": 0,
								"slot": "0",
								"type": "t_uint256"
							},
							{
								"astId": 6,
								"contract": "SmartContractVoting/voting.sol:Ballot",
								"label": "voted",
								"offset": 0,
								"slot": "1",
								"type": "t_bool"
							},
							{
								"astId": 8,
								"contract": "SmartContractVoting/voting.sol:Ballot",
								"label": "delegate",
								"offset": 1,
								"slot": "1",
								"type": "t_address"
							},
							{
								"astId": 10,
								"contract": "SmartContractVoting/voting.sol:Ballot",
								"label": "vote",
								"offset": 0,
								"slot": "2",
								"type": "t_uint256"
							}
						],
						"numberOfBytes": "96"
					},
					"t_uint256": {
						"encoding": "inplace",
						"label": "uint256",
						"numberOfBytes": "32"
					}
				}
			},
			"userdoc": {
				"kind": "user",
				"methods": {},
				"version": 1
			}
		}
	}
}